{
  "contractName": "ERC1056",
  "abi": [
    {
      "anonymous": false,
      "inputs": [
        {
          "indexed": true,
          "internalType": "address",
          "name": "identity",
          "type": "address"
        },
        {
          "indexed": false,
          "internalType": "bytes32",
          "name": "name",
          "type": "bytes32"
        },
        {
          "indexed": false,
          "internalType": "bytes",
          "name": "value",
          "type": "bytes"
        },
        {
          "indexed": false,
          "internalType": "uint256",
          "name": "validTo",
          "type": "uint256"
        },
        {
          "indexed": false,
          "internalType": "uint256",
          "name": "previousChange",
          "type": "uint256"
        }
      ],
      "name": "DIDAttributeChanged",
      "type": "event"
    },
    {
      "anonymous": false,
      "inputs": [
        {
          "indexed": true,
          "internalType": "address",
          "name": "identity",
          "type": "address"
        },
        {
          "indexed": false,
          "internalType": "bytes32",
          "name": "delegateType",
          "type": "bytes32"
        },
        {
          "indexed": false,
          "internalType": "address",
          "name": "delegate",
          "type": "address"
        },
        {
          "indexed": false,
          "internalType": "uint256",
          "name": "validTo",
          "type": "uint256"
        },
        {
          "indexed": false,
          "internalType": "uint256",
          "name": "previousChange",
          "type": "uint256"
        }
      ],
      "name": "DIDDelegateChanged",
      "type": "event"
    },
    {
      "anonymous": false,
      "inputs": [
        {
          "indexed": true,
          "internalType": "address",
          "name": "identity",
          "type": "address"
        },
        {
          "indexed": false,
          "internalType": "address",
          "name": "owner",
          "type": "address"
        },
        {
          "indexed": false,
          "internalType": "uint256",
          "name": "previousChange",
          "type": "uint256"
        }
      ],
      "name": "DIDOwnerChanged",
      "type": "event"
    },
    {
      "constant": true,
      "inputs": [
        {
          "internalType": "address",
          "name": "",
          "type": "address"
        }
      ],
      "name": "changed",
      "outputs": [
        {
          "internalType": "uint256",
          "name": "",
          "type": "uint256"
        }
      ],
      "payable": false,
      "stateMutability": "view",
      "type": "function"
    },
    {
      "constant": true,
      "inputs": [
        {
          "internalType": "address",
          "name": "",
          "type": "address"
        },
        {
          "internalType": "bytes32",
          "name": "",
          "type": "bytes32"
        },
        {
          "internalType": "address",
          "name": "",
          "type": "address"
        }
      ],
      "name": "delegates",
      "outputs": [
        {
          "internalType": "uint256",
          "name": "",
          "type": "uint256"
        }
      ],
      "payable": false,
      "stateMutability": "view",
      "type": "function"
    },
    {
      "constant": true,
      "inputs": [
        {
          "internalType": "address",
          "name": "",
          "type": "address"
        }
      ],
      "name": "nonce",
      "outputs": [
        {
          "internalType": "uint256",
          "name": "",
          "type": "uint256"
        }
      ],
      "payable": false,
      "stateMutability": "view",
      "type": "function"
    },
    {
      "constant": true,
      "inputs": [
        {
          "internalType": "address",
          "name": "",
          "type": "address"
        }
      ],
      "name": "owners",
      "outputs": [
        {
          "internalType": "address",
          "name": "",
          "type": "address"
        }
      ],
      "payable": false,
      "stateMutability": "view",
      "type": "function"
    },
    {
      "constant": true,
      "inputs": [
        {
          "internalType": "address",
          "name": "identity",
          "type": "address"
        }
      ],
      "name": "identityOwner",
      "outputs": [
        {
          "internalType": "address",
          "name": "",
          "type": "address"
        }
      ],
      "payable": false,
      "stateMutability": "view",
      "type": "function"
    },
    {
      "constant": true,
      "inputs": [
        {
          "internalType": "address",
          "name": "identity",
          "type": "address"
        },
        {
          "internalType": "bytes32",
          "name": "delegateType",
          "type": "bytes32"
        },
        {
          "internalType": "address",
          "name": "delegate",
          "type": "address"
        }
      ],
      "name": "validDelegate",
      "outputs": [
        {
          "internalType": "bool",
          "name": "",
          "type": "bool"
        }
      ],
      "payable": false,
      "stateMutability": "view",
      "type": "function"
    },
    {
      "constant": false,
      "inputs": [
        {
          "internalType": "address",
          "name": "identity",
          "type": "address"
        },
        {
          "internalType": "address",
          "name": "newOwner",
          "type": "address"
        }
      ],
      "name": "changeOwner",
      "outputs": [],
      "payable": false,
      "stateMutability": "nonpayable",
      "type": "function"
    },
    {
      "constant": false,
      "inputs": [
        {
          "internalType": "address",
          "name": "identity",
          "type": "address"
        },
        {
          "internalType": "uint8",
          "name": "sigV",
          "type": "uint8"
        },
        {
          "internalType": "bytes32",
          "name": "sigR",
          "type": "bytes32"
        },
        {
          "internalType": "bytes32",
          "name": "sigS",
          "type": "bytes32"
        },
        {
          "internalType": "address",
          "name": "newOwner",
          "type": "address"
        }
      ],
      "name": "changeOwnerSigned",
      "outputs": [],
      "payable": false,
      "stateMutability": "nonpayable",
      "type": "function"
    },
    {
      "constant": false,
      "inputs": [
        {
          "internalType": "address",
          "name": "identity",
          "type": "address"
        },
        {
          "internalType": "bytes32",
          "name": "delegateType",
          "type": "bytes32"
        },
        {
          "internalType": "address",
          "name": "delegate",
          "type": "address"
        },
        {
          "internalType": "uint256",
          "name": "validity",
          "type": "uint256"
        }
      ],
      "name": "addDelegate",
      "outputs": [],
      "payable": false,
      "stateMutability": "nonpayable",
      "type": "function"
    },
    {
      "constant": false,
      "inputs": [
        {
          "internalType": "address",
          "name": "identity",
          "type": "address"
        },
        {
          "internalType": "uint8",
          "name": "sigV",
          "type": "uint8"
        },
        {
          "internalType": "bytes32",
          "name": "sigR",
          "type": "bytes32"
        },
        {
          "internalType": "bytes32",
          "name": "sigS",
          "type": "bytes32"
        },
        {
          "internalType": "bytes32",
          "name": "delegateType",
          "type": "bytes32"
        },
        {
          "internalType": "address",
          "name": "delegate",
          "type": "address"
        },
        {
          "internalType": "uint256",
          "name": "validity",
          "type": "uint256"
        }
      ],
      "name": "addDelegateSigned",
      "outputs": [],
      "payable": false,
      "stateMutability": "nonpayable",
      "type": "function"
    },
    {
      "constant": false,
      "inputs": [
        {
          "internalType": "address",
          "name": "identity",
          "type": "address"
        },
        {
          "internalType": "bytes32",
          "name": "delegateType",
          "type": "bytes32"
        },
        {
          "internalType": "address",
          "name": "delegate",
          "type": "address"
        }
      ],
      "name": "revokeDelegate",
      "outputs": [],
      "payable": false,
      "stateMutability": "nonpayable",
      "type": "function"
    },
    {
      "constant": false,
      "inputs": [
        {
          "internalType": "address",
          "name": "identity",
          "type": "address"
        },
        {
          "internalType": "uint8",
          "name": "sigV",
          "type": "uint8"
        },
        {
          "internalType": "bytes32",
          "name": "sigR",
          "type": "bytes32"
        },
        {
          "internalType": "bytes32",
          "name": "sigS",
          "type": "bytes32"
        },
        {
          "internalType": "bytes32",
          "name": "delegateType",
          "type": "bytes32"
        },
        {
          "internalType": "address",
          "name": "delegate",
          "type": "address"
        }
      ],
      "name": "revokeDelegateSigned",
      "outputs": [],
      "payable": false,
      "stateMutability": "nonpayable",
      "type": "function"
    },
    {
      "constant": false,
      "inputs": [
        {
          "internalType": "address",
          "name": "identity",
          "type": "address"
        },
        {
          "internalType": "bytes32",
          "name": "name",
          "type": "bytes32"
        },
        {
          "internalType": "bytes",
          "name": "value",
          "type": "bytes"
        },
        {
          "internalType": "uint256",
          "name": "validity",
          "type": "uint256"
        }
      ],
      "name": "setAttribute",
      "outputs": [],
      "payable": false,
      "stateMutability": "nonpayable",
      "type": "function"
    },
    {
      "constant": false,
      "inputs": [
        {
          "internalType": "address",
          "name": "identity",
          "type": "address"
        },
        {
          "internalType": "uint8",
          "name": "sigV",
          "type": "uint8"
        },
        {
          "internalType": "bytes32",
          "name": "sigR",
          "type": "bytes32"
        },
        {
          "internalType": "bytes32",
          "name": "sigS",
          "type": "bytes32"
        },
        {
          "internalType": "bytes32",
          "name": "name",
          "type": "bytes32"
        },
        {
          "internalType": "bytes",
          "name": "value",
          "type": "bytes"
        },
        {
          "internalType": "uint256",
          "name": "validity",
          "type": "uint256"
        }
      ],
      "name": "setAttributeSigned",
      "outputs": [],
      "payable": false,
      "stateMutability": "nonpayable",
      "type": "function"
    },
    {
      "constant": false,
      "inputs": [
        {
          "internalType": "address",
          "name": "identity",
          "type": "address"
        },
        {
          "internalType": "bytes32",
          "name": "name",
          "type": "bytes32"
        },
        {
          "internalType": "bytes",
          "name": "value",
          "type": "bytes"
        }
      ],
      "name": "revokeAttribute",
      "outputs": [],
      "payable": false,
      "stateMutability": "nonpayable",
      "type": "function"
    },
    {
      "constant": false,
      "inputs": [
        {
          "internalType": "address",
          "name": "identity",
          "type": "address"
        },
        {
          "internalType": "uint8",
          "name": "sigV",
          "type": "uint8"
        },
        {
          "internalType": "bytes32",
          "name": "sigR",
          "type": "bytes32"
        },
        {
          "internalType": "bytes32",
          "name": "sigS",
          "type": "bytes32"
        },
        {
          "internalType": "bytes32",
          "name": "name",
          "type": "bytes32"
        },
        {
          "internalType": "bytes",
          "name": "value",
          "type": "bytes"
        }
      ],
      "name": "revokeAttributeSigned",
      "outputs": [],
      "payable": false,
      "stateMutability": "nonpayable",
      "type": "function"
    }
  ],
  "bytecode": "0x608060405234801561001057600080fd5b50611fef806100206000396000f3fe608060405234801561001057600080fd5b50600436106100ff5760003560e01c806380b29f7c11610097578063a7068d6611610066578063a7068d66146102b8578063e476af5c146102d4578063f00d4b5d146102f0578063f96d0f9f1461030c576100ff565b806380b29f7c146102345780638733d4e81461025057806393072684146102805780639c2c1b2b1461029c576100ff565b8063240cf1fa116100d3578063240cf1fa1461019c578063622b2a3c146101b857806370ae92d2146101e85780637ad4b0a414610218576100ff565b8062c023da14610104578063022914a7146101205780630d44625b14610150578063123b5e9814610180575b600080fd5b61011e600480360361011991908101906112b3565b61033c565b005b61013a6004803603610135919081019061119c565b61034d565b6040516101479190611bc6565b60405180910390f35b61016a60048036036101659190810190611201565b610380565b6040516101779190611d47565b60405180910390f35b61019a600480360361019591908101906115d4565b6103b2565b005b6101b660048036036101b19190810190611395565b61045d565b005b6101d260048036036101cd9190810190611201565b610500565b6040516101df9190611c0a565b60405180910390f35b61020260048036036101fd919081019061119c565b6105a0565b60405161020f9190611d47565b60405180910390f35b610232600480360361022d919081019061131a565b6105b8565b005b61024e60048036036102499190810190611201565b6105cb565b005b61026a6004803603610265919081019061119c565b6105dc565b6040516102779190611bc6565b60405180910390f35b61029a6004803603610295919081019061140c565b610687565b005b6102b660048036036102b19190810190611495565b61072e565b005b6102d260048036036102cd9190810190611250565b6107d9565b005b6102ee60048036036102e99190810190611533565b6107ec565b005b61030a600480360361030591908101906111c5565b610893565b005b6103266004803603610321919081019061119c565b6108a2565b6040516103339190611d47565b60405180910390f35b610348833384846108ba565b505050565b60006020528060005260406000206000915054906101000a900473ffffffffffffffffffffffffffffffffffffffff1681565b600160205282600052604060002060205281600052604060002060205280600052604060002060009250925050505481565b6000601960f81b600060f81b30600360006103cc8d6105dc565b73ffffffffffffffffffffffffffffffffffffffff1673ffffffffffffffffffffffffffffffffffffffff168152602001908152602001600020548b888888604051602001610422989796959493929190611aa1565b6040516020818303038152906040528051906020012090506104538861044b8a8a8a8a876109dc565b868686610acc565b5050505050505050565b6000601960f81b600060f81b30600360006104778b6105dc565b73ffffffffffffffffffffffffffffffffffffffff1673ffffffffffffffffffffffffffffffffffffffff1681526020019081526020016000205489866040516020016104c996959493929190611989565b6040516020818303038152906040528051906020012090506104f8866104f288888888876109dc565b84610bf0565b505050505050565b600080600160008673ffffffffffffffffffffffffffffffffffffffff1673ffffffffffffffffffffffffffffffffffffffff168152602001908152602001600020600085815260200190815260200160002060008473ffffffffffffffffffffffffffffffffffffffff1673ffffffffffffffffffffffffffffffffffffffff1681526020019081526020016000205490504281119150509392505050565b60036020528060005260406000206000915090505481565b6105c58433858585610acc565b50505050565b6105d783338484610d89565b505050565b6000806000808473ffffffffffffffffffffffffffffffffffffffff1673ffffffffffffffffffffffffffffffffffffffff16815260200190815260200160002060009054906101000a900473ffffffffffffffffffffffffffffffffffffffff169050600073ffffffffffffffffffffffffffffffffffffffff168173ffffffffffffffffffffffffffffffffffffffff161461067d5780915050610682565b829150505b919050565b6000601960f81b600060f81b30600360006106a18c6105dc565b73ffffffffffffffffffffffffffffffffffffffff1673ffffffffffffffffffffffffffffffffffffffff168152602001908152602001600020548a87876040516020016106f59796959493929190611b3a565b6040516020818303038152906040528051906020012090506107258761071e89898989876109dc565b8585610d89565b50505050505050565b6000601960f81b600060f81b30600360006107488d6105dc565b73ffffffffffffffffffffffffffffffffffffffff1673ffffffffffffffffffffffffffffffffffffffff168152602001908152602001600020548b88888860405160200161079e989796959493929190611a04565b6040516020818303038152906040528051906020012090506107cf886107c78a8a8a8a876109dc565b868686610f3c565b5050505050505050565b6107e68433858585610f3c565b50505050565b6000601960f81b600060f81b30600360006108068c6105dc565b73ffffffffffffffffffffffffffffffffffffffff1673ffffffffffffffffffffffffffffffffffffffff168152602001908152602001600020548a878760405160200161085a9796959493929190611901565b60405160208183030381529060405280519060200120905061088a8761088389898989876109dc565b85856108ba565b50505050505050565b61089e823383610bf0565b5050565b60026020528060005260406000206000915090505481565b83836108c5826105dc565b73ffffffffffffffffffffffffffffffffffffffff168173ffffffffffffffffffffffffffffffffffffffff16146108fc57600080fd5b8573ffffffffffffffffffffffffffffffffffffffff167f18ab6b2ae3d64306c00ce663125f2bd680e441a098de1635bd7ad8b0d44965e485856000600260008c73ffffffffffffffffffffffffffffffffffffffff1673ffffffffffffffffffffffffffffffffffffffff168152602001908152602001600020546040516109889493929190611c6a565b60405180910390a243600260008873ffffffffffffffffffffffffffffffffffffffff1673ffffffffffffffffffffffffffffffffffffffff16815260200190815260200160002081905550505050505050565b60008060018387878760405160008152602001604052604051610a029493929190611d02565b6020604051602081039080840390855afa158015610a24573d6000803e3d6000fd5b505050602060405103519050610a39876105dc565b73ffffffffffffffffffffffffffffffffffffffff168173ffffffffffffffffffffffffffffffffffffffff1614610a7057600080fd5b600360008273ffffffffffffffffffffffffffffffffffffffff1673ffffffffffffffffffffffffffffffffffffffff168152602001908152602001600020600081548092919060010191905055508091505095945050505050565b8484610ad7826105dc565b73ffffffffffffffffffffffffffffffffffffffff168173ffffffffffffffffffffffffffffffffffffffff1614610b0e57600080fd5b8673ffffffffffffffffffffffffffffffffffffffff167f18ab6b2ae3d64306c00ce663125f2bd680e441a098de1635bd7ad8b0d44965e48686864201600260008d73ffffffffffffffffffffffffffffffffffffffff1673ffffffffffffffffffffffffffffffffffffffff16815260200190815260200160002054604051610b9b9493929190611cb6565b60405180910390a243600260008973ffffffffffffffffffffffffffffffffffffffff1673ffffffffffffffffffffffffffffffffffffffff1681526020019081526020016000208190555050505050505050565b8282610bfb826105dc565b73ffffffffffffffffffffffffffffffffffffffff168173ffffffffffffffffffffffffffffffffffffffff1614610c3257600080fd5b826000808773ffffffffffffffffffffffffffffffffffffffff1673ffffffffffffffffffffffffffffffffffffffff16815260200190815260200160002060006101000a81548173ffffffffffffffffffffffffffffffffffffffff021916908373ffffffffffffffffffffffffffffffffffffffff1602179055508473ffffffffffffffffffffffffffffffffffffffff167f38a5a6e68f30ed1ab45860a4afb34bcb2fc00f22ca462d249b8a8d40cda6f7a384600260008973ffffffffffffffffffffffffffffffffffffffff1673ffffffffffffffffffffffffffffffffffffffff16815260200190815260200160002054604051610d36929190611be1565b60405180910390a243600260008773ffffffffffffffffffffffffffffffffffffffff1673ffffffffffffffffffffffffffffffffffffffff168152602001908152602001600020819055505050505050565b8383610d94826105dc565b73ffffffffffffffffffffffffffffffffffffffff168173ffffffffffffffffffffffffffffffffffffffff1614610dcb57600080fd5b42600160008873ffffffffffffffffffffffffffffffffffffffff1673ffffffffffffffffffffffffffffffffffffffff168152602001908152602001600020600086815260200190815260200160002060008573ffffffffffffffffffffffffffffffffffffffff1673ffffffffffffffffffffffffffffffffffffffff168152602001908152602001600020819055508573ffffffffffffffffffffffffffffffffffffffff167f5a5084339536bcab65f20799fcc58724588145ca054bd2be626174b27ba156f7858542600260008c73ffffffffffffffffffffffffffffffffffffffff1673ffffffffffffffffffffffffffffffffffffffff16815260200190815260200160002054604051610ee89493929190611c25565b60405180910390a243600260008873ffffffffffffffffffffffffffffffffffffffff1673ffffffffffffffffffffffffffffffffffffffff16815260200190815260200160002081905550505050505050565b8484610f47826105dc565b73ffffffffffffffffffffffffffffffffffffffff168173ffffffffffffffffffffffffffffffffffffffff1614610f7e57600080fd5b824201600160008973ffffffffffffffffffffffffffffffffffffffff1673ffffffffffffffffffffffffffffffffffffffff168152602001908152602001600020600087815260200190815260200160002060008673ffffffffffffffffffffffffffffffffffffffff1673ffffffffffffffffffffffffffffffffffffffff168152602001908152602001600020819055508673ffffffffffffffffffffffffffffffffffffffff167f5a5084339536bcab65f20799fcc58724588145ca054bd2be626174b27ba156f78686864201600260008d73ffffffffffffffffffffffffffffffffffffffff1673ffffffffffffffffffffffffffffffffffffffff1681526020019081526020016000205460405161109f9493929190611c25565b60405180910390a243600260008973ffffffffffffffffffffffffffffffffffffffff1673ffffffffffffffffffffffffffffffffffffffff1681526020019081526020016000208190555050505050505050565b60008135905061110381611f50565b92915050565b60008135905061111881611f67565b92915050565b600082601f83011261112f57600080fd5b813561114261113d82611d8f565b611d62565b9150808252602083016020830185838301111561115e57600080fd5b611169838284611eae565b50505092915050565b60008135905061118181611f7e565b92915050565b60008135905061119681611f95565b92915050565b6000602082840312156111ae57600080fd5b60006111bc848285016110f4565b91505092915050565b600080604083850312156111d857600080fd5b60006111e6858286016110f4565b92505060206111f7858286016110f4565b9150509250929050565b60008060006060848603121561121657600080fd5b6000611224868287016110f4565b935050602061123586828701611109565b9250506040611246868287016110f4565b9150509250925092565b6000806000806080858703121561126657600080fd5b6000611274878288016110f4565b945050602061128587828801611109565b9350506040611296878288016110f4565b92505060606112a787828801611172565b91505092959194509250565b6000806000606084860312156112c857600080fd5b60006112d6868287016110f4565b93505060206112e786828701611109565b925050604084013567ffffffffffffffff81111561130457600080fd5b6113108682870161111e565b9150509250925092565b6000806000806080858703121561133057600080fd5b600061133e878288016110f4565b945050602061134f87828801611109565b935050604085013567ffffffffffffffff81111561136c57600080fd5b6113788782880161111e565b925050606061138987828801611172565b91505092959194509250565b600080600080600060a086880312156113ad57600080fd5b60006113bb888289016110f4565b95505060206113cc88828901611187565b94505060406113dd88828901611109565b93505060606113ee88828901611109565b92505060806113ff888289016110f4565b9150509295509295909350565b60008060008060008060c0878903121561142557600080fd5b600061143389828a016110f4565b965050602061144489828a01611187565b955050604061145589828a01611109565b945050606061146689828a01611109565b935050608061147789828a01611109565b92505060a061148889828a016110f4565b9150509295509295509295565b600080600080600080600060e0888a0312156114b057600080fd5b60006114be8a828b016110f4565b97505060206114cf8a828b01611187565b96505060406114e08a828b01611109565b95505060606114f18a828b01611109565b94505060806115028a828b01611109565b93505060a06115138a828b016110f4565b92505060c06115248a828b01611172565b91505092959891949750929550565b60008060008060008060c0878903121561154c57600080fd5b600061155a89828a016110f4565b965050602061156b89828a01611187565b955050604061157c89828a01611109565b945050606061158d89828a01611109565b935050608061159e89828a01611109565b92505060a087013567ffffffffffffffff8111156115bb57600080fd5b6115c789828a0161111e565b9150509295509295509295565b600080600080600080600060e0888a0312156115ef57600080fd5b60006115fd8a828b016110f4565b975050602061160e8a828b01611187565b965050604061161f8a828b01611109565b95505060606116308a828b01611109565b94505060806116418a828b01611109565b93505060a088013567ffffffffffffffff81111561165e57600080fd5b61166a8a828b0161111e565b92505060c061167b8a828b01611172565b91505092959891949750929550565b61169381611ded565b82525050565b6116aa6116a582611ded565b611ef0565b82525050565b6116b981611dff565b82525050565b6116d06116cb82611e0b565b611f02565b82525050565b6116df81611e37565b82525050565b6116f66116f182611e37565b611f0c565b82525050565b600061170782611dbb565b6117118185611dc6565b9350611721818560208601611ebd565b61172a81611f32565b840191505092915050565b600061174082611dbb565b61174a8185611dd7565b935061175a818560208601611ebd565b80840191505092915050565b61177761177282611e78565b611ef0565b82525050565b61178681611e9c565b82525050565b6000611799600f83611de2565b91507f7265766f6b6541747472696275746500000000000000000000000000000000006000830152600f82019050919050565b60006117d9600b83611de2565b91507f6368616e67654f776e65720000000000000000000000000000000000000000006000830152600b82019050919050565b6000611819600b83611de2565b91507f61646444656c65676174650000000000000000000000000000000000000000006000830152600b82019050919050565b6000611859600c83611de2565b91507f73657441747472696275746500000000000000000000000000000000000000006000830152600c82019050919050565b6000611899600e83611de2565b91507f7265766f6b6544656c65676174650000000000000000000000000000000000006000830152600e82019050919050565b6118d581611e61565b82525050565b6118ec6118e782611e61565b611f28565b82525050565b6118fb81611e6b565b82525050565b600061190d828a6116bf565b60018201915061191d82896116bf565b60018201915061192d8288611766565b60148201915061193d82876118db565b60208201915061194d8286611699565b60148201915061195c8261178c565b915061196882856116e5565b6020820191506119788284611735565b915081905098975050505050505050565b600061199582896116bf565b6001820191506119a582886116bf565b6001820191506119b58287611766565b6014820191506119c582866118db565b6020820191506119d58285611699565b6014820191506119e4826117cc565b91506119f08284611699565b601482019150819050979650505050505050565b6000611a10828b6116bf565b600182019150611a20828a6116bf565b600182019150611a308289611766565b601482019150611a4082886118db565b602082019150611a508287611699565b601482019150611a5f8261180c565b9150611a6b82866116e5565b602082019150611a7b8285611699565b601482019150611a8b82846118db565b6020820191508190509998505050505050505050565b6000611aad828b6116bf565b600182019150611abd828a6116bf565b600182019150611acd8289611766565b601482019150611add82886118db565b602082019150611aed8287611699565b601482019150611afc8261184c565b9150611b0882866116e5565b602082019150611b188285611735565b9150611b2482846118db565b6020820191508190509998505050505050505050565b6000611b46828a6116bf565b600182019150611b5682896116bf565b600182019150611b668288611766565b601482019150611b7682876118db565b602082019150611b868286611699565b601482019150611b958261188c565b9150611ba182856116e5565b602082019150611bb18284611699565b60148201915081905098975050505050505050565b6000602082019050611bdb600083018461168a565b92915050565b6000604082019050611bf6600083018561168a565b611c0360208301846118cc565b9392505050565b6000602082019050611c1f60008301846116b0565b92915050565b6000608082019050611c3a60008301876116d6565b611c47602083018661168a565b611c5460408301856118cc565b611c6160608301846118cc565b95945050505050565b6000608082019050611c7f60008301876116d6565b8181036020830152611c9181866116fc565b9050611ca0604083018561177d565b611cad60608301846118cc565b95945050505050565b6000608082019050611ccb60008301876116d6565b8181036020830152611cdd81866116fc565b9050611cec60408301856118cc565b611cf960608301846118cc565b95945050505050565b6000608082019050611d1760008301876116d6565b611d2460208301866118f2565b611d3160408301856116d6565b611d3e60608301846116d6565b95945050505050565b6000602082019050611d5c60008301846118cc565b92915050565b6000604051905081810181811067ffffffffffffffff82111715611d8557600080fd5b8060405250919050565b600067ffffffffffffffff821115611da657600080fd5b601f19601f8301169050602081019050919050565b600081519050919050565b600082825260208201905092915050565b600081905092915050565b600081905092915050565b6000611df882611e41565b9050919050565b60008115159050919050565b60007fff0000000000000000000000000000000000000000000000000000000000000082169050919050565b6000819050919050565b600073ffffffffffffffffffffffffffffffffffffffff82169050919050565b6000819050919050565b600060ff82169050919050565b6000611e8382611e8a565b9050919050565b6000611e9582611e41565b9050919050565b6000611ea782611e61565b9050919050565b82818337600083830152505050565b60005b83811015611edb578082015181840152602081019050611ec0565b83811115611eea576000848401525b50505050565b6000611efb82611f16565b9050919050565b6000819050919050565b6000819050919050565b6000611f2182611f43565b9050919050565b6000819050919050565b6000601f19601f8301169050919050565b60008160601b9050919050565b611f5981611ded565b8114611f6457600080fd5b50565b611f7081611e37565b8114611f7b57600080fd5b50565b611f8781611e61565b8114611f9257600080fd5b50565b611f9e81611e6b565b8114611fa957600080fd5b5056fea365627a7a72315820ad386b5ab54204925f0e0acaf4bfd306d90b821e2062ada6abc4452a43078d446c6578706572696d656e74616cf564736f6c634300050c0040",
  "source": "pragma experimental ABIEncoderV2;\npragma solidity ^0.5.12;\n\nimport \"./EthereumDIDRegistryInterface.sol\"; \n\ncontract ERC1056 is EthereumDIDRegistryInterface{\n\n  mapping(address => address) public owners; \n  mapping(address => mapping(bytes32 => mapping(address => uint))) public delegates;\n  mapping(address => uint) public changed;\n  mapping(address => uint) public nonce;\n\n  modifier onlyOwner(address identity, address actor) {\n    require (actor == identityOwner(identity));\n    _;\n  }\n\n  event DIDOwnerChanged(\n    address indexed identity,\n    address owner,\n    uint previousChange\n  );\n\n  event DIDDelegateChanged(\n    address indexed identity,\n    bytes32 delegateType,\n    address delegate,\n    uint validTo,\n    uint previousChange\n  );\n\n  event DIDAttributeChanged(\n    address indexed identity,\n    bytes32 name,\n    bytes value,\n    uint validTo,\n    uint previousChange\n  );\n\n  function identityOwner(address identity) public view returns(address) {\n     address owner = owners[identity];\n\n     if (owner != address(0x0)) {\n       return owner;\n     }\n     return identity;\n  }\n\n  function checkSignature(address identity, uint8 sigV, bytes32 sigR, bytes32 sigS, bytes32 hash) internal returns(address) {\n   /*  bytes32 FixedHash = prefixed(hash); */\n    address signer = ecrecover(hash, sigV, sigR, sigS);\n    require(signer == identityOwner(identity));\n    nonce[signer]++;  \n    return signer;\n  }\n\n  function validDelegate(address identity, bytes32 delegateType, address delegate) public view returns(bool) {\n    uint validity = delegates[identity][delegateType][delegate];\n    return (validity > now);\n  }\n\n  function changeOwner(address identity, address actor, address newOwner) internal onlyOwner(identity, actor) { \n    owners[identity] = newOwner;\n    emit DIDOwnerChanged(identity, newOwner, changed[identity]);\n    changed[identity] = block.number;\n  }\n\n  function changeOwner(address identity, address newOwner) public {\n    changeOwner(identity, msg.sender, newOwner);\n  }\n\n  function changeOwnerSigned(address identity, uint8 sigV, bytes32 sigR, bytes32 sigS, address newOwner) public {\n    bytes32 hash = keccak256(abi.encodePacked(byte(0x19), byte(0), this, nonce[identityOwner(identity)], identity, \"changeOwner\", newOwner));\n    changeOwner(identity, checkSignature(identity, sigV, sigR, sigS, hash), newOwner);\n  }\n\n  function addDelegate(address identity, address actor, bytes32 delegateType, address delegate, uint validity) internal onlyOwner(identity, actor) {\n    delegates[identity][delegateType][delegate] = now + validity;\n    emit DIDDelegateChanged(identity, delegateType, delegate, now + validity, changed[identity]);\n    changed[identity] = block.number;\n  }\n\n  function addDelegate(address identity, bytes32 delegateType, address delegate, uint validity) public {\n    addDelegate(identity, msg.sender, delegateType, delegate, validity);\n  }\n\n  function addDelegateSigned(address identity, uint8 sigV, bytes32 sigR, bytes32 sigS, bytes32 delegateType, address delegate, uint validity) public {\n    bytes32 hash = keccak256(abi.encodePacked(byte(0x19), byte(0), this, nonce[identityOwner(identity)], identity, \"addDelegate\", delegateType, delegate, validity));\n    addDelegate(identity, checkSignature(identity, sigV, sigR, sigS, hash), delegateType, delegate, validity);\n  }\n\n  function revokeDelegate(address identity, address actor, bytes32 delegateType, address delegate) internal onlyOwner(identity, actor) {\n    delegates[identity][delegateType][delegate] = now;\n    emit DIDDelegateChanged(identity, delegateType, delegate, now, changed[identity]);\n    changed[identity] = block.number;\n  }\n\n  function revokeDelegate(address identity, bytes32 delegateType, address delegate) public {\n    revokeDelegate(identity, msg.sender, delegateType, delegate);\n  }\n\n  function revokeDelegateSigned(address identity, uint8 sigV, bytes32 sigR, bytes32 sigS, bytes32 delegateType, address delegate) public {\n    bytes32 hash = keccak256(abi.encodePacked(byte(0x19), byte(0), this, nonce[identityOwner(identity)], identity, \"revokeDelegate\", delegateType, delegate));\n    revokeDelegate(identity, checkSignature(identity, sigV, sigR, sigS, hash), delegateType, delegate);\n  }\n\n  function setAttribute(address identity, address actor, bytes32 name, bytes memory value, uint validity ) internal onlyOwner(identity, actor) {\n    emit DIDAttributeChanged(identity, name, value, now + validity, changed[identity]);\n    changed[identity] = block.number;\n  }\n\n  function setAttribute(address identity, bytes32 name, bytes memory value, uint validity) public {\n    setAttribute(identity, msg.sender, name, value, validity);\n  }\n\n  function setAttributeSigned(address identity, uint8 sigV, bytes32 sigR, bytes32 sigS, bytes32 name, bytes memory value, uint validity) public {\n    bytes32 hash = keccak256(abi.encodePacked(byte(0x19), byte(0), this, nonce[identityOwner(identity)], identity, \"setAttribute\", name, value, validity));\n    setAttribute(identity, checkSignature(identity, sigV, sigR, sigS, hash), name, value, validity);\n  }\n\n  function revokeAttribute(address identity, address actor, bytes32 name, bytes memory value ) internal onlyOwner(identity, actor) {\n    emit DIDAttributeChanged(identity, name, value, 0, changed[identity]);\n    changed[identity] = block.number;\n  }\n\n  function revokeAttribute(address identity, bytes32 name, bytes memory value) public {\n    revokeAttribute(identity, msg.sender, name, value);\n  }\n\n function revokeAttributeSigned(address identity, uint8 sigV, bytes32 sigR, bytes32 sigS, bytes32 name, bytes memory value) public {\n    bytes32 hash = keccak256(abi.encodePacked(byte(0x19), byte(0), this, nonce[identityOwner(identity)], identity, \"revokeAttribute\", name, value)); \n    revokeAttribute(identity, checkSignature(identity, sigV, sigR, sigS, hash), name, value);\n  }\n\n/*  function prefixed(bytes32 hash) internal returns (bytes32) {\n        return keccak256(abi.encodePacked(\"\\x19Ethereum Signed Message:\\n32\", hash));\n    } */\n}\n\n",
  "sourcePath": "/Users/Hai/Google Drive/KMS/01. Work/121. Vue/Vue_Truffle/contracts/ERC1056.sol",
  "compiler": {
    "name": "solc",
    "version": "0.5.12+commit.7709ece9.Emscripten.clang"
  },
  "schemaVersion": "3.0.11",
  "updatedAt": "2019-12-06T12:57:49.841Z",
  "devdoc": {
    "methods": {}
  },
  "userdoc": {
    "methods": {}
  }
}