{
  "contractName": "ERC1056",
  "abi": [
    {
      "anonymous": false,
      "inputs": [
        {
          "indexed": true,
          "internalType": "address",
          "name": "identity",
          "type": "address"
        },
        {
          "indexed": false,
          "internalType": "bytes32",
          "name": "name",
          "type": "bytes32"
        },
        {
          "indexed": false,
          "internalType": "bytes",
          "name": "value",
          "type": "bytes"
        },
        {
          "indexed": false,
          "internalType": "uint256",
          "name": "validTo",
          "type": "uint256"
        },
        {
          "indexed": false,
          "internalType": "uint256",
          "name": "previousChange",
          "type": "uint256"
        }
      ],
      "name": "DIDAttributeChanged",
      "type": "event"
    },
    {
      "anonymous": false,
      "inputs": [
        {
          "indexed": true,
          "internalType": "address",
          "name": "identity",
          "type": "address"
        },
        {
          "indexed": false,
          "internalType": "bytes32",
          "name": "delegateType",
          "type": "bytes32"
        },
        {
          "indexed": false,
          "internalType": "address",
          "name": "delegate",
          "type": "address"
        },
        {
          "indexed": false,
          "internalType": "uint256",
          "name": "validTo",
          "type": "uint256"
        },
        {
          "indexed": false,
          "internalType": "uint256",
          "name": "previousChange",
          "type": "uint256"
        }
      ],
      "name": "DIDDelegateChanged",
      "type": "event"
    },
    {
      "anonymous": false,
      "inputs": [
        {
          "indexed": true,
          "internalType": "address",
          "name": "identity",
          "type": "address"
        },
        {
          "indexed": false,
          "internalType": "address",
          "name": "owner",
          "type": "address"
        },
        {
          "indexed": false,
          "internalType": "uint256",
          "name": "previousChange",
          "type": "uint256"
        }
      ],
      "name": "DIDOwnerChanged",
      "type": "event"
    },
    {
      "constant": true,
      "inputs": [
        {
          "internalType": "address",
          "name": "",
          "type": "address"
        }
      ],
      "name": "changed",
      "outputs": [
        {
          "internalType": "uint256",
          "name": "",
          "type": "uint256"
        }
      ],
      "payable": false,
      "stateMutability": "view",
      "type": "function"
    },
    {
      "constant": true,
      "inputs": [
        {
          "internalType": "address",
          "name": "",
          "type": "address"
        },
        {
          "internalType": "bytes32",
          "name": "",
          "type": "bytes32"
        },
        {
          "internalType": "address",
          "name": "",
          "type": "address"
        }
      ],
      "name": "delegates",
      "outputs": [
        {
          "internalType": "uint256",
          "name": "",
          "type": "uint256"
        }
      ],
      "payable": false,
      "stateMutability": "view",
      "type": "function"
    },
    {
      "constant": true,
      "inputs": [
        {
          "internalType": "address",
          "name": "",
          "type": "address"
        }
      ],
      "name": "nonce",
      "outputs": [
        {
          "internalType": "uint256",
          "name": "",
          "type": "uint256"
        }
      ],
      "payable": false,
      "stateMutability": "view",
      "type": "function"
    },
    {
      "constant": true,
      "inputs": [
        {
          "internalType": "address",
          "name": "",
          "type": "address"
        }
      ],
      "name": "owners",
      "outputs": [
        {
          "internalType": "address",
          "name": "",
          "type": "address"
        }
      ],
      "payable": false,
      "stateMutability": "view",
      "type": "function"
    },
    {
      "constant": true,
      "inputs": [
        {
          "internalType": "address",
          "name": "identity",
          "type": "address"
        }
      ],
      "name": "identityOwner",
      "outputs": [
        {
          "internalType": "address",
          "name": "",
          "type": "address"
        }
      ],
      "payable": false,
      "stateMutability": "view",
      "type": "function"
    },
    {
      "constant": true,
      "inputs": [
        {
          "internalType": "address",
          "name": "identity",
          "type": "address"
        },
        {
          "internalType": "bytes32",
          "name": "delegateType",
          "type": "bytes32"
        },
        {
          "internalType": "address",
          "name": "delegate",
          "type": "address"
        }
      ],
      "name": "validDelegate",
      "outputs": [
        {
          "internalType": "bool",
          "name": "",
          "type": "bool"
        }
      ],
      "payable": false,
      "stateMutability": "view",
      "type": "function"
    },
    {
      "constant": false,
      "inputs": [
        {
          "internalType": "address",
          "name": "identity",
          "type": "address"
        },
        {
          "internalType": "address",
          "name": "newOwner",
          "type": "address"
        }
      ],
      "name": "changeOwner",
      "outputs": [],
      "payable": false,
      "stateMutability": "nonpayable",
      "type": "function"
    },
    {
      "constant": false,
      "inputs": [
        {
          "internalType": "address",
          "name": "identity",
          "type": "address"
        },
        {
          "internalType": "uint8",
          "name": "sigV",
          "type": "uint8"
        },
        {
          "internalType": "bytes32",
          "name": "sigR",
          "type": "bytes32"
        },
        {
          "internalType": "bytes32",
          "name": "sigS",
          "type": "bytes32"
        },
        {
          "internalType": "address",
          "name": "newOwner",
          "type": "address"
        }
      ],
      "name": "changeOwnerSigned",
      "outputs": [],
      "payable": false,
      "stateMutability": "nonpayable",
      "type": "function"
    },
    {
      "constant": false,
      "inputs": [
        {
          "internalType": "address",
          "name": "identity",
          "type": "address"
        },
        {
          "internalType": "bytes32",
          "name": "delegateType",
          "type": "bytes32"
        },
        {
          "internalType": "address",
          "name": "delegate",
          "type": "address"
        },
        {
          "internalType": "uint256",
          "name": "validity",
          "type": "uint256"
        }
      ],
      "name": "addDelegate",
      "outputs": [],
      "payable": false,
      "stateMutability": "nonpayable",
      "type": "function"
    },
    {
      "constant": false,
      "inputs": [
        {
          "internalType": "address",
          "name": "identity",
          "type": "address"
        },
        {
          "internalType": "uint8",
          "name": "sigV",
          "type": "uint8"
        },
        {
          "internalType": "bytes32",
          "name": "sigR",
          "type": "bytes32"
        },
        {
          "internalType": "bytes32",
          "name": "sigS",
          "type": "bytes32"
        },
        {
          "internalType": "bytes32",
          "name": "delegateType",
          "type": "bytes32"
        },
        {
          "internalType": "address",
          "name": "delegate",
          "type": "address"
        },
        {
          "internalType": "uint256",
          "name": "validity",
          "type": "uint256"
        }
      ],
      "name": "addDelegateSigned",
      "outputs": [],
      "payable": false,
      "stateMutability": "nonpayable",
      "type": "function"
    },
    {
      "constant": false,
      "inputs": [
        {
          "internalType": "address",
          "name": "identity",
          "type": "address"
        },
        {
          "internalType": "bytes32",
          "name": "delegateType",
          "type": "bytes32"
        },
        {
          "internalType": "address",
          "name": "delegate",
          "type": "address"
        }
      ],
      "name": "revokeDelegate",
      "outputs": [],
      "payable": false,
      "stateMutability": "nonpayable",
      "type": "function"
    },
    {
      "constant": false,
      "inputs": [
        {
          "internalType": "address",
          "name": "identity",
          "type": "address"
        },
        {
          "internalType": "uint8",
          "name": "sigV",
          "type": "uint8"
        },
        {
          "internalType": "bytes32",
          "name": "sigR",
          "type": "bytes32"
        },
        {
          "internalType": "bytes32",
          "name": "sigS",
          "type": "bytes32"
        },
        {
          "internalType": "bytes32",
          "name": "delegateType",
          "type": "bytes32"
        },
        {
          "internalType": "address",
          "name": "delegate",
          "type": "address"
        }
      ],
      "name": "revokeDelegateSigned",
      "outputs": [],
      "payable": false,
      "stateMutability": "nonpayable",
      "type": "function"
    },
    {
      "constant": true,
      "inputs": [
        {
          "internalType": "address",
          "name": "identity",
          "type": "address"
        },
        {
          "internalType": "bytes32",
          "name": "name",
          "type": "bytes32"
        },
        {
          "internalType": "bytes",
          "name": "value",
          "type": "bytes"
        },
        {
          "internalType": "uint256",
          "name": "validity",
          "type": "uint256"
        }
      ],
      "name": "setAttribute",
      "outputs": [
        {
          "internalType": "address",
          "name": "",
          "type": "address"
        }
      ],
      "payable": false,
      "stateMutability": "view",
      "type": "function"
    },
    {
      "constant": false,
      "inputs": [
        {
          "internalType": "address",
          "name": "identity",
          "type": "address"
        },
        {
          "internalType": "bytes32",
          "name": "name",
          "type": "bytes32"
        },
        {
          "internalType": "bytes",
          "name": "value",
          "type": "bytes"
        }
      ],
      "name": "revokeAttribute",
      "outputs": [],
      "payable": false,
      "stateMutability": "nonpayable",
      "type": "function"
    },
    {
      "constant": false,
      "inputs": [
        {
          "internalType": "address",
          "name": "identity",
          "type": "address"
        },
        {
          "internalType": "uint8",
          "name": "sigV",
          "type": "uint8"
        },
        {
          "internalType": "bytes32",
          "name": "sigR",
          "type": "bytes32"
        },
        {
          "internalType": "bytes32",
          "name": "sigS",
          "type": "bytes32"
        },
        {
          "internalType": "bytes32",
          "name": "name",
          "type": "bytes32"
        },
        {
          "internalType": "bytes",
          "name": "value",
          "type": "bytes"
        }
      ],
      "name": "revokeAttributeSigned",
      "outputs": [],
      "payable": false,
      "stateMutability": "nonpayable",
      "type": "function"
    }
  ],
  "bytecode": "0x608060405234801561001057600080fd5b50611c2c806100206000396000f3fe608060405234801561001057600080fd5b50600436106100f45760003560e01c806380b29f7c11610097578063a7068d6611610066578063a7068d66146102a5578063e476af5c146102c1578063f00d4b5d146102dd578063f96d0f9f146102f9576100f4565b806380b29f7c146102215780638733d4e81461023d578063930726841461026d5780639c2c1b2b14610289576100f4565b8063240cf1fa116100d3578063240cf1fa14610175578063622b2a3c1461019157806370ae92d2146101c15780637ad4b0a4146101f1576100f4565b8062c023da146100f9578063022914a7146101155780630d44625b14610145575b600080fd5b610113600480360361010e91908101906110cb565b610329565b005b61012f600480360361012a9190810190610fb4565b61033a565b60405161013c919061184f565b60405180910390f35b61015f600480360361015a9190810190611019565b61036d565b60405161016c9190611984565b60405180910390f35b61018f600480360361018a91908101906111ad565b61039f565b005b6101ab60048036036101a69190810190611019565b610442565b6040516101b89190611893565b60405180910390f35b6101db60048036036101d69190810190610fb4565b6104e2565b6040516101e89190611984565b60405180910390f35b61020b60048036036102069190810190611132565b6104fa565b604051610218919061184f565b60405180910390f35b61023b60048036036102369190810190611019565b610507565b005b61025760048036036102529190810190610fb4565b610518565b604051610264919061184f565b60405180910390f35b61028760048036036102829190810190611224565b6105c3565b005b6102a3600480360361029e91908101906112ad565b61066a565b005b6102bf60048036036102ba9190810190611068565b610715565b005b6102db60048036036102d6919081019061134b565b610728565b005b6102f760048036036102f29190810190610fdd565b6107cf565b005b610313600480360361030e9190810190610fb4565b6107de565b6040516103209190611984565b60405180910390f35b610335833384846107f6565b505050565b60006020528060005260406000206000915054906101000a900473ffffffffffffffffffffffffffffffffffffffff1681565b600160205282600052604060002060205281600052604060002060205280600052604060002060009250925050505481565b6000601960f81b600060f81b30600360006103b98b610518565b73ffffffffffffffffffffffffffffffffffffffff1673ffffffffffffffffffffffffffffffffffffffff16815260200190815260200160002054898660405160200161040b969594939291906116ab565b60405160208183030381529060405280519060200120905061043a866104348888888887610918565b84610a08565b505050505050565b600080600160008673ffffffffffffffffffffffffffffffffffffffff1673ffffffffffffffffffffffffffffffffffffffff168152602001908152602001600020600085815260200190815260200160002060008473ffffffffffffffffffffffffffffffffffffffff1673ffffffffffffffffffffffffffffffffffffffff1681526020019081526020016000205490504281119150509392505050565b60036020528060005260406000206000915090505481565b6000339050949350505050565b61051383338484610ba1565b505050565b6000806000808473ffffffffffffffffffffffffffffffffffffffff1673ffffffffffffffffffffffffffffffffffffffff16815260200190815260200160002060009054906101000a900473ffffffffffffffffffffffffffffffffffffffff169050600073ffffffffffffffffffffffffffffffffffffffff168173ffffffffffffffffffffffffffffffffffffffff16146105b957809150506105be565b829150505b919050565b6000601960f81b600060f81b30600360006105dd8c610518565b73ffffffffffffffffffffffffffffffffffffffff1673ffffffffffffffffffffffffffffffffffffffff168152602001908152602001600020548a878760405160200161063197969594939291906117c3565b6040516020818303038152906040528051906020012090506106618761065a8989898987610918565b8585610ba1565b50505050505050565b6000601960f81b600060f81b30600360006106848d610518565b73ffffffffffffffffffffffffffffffffffffffff1673ffffffffffffffffffffffffffffffffffffffff168152602001908152602001600020548b8888886040516020016106da989796959493929190611726565b60405160208183030381529060405280519060200120905061070b886107038a8a8a8a87610918565b868686610d54565b5050505050505050565b6107228433858585610d54565b50505050565b6000601960f81b600060f81b30600360006107428c610518565b73ffffffffffffffffffffffffffffffffffffffff1673ffffffffffffffffffffffffffffffffffffffff168152602001908152602001600020548a87876040516020016107969796959493929190611623565b6040516020818303038152906040528051906020012090506107c6876107bf8989898987610918565b85856107f6565b50505050505050565b6107da823383610a08565b5050565b60026020528060005260406000206000915090505481565b838361080182610518565b73ffffffffffffffffffffffffffffffffffffffff168173ffffffffffffffffffffffffffffffffffffffff161461083857600080fd5b8573ffffffffffffffffffffffffffffffffffffffff167f18ab6b2ae3d64306c00ce663125f2bd680e441a098de1635bd7ad8b0d44965e485856000600260008c73ffffffffffffffffffffffffffffffffffffffff1673ffffffffffffffffffffffffffffffffffffffff168152602001908152602001600020546040516108c494939291906118f3565b60405180910390a243600260008873ffffffffffffffffffffffffffffffffffffffff1673ffffffffffffffffffffffffffffffffffffffff16815260200190815260200160002081905550505050505050565b6000806001838787876040516000815260200160405260405161093e949392919061193f565b6020604051602081039080840390855afa158015610960573d6000803e3d6000fd5b50505060206040510351905061097587610518565b73ffffffffffffffffffffffffffffffffffffffff168173ffffffffffffffffffffffffffffffffffffffff16146109ac57600080fd5b600360008273ffffffffffffffffffffffffffffffffffffffff1673ffffffffffffffffffffffffffffffffffffffff168152602001908152602001600020600081548092919060010191905055508091505095945050505050565b8282610a1382610518565b73ffffffffffffffffffffffffffffffffffffffff168173ffffffffffffffffffffffffffffffffffffffff1614610a4a57600080fd5b826000808773ffffffffffffffffffffffffffffffffffffffff1673ffffffffffffffffffffffffffffffffffffffff16815260200190815260200160002060006101000a81548173ffffffffffffffffffffffffffffffffffffffff021916908373ffffffffffffffffffffffffffffffffffffffff1602179055508473ffffffffffffffffffffffffffffffffffffffff167f38a5a6e68f30ed1ab45860a4afb34bcb2fc00f22ca462d249b8a8d40cda6f7a384600260008973ffffffffffffffffffffffffffffffffffffffff1673ffffffffffffffffffffffffffffffffffffffff16815260200190815260200160002054604051610b4e92919061186a565b60405180910390a243600260008773ffffffffffffffffffffffffffffffffffffffff1673ffffffffffffffffffffffffffffffffffffffff168152602001908152602001600020819055505050505050565b8383610bac82610518565b73ffffffffffffffffffffffffffffffffffffffff168173ffffffffffffffffffffffffffffffffffffffff1614610be357600080fd5b42600160008873ffffffffffffffffffffffffffffffffffffffff1673ffffffffffffffffffffffffffffffffffffffff168152602001908152602001600020600086815260200190815260200160002060008573ffffffffffffffffffffffffffffffffffffffff1673ffffffffffffffffffffffffffffffffffffffff168152602001908152602001600020819055508573ffffffffffffffffffffffffffffffffffffffff167f5a5084339536bcab65f20799fcc58724588145ca054bd2be626174b27ba156f7858542600260008c73ffffffffffffffffffffffffffffffffffffffff1673ffffffffffffffffffffffffffffffffffffffff16815260200190815260200160002054604051610d0094939291906118ae565b60405180910390a243600260008873ffffffffffffffffffffffffffffffffffffffff1673ffffffffffffffffffffffffffffffffffffffff16815260200190815260200160002081905550505050505050565b8484610d5f82610518565b73ffffffffffffffffffffffffffffffffffffffff168173ffffffffffffffffffffffffffffffffffffffff1614610d9657600080fd5b824201600160008973ffffffffffffffffffffffffffffffffffffffff1673ffffffffffffffffffffffffffffffffffffffff168152602001908152602001600020600087815260200190815260200160002060008673ffffffffffffffffffffffffffffffffffffffff1673ffffffffffffffffffffffffffffffffffffffff168152602001908152602001600020819055508673ffffffffffffffffffffffffffffffffffffffff167f5a5084339536bcab65f20799fcc58724588145ca054bd2be626174b27ba156f78686864201600260008d73ffffffffffffffffffffffffffffffffffffffff1673ffffffffffffffffffffffffffffffffffffffff16815260200190815260200160002054604051610eb794939291906118ae565b60405180910390a243600260008973ffffffffffffffffffffffffffffffffffffffff1673ffffffffffffffffffffffffffffffffffffffff1681526020019081526020016000208190555050505050505050565b600081359050610f1b81611b8d565b92915050565b600081359050610f3081611ba4565b92915050565b600082601f830112610f4757600080fd5b8135610f5a610f55826119cc565b61199f565b91508082526020830160208301858383011115610f7657600080fd5b610f81838284611aeb565b50505092915050565b600081359050610f9981611bbb565b92915050565b600081359050610fae81611bd2565b92915050565b600060208284031215610fc657600080fd5b6000610fd484828501610f0c565b91505092915050565b60008060408385031215610ff057600080fd5b6000610ffe85828601610f0c565b925050602061100f85828601610f0c565b9150509250929050565b60008060006060848603121561102e57600080fd5b600061103c86828701610f0c565b935050602061104d86828701610f21565b925050604061105e86828701610f0c565b9150509250925092565b6000806000806080858703121561107e57600080fd5b600061108c87828801610f0c565b945050602061109d87828801610f21565b93505060406110ae87828801610f0c565b92505060606110bf87828801610f8a565b91505092959194509250565b6000806000606084860312156110e057600080fd5b60006110ee86828701610f0c565b93505060206110ff86828701610f21565b925050604084013567ffffffffffffffff81111561111c57600080fd5b61112886828701610f36565b9150509250925092565b6000806000806080858703121561114857600080fd5b600061115687828801610f0c565b945050602061116787828801610f21565b935050604085013567ffffffffffffffff81111561118457600080fd5b61119087828801610f36565b92505060606111a187828801610f8a565b91505092959194509250565b600080600080600060a086880312156111c557600080fd5b60006111d388828901610f0c565b95505060206111e488828901610f9f565b94505060406111f588828901610f21565b935050606061120688828901610f21565b925050608061121788828901610f0c565b9150509295509295909350565b60008060008060008060c0878903121561123d57600080fd5b600061124b89828a01610f0c565b965050602061125c89828a01610f9f565b955050604061126d89828a01610f21565b945050606061127e89828a01610f21565b935050608061128f89828a01610f21565b92505060a06112a089828a01610f0c565b9150509295509295509295565b600080600080600080600060e0888a0312156112c857600080fd5b60006112d68a828b01610f0c565b97505060206112e78a828b01610f9f565b96505060406112f88a828b01610f21565b95505060606113098a828b01610f21565b945050608061131a8a828b01610f21565b93505060a061132b8a828b01610f0c565b92505060c061133c8a828b01610f8a565b91505092959891949750929550565b60008060008060008060c0878903121561136457600080fd5b600061137289828a01610f0c565b965050602061138389828a01610f9f565b955050604061139489828a01610f21565b94505060606113a589828a01610f21565b93505060806113b689828a01610f21565b92505060a087013567ffffffffffffffff8111156113d357600080fd5b6113df89828a01610f36565b9150509295509295509295565b6113f581611a2a565b82525050565b61140c61140782611a2a565b611b2d565b82525050565b61141b81611a3c565b82525050565b61143261142d82611a48565b611b3f565b82525050565b61144181611a74565b82525050565b61145861145382611a74565b611b49565b82525050565b6000611469826119f8565b6114738185611a03565b9350611483818560208601611afa565b61148c81611b6f565b840191505092915050565b60006114a2826119f8565b6114ac8185611a14565b93506114bc818560208601611afa565b80840191505092915050565b6114d96114d482611ab5565b611b2d565b82525050565b6114e881611ad9565b82525050565b60006114fb600f83611a1f565b91507f7265766f6b6541747472696275746500000000000000000000000000000000006000830152600f82019050919050565b600061153b600b83611a1f565b91507f6368616e67654f776e65720000000000000000000000000000000000000000006000830152600b82019050919050565b600061157b600b83611a1f565b91507f61646444656c65676174650000000000000000000000000000000000000000006000830152600b82019050919050565b60006115bb600e83611a1f565b91507f7265766f6b6544656c65676174650000000000000000000000000000000000006000830152600e82019050919050565b6115f781611a9e565b82525050565b61160e61160982611a9e565b611b65565b82525050565b61161d81611aa8565b82525050565b600061162f828a611421565b60018201915061163f8289611421565b60018201915061164f82886114c8565b60148201915061165f82876115fd565b60208201915061166f82866113fb565b60148201915061167e826114ee565b915061168a8285611447565b60208201915061169a8284611497565b915081905098975050505050505050565b60006116b78289611421565b6001820191506116c78288611421565b6001820191506116d782876114c8565b6014820191506116e782866115fd565b6020820191506116f782856113fb565b6014820191506117068261152e565b915061171282846113fb565b601482019150819050979650505050505050565b6000611732828b611421565b600182019150611742828a611421565b60018201915061175282896114c8565b60148201915061176282886115fd565b60208201915061177282876113fb565b6014820191506117818261156e565b915061178d8286611447565b60208201915061179d82856113fb565b6014820191506117ad82846115fd565b6020820191508190509998505050505050505050565b60006117cf828a611421565b6001820191506117df8289611421565b6001820191506117ef82886114c8565b6014820191506117ff82876115fd565b60208201915061180f82866113fb565b60148201915061181e826115ae565b915061182a8285611447565b60208201915061183a82846113fb565b60148201915081905098975050505050505050565b600060208201905061186460008301846113ec565b92915050565b600060408201905061187f60008301856113ec565b61188c60208301846115ee565b9392505050565b60006020820190506118a86000830184611412565b92915050565b60006080820190506118c36000830187611438565b6118d060208301866113ec565b6118dd60408301856115ee565b6118ea60608301846115ee565b95945050505050565b60006080820190506119086000830187611438565b818103602083015261191a818661145e565b905061192960408301856114df565b61193660608301846115ee565b95945050505050565b60006080820190506119546000830187611438565b6119616020830186611614565b61196e6040830185611438565b61197b6060830184611438565b95945050505050565b600060208201905061199960008301846115ee565b92915050565b6000604051905081810181811067ffffffffffffffff821117156119c257600080fd5b8060405250919050565b600067ffffffffffffffff8211156119e357600080fd5b601f19601f8301169050602081019050919050565b600081519050919050565b600082825260208201905092915050565b600081905092915050565b600081905092915050565b6000611a3582611a7e565b9050919050565b60008115159050919050565b60007fff0000000000000000000000000000000000000000000000000000000000000082169050919050565b6000819050919050565b600073ffffffffffffffffffffffffffffffffffffffff82169050919050565b6000819050919050565b600060ff82169050919050565b6000611ac082611ac7565b9050919050565b6000611ad282611a7e565b9050919050565b6000611ae482611a9e565b9050919050565b82818337600083830152505050565b60005b83811015611b18578082015181840152602081019050611afd565b83811115611b27576000848401525b50505050565b6000611b3882611b53565b9050919050565b6000819050919050565b6000819050919050565b6000611b5e82611b80565b9050919050565b6000819050919050565b6000601f19601f8301169050919050565b60008160601b9050919050565b611b9681611a2a565b8114611ba157600080fd5b50565b611bad81611a74565b8114611bb857600080fd5b50565b611bc481611a9e565b8114611bcf57600080fd5b50565b611bdb81611aa8565b8114611be657600080fd5b5056fea365627a7a7231582054cee0227838a1db52a11a9358373a2eea592f876714ff0573637ea6983f404c6c6578706572696d656e74616cf564736f6c634300050c0040",
  "source": "pragma experimental ABIEncoderV2;\npragma solidity ^0.5.12;\n\nimport \"./EthereumDIDRegistryInterface.sol\"; \n\ncontract ERC1056 is EthereumDIDRegistryInterface{\n\n  mapping(address => address) public  owners;\n  mapping(address => mapping(bytes32 => mapping(address => uint))) public delegates;\n  mapping(address => uint) public changed;\n  mapping(address => uint) public nonce;\n\n  modifier onlyOwner(address identity, address actor) {\n    require (actor == identityOwner(identity));\n    _;\n  }\n\n  event DIDOwnerChanged(\n    address indexed identity,\n    address owner,\n    uint previousChange\n  );\n\n  event DIDDelegateChanged(\n    address indexed identity,\n    bytes32 delegateType,\n    address delegate,\n    uint validTo,\n    uint previousChange\n  );\n\n  event DIDAttributeChanged(\n    address indexed identity,\n    bytes32 name,\n    bytes value,\n    uint validTo,\n    uint previousChange\n  );\n\n  function identityOwner(address identity) public view returns(address) {\n     address owner = owners[identity];\n\n     if (owner != address(0x0)) {\n       return owner;\n     }\n     return identity;\n  }\n\n  function checkSignature(address identity, uint8 sigV, bytes32 sigR, bytes32 sigS, bytes32 hash) internal returns(address) {\n   /*  bytes32 FixedHash = prefixed(hash); */\n    address signer = ecrecover(hash, sigV, sigR, sigS);\n    require(signer == identityOwner(identity));\n    nonce[signer]++;  \n    return signer;\n  }\n\n  function validDelegate(address identity, bytes32 delegateType, address delegate) public view returns(bool) {\n    uint validity = delegates[identity][delegateType][delegate];\n    return (validity > now);\n  }\n\n  function changeOwner(address identity, address actor, address newOwner) internal onlyOwner(identity, actor) { \n    owners[identity] = newOwner;\n    emit DIDOwnerChanged(identity, newOwner, changed[identity]);\n    changed[identity] = block.number;\n  }\n\n  function changeOwner(address identity, address newOwner) public {\n    changeOwner(identity, msg.sender, newOwner);\n  }\n\n  function changeOwnerSigned(address identity, uint8 sigV, bytes32 sigR, bytes32 sigS, address newOwner) public {\n    bytes32 hash = keccak256(abi.encodePacked(byte(0x19), byte(0), this, nonce[identityOwner(identity)], identity, \"changeOwner\", newOwner));\n    changeOwner(identity, checkSignature(identity, sigV, sigR, sigS, hash), newOwner);\n  }\n\n  function addDelegate(address identity, address actor, bytes32 delegateType, address delegate, uint validity) internal onlyOwner(identity, actor) {\n    delegates[identity][delegateType][delegate] = now + validity;\n    emit DIDDelegateChanged(identity, delegateType, delegate, now + validity, changed[identity]);\n    changed[identity] = block.number;\n  }\n\n  function addDelegate(address identity, bytes32 delegateType, address delegate, uint validity) public {\n    addDelegate(identity, msg.sender, delegateType, delegate, validity);\n  }\n\n  function addDelegateSigned(address identity, uint8 sigV, bytes32 sigR, bytes32 sigS, bytes32 delegateType, address delegate, uint validity) public {\n    bytes32 hash = keccak256(abi.encodePacked(byte(0x19), byte(0), this, nonce[identityOwner(identity)], identity, \"addDelegate\", delegateType, delegate, validity));\n    addDelegate(identity, checkSignature(identity, sigV, sigR, sigS, hash), delegateType, delegate, validity);\n  }\n\n  function revokeDelegate(address identity, address actor, bytes32 delegateType, address delegate) internal onlyOwner(identity, actor) {\n    delegates[identity][delegateType][delegate] = now;\n    emit DIDDelegateChanged(identity, delegateType, delegate, now, changed[identity]);\n    changed[identity] = block.number;\n  }\n\n  function revokeDelegate(address identity, bytes32 delegateType, address delegate) public {\n    revokeDelegate(identity, msg.sender, delegateType, delegate);\n  }\n\n  function revokeDelegateSigned(address identity, uint8 sigV, bytes32 sigR, bytes32 sigS, bytes32 delegateType, address delegate) public {\n    bytes32 hash = keccak256(abi.encodePacked(byte(0x19), byte(0), this, nonce[identityOwner(identity)], identity, \"revokeDelegate\", delegateType, delegate));\n    revokeDelegate(identity, checkSignature(identity, sigV, sigR, sigS, hash), delegateType, delegate);\n  }\n\n  /* function setAttribute(address identity, address actor, bytes32 name, bytes memory value, uint validity ) internal onlyOwner(identity, actor) {\n    emit DIDAttributeChanged(identity, name, value, now + validity, changed[identity]);\n    changed[identity] = block.number;\n  } */\n\n  function setAttribute(address identity, bytes32 name, bytes memory value, uint validity) public view returns(address) {\n    return msg.sender;\n   //setAttribute(identity, msg.sender, name, value, validity);\n  }\n\n  /* function setAttributeSigned(address identity, uint8 sigV, bytes32 sigR, bytes32 sigS, bytes32 name, bytes memory value, uint validity) public {\n    bytes32 hash = keccak256(abi.encodePacked(byte(0x19), byte(0), this, nonce[identityOwner(identity)], identity, \"setAttribute\", name, value, validity));\n    setAttribute(identity, checkSignature(identity, sigV, sigR, sigS, hash), name, value, validity);\n  } */\n\n  function revokeAttribute(address identity, address actor, bytes32 name, bytes memory value ) internal onlyOwner(identity, actor) {\n    emit DIDAttributeChanged(identity, name, value, 0, changed[identity]);\n    changed[identity] = block.number;\n  }\n\n  function revokeAttribute(address identity, bytes32 name, bytes memory value) public {\n    revokeAttribute(identity, msg.sender, name, value);\n  }\n\n function revokeAttributeSigned(address identity, uint8 sigV, bytes32 sigR, bytes32 sigS, bytes32 name, bytes memory value) public {\n    bytes32 hash = keccak256(abi.encodePacked(byte(0x19), byte(0), this, nonce[identityOwner(identity)], identity, \"revokeAttribute\", name, value)); \n    revokeAttribute(identity, checkSignature(identity, sigV, sigR, sigS, hash), name, value);\n  }\n\n/*  function prefixed(bytes32 hash) internal returns (bytes32) {\n        return keccak256(abi.encodePacked(\"\\x19Ethereum Signed Message:\\n32\", hash));\n    } */\n}\n\n",
  "sourcePath": "/Users/Hai/Google Drive/KMS/01. Work/121. Vue/Vue_Truffle/contracts/ERC1056.sol",
  "compiler": {
    "name": "solc",
    "version": "0.5.12+commit.7709ece9.Emscripten.clang"
  },
  "schemaVersion": "3.0.11",
  "updatedAt": "2020-01-29T07:47:47.641Z",
  "devdoc": {
    "methods": {}
  },
  "userdoc": {
    "methods": {}
  }
}