{
  "contractName": "ERC1056",
  "abi": [
    {
      "anonymous": false,
      "inputs": [
        {
          "indexed": true,
          "internalType": "address",
          "name": "identity",
          "type": "address"
        },
        {
          "indexed": false,
          "internalType": "bytes32",
          "name": "name",
          "type": "bytes32"
        },
        {
          "indexed": false,
          "internalType": "bytes",
          "name": "value",
          "type": "bytes"
        },
        {
          "indexed": false,
          "internalType": "uint256",
          "name": "validTo",
          "type": "uint256"
        },
        {
          "indexed": false,
          "internalType": "uint256",
          "name": "previousChange",
          "type": "uint256"
        }
      ],
      "name": "DIDAttributeChanged",
      "type": "event"
    },
    {
      "anonymous": false,
      "inputs": [
        {
          "indexed": true,
          "internalType": "address",
          "name": "identity",
          "type": "address"
        },
        {
          "indexed": false,
          "internalType": "bytes32",
          "name": "delegateType",
          "type": "bytes32"
        },
        {
          "indexed": false,
          "internalType": "address",
          "name": "delegate",
          "type": "address"
        },
        {
          "indexed": false,
          "internalType": "uint256",
          "name": "validTo",
          "type": "uint256"
        },
        {
          "indexed": false,
          "internalType": "uint256",
          "name": "previousChange",
          "type": "uint256"
        }
      ],
      "name": "DIDDelegateChanged",
      "type": "event"
    },
    {
      "anonymous": false,
      "inputs": [
        {
          "indexed": true,
          "internalType": "address",
          "name": "identity",
          "type": "address"
        },
        {
          "indexed": false,
          "internalType": "address",
          "name": "owner",
          "type": "address"
        },
        {
          "indexed": false,
          "internalType": "uint256",
          "name": "previousChange",
          "type": "uint256"
        }
      ],
      "name": "DIDOwnerChanged",
      "type": "event"
    },
    {
      "constant": true,
      "inputs": [
        {
          "internalType": "address",
          "name": "",
          "type": "address"
        }
      ],
      "name": "changed",
      "outputs": [
        {
          "internalType": "uint256",
          "name": "",
          "type": "uint256"
        }
      ],
      "payable": false,
      "stateMutability": "view",
      "type": "function"
    },
    {
      "constant": true,
      "inputs": [
        {
          "internalType": "address",
          "name": "",
          "type": "address"
        },
        {
          "internalType": "bytes32",
          "name": "",
          "type": "bytes32"
        },
        {
          "internalType": "address",
          "name": "",
          "type": "address"
        }
      ],
      "name": "delegates",
      "outputs": [
        {
          "internalType": "uint256",
          "name": "",
          "type": "uint256"
        }
      ],
      "payable": false,
      "stateMutability": "view",
      "type": "function"
    },
    {
      "constant": true,
      "inputs": [
        {
          "internalType": "address",
          "name": "",
          "type": "address"
        }
      ],
      "name": "nonce",
      "outputs": [
        {
          "internalType": "uint256",
          "name": "",
          "type": "uint256"
        }
      ],
      "payable": false,
      "stateMutability": "view",
      "type": "function"
    },
    {
      "constant": true,
      "inputs": [
        {
          "internalType": "address",
          "name": "identity",
          "type": "address"
        }
      ],
      "name": "identityOwner",
      "outputs": [
        {
          "internalType": "address",
          "name": "",
          "type": "address"
        }
      ],
      "payable": false,
      "stateMutability": "view",
      "type": "function"
    },
    {
      "constant": true,
      "inputs": [
        {
          "internalType": "address",
          "name": "identity",
          "type": "address"
        },
        {
          "internalType": "bytes32",
          "name": "delegateType",
          "type": "bytes32"
        },
        {
          "internalType": "address",
          "name": "delegate",
          "type": "address"
        }
      ],
      "name": "validDelegate",
      "outputs": [
        {
          "internalType": "bool",
          "name": "",
          "type": "bool"
        }
      ],
      "payable": false,
      "stateMutability": "view",
      "type": "function"
    },
    {
      "constant": false,
      "inputs": [
        {
          "internalType": "address",
          "name": "identity",
          "type": "address"
        },
        {
          "internalType": "address",
          "name": "newOwner",
          "type": "address"
        }
      ],
      "name": "changeOwner",
      "outputs": [],
      "payable": false,
      "stateMutability": "nonpayable",
      "type": "function"
    },
    {
      "constant": false,
      "inputs": [
        {
          "internalType": "address",
          "name": "identity",
          "type": "address"
        },
        {
          "internalType": "uint8",
          "name": "sigV",
          "type": "uint8"
        },
        {
          "internalType": "bytes32",
          "name": "sigR",
          "type": "bytes32"
        },
        {
          "internalType": "bytes32",
          "name": "sigS",
          "type": "bytes32"
        },
        {
          "internalType": "address",
          "name": "newOwner",
          "type": "address"
        }
      ],
      "name": "changeOwnerSigned",
      "outputs": [],
      "payable": false,
      "stateMutability": "nonpayable",
      "type": "function"
    },
    {
      "constant": false,
      "inputs": [
        {
          "internalType": "address",
          "name": "identity",
          "type": "address"
        },
        {
          "internalType": "bytes32",
          "name": "delegateType",
          "type": "bytes32"
        },
        {
          "internalType": "address",
          "name": "delegate",
          "type": "address"
        },
        {
          "internalType": "uint256",
          "name": "validity",
          "type": "uint256"
        }
      ],
      "name": "addDelegate",
      "outputs": [],
      "payable": false,
      "stateMutability": "nonpayable",
      "type": "function"
    },
    {
      "constant": false,
      "inputs": [
        {
          "internalType": "address",
          "name": "identity",
          "type": "address"
        },
        {
          "internalType": "uint8",
          "name": "sigV",
          "type": "uint8"
        },
        {
          "internalType": "bytes32",
          "name": "sigR",
          "type": "bytes32"
        },
        {
          "internalType": "bytes32",
          "name": "sigS",
          "type": "bytes32"
        },
        {
          "internalType": "bytes32",
          "name": "delegateType",
          "type": "bytes32"
        },
        {
          "internalType": "address",
          "name": "delegate",
          "type": "address"
        },
        {
          "internalType": "uint256",
          "name": "validity",
          "type": "uint256"
        }
      ],
      "name": "addDelegateSigned",
      "outputs": [],
      "payable": false,
      "stateMutability": "nonpayable",
      "type": "function"
    },
    {
      "constant": false,
      "inputs": [
        {
          "internalType": "address",
          "name": "identity",
          "type": "address"
        },
        {
          "internalType": "bytes32",
          "name": "delegateType",
          "type": "bytes32"
        },
        {
          "internalType": "address",
          "name": "delegate",
          "type": "address"
        }
      ],
      "name": "revokeDelegate",
      "outputs": [],
      "payable": false,
      "stateMutability": "nonpayable",
      "type": "function"
    },
    {
      "constant": false,
      "inputs": [
        {
          "internalType": "address",
          "name": "identity",
          "type": "address"
        },
        {
          "internalType": "uint8",
          "name": "sigV",
          "type": "uint8"
        },
        {
          "internalType": "bytes32",
          "name": "sigR",
          "type": "bytes32"
        },
        {
          "internalType": "bytes32",
          "name": "sigS",
          "type": "bytes32"
        },
        {
          "internalType": "bytes32",
          "name": "delegateType",
          "type": "bytes32"
        },
        {
          "internalType": "address",
          "name": "delegate",
          "type": "address"
        }
      ],
      "name": "revokeDelegateSigned",
      "outputs": [],
      "payable": false,
      "stateMutability": "nonpayable",
      "type": "function"
    },
    {
      "constant": false,
      "inputs": [
        {
          "internalType": "address",
          "name": "identity",
          "type": "address"
        },
        {
          "internalType": "bytes32",
          "name": "name",
          "type": "bytes32"
        },
        {
          "internalType": "bytes",
          "name": "value",
          "type": "bytes"
        },
        {
          "internalType": "uint256",
          "name": "validity",
          "type": "uint256"
        }
      ],
      "name": "setAttribute",
      "outputs": [],
      "payable": false,
      "stateMutability": "nonpayable",
      "type": "function"
    },
    {
      "constant": false,
      "inputs": [
        {
          "internalType": "address",
          "name": "identity",
          "type": "address"
        },
        {
          "internalType": "uint8",
          "name": "sigV",
          "type": "uint8"
        },
        {
          "internalType": "bytes32",
          "name": "sigR",
          "type": "bytes32"
        },
        {
          "internalType": "bytes32",
          "name": "sigS",
          "type": "bytes32"
        },
        {
          "internalType": "bytes32",
          "name": "name",
          "type": "bytes32"
        },
        {
          "internalType": "bytes",
          "name": "value",
          "type": "bytes"
        },
        {
          "internalType": "uint256",
          "name": "validity",
          "type": "uint256"
        }
      ],
      "name": "setAttributeSigned",
      "outputs": [],
      "payable": false,
      "stateMutability": "nonpayable",
      "type": "function"
    },
    {
      "constant": false,
      "inputs": [
        {
          "internalType": "address",
          "name": "identity",
          "type": "address"
        },
        {
          "internalType": "bytes32",
          "name": "name",
          "type": "bytes32"
        },
        {
          "internalType": "bytes",
          "name": "value",
          "type": "bytes"
        }
      ],
      "name": "revokeAttribute",
      "outputs": [],
      "payable": false,
      "stateMutability": "nonpayable",
      "type": "function"
    },
    {
      "constant": false,
      "inputs": [
        {
          "internalType": "address",
          "name": "identity",
          "type": "address"
        },
        {
          "internalType": "uint8",
          "name": "sigV",
          "type": "uint8"
        },
        {
          "internalType": "bytes32",
          "name": "sigR",
          "type": "bytes32"
        },
        {
          "internalType": "bytes32",
          "name": "sigS",
          "type": "bytes32"
        },
        {
          "internalType": "bytes32",
          "name": "name",
          "type": "bytes32"
        },
        {
          "internalType": "bytes",
          "name": "value",
          "type": "bytes"
        }
      ],
      "name": "revokeAttributeSigned",
      "outputs": [],
      "payable": false,
      "stateMutability": "nonpayable",
      "type": "function"
    }
  ],
  "bytecode": "0x608060405234801561001057600080fd5b50612025806100206000396000f3fe608060405234801561001057600080fd5b50600436106100f45760003560e01c806380b29f7c11610097578063a7068d6611610066578063a7068d661461027d578063e476af5c14610299578063f00d4b5d146102b5578063f96d0f9f146102d1576100f4565b806380b29f7c146101f95780638733d4e81461021557806393072684146102455780639c2c1b2b14610261576100f4565b8063240cf1fa116100d3578063240cf1fa14610161578063622b2a3c1461017d57806370ae92d2146101ad5780637ad4b0a4146101dd576100f4565b8062c023da146100f95780630d44625b14610115578063123b5e9814610145575b600080fd5b610113600480360361010e9190810190611283565b610301565b005b61012f600480360361012a91908101906111d1565b610312565b60405161013c9190611d7d565b60405180910390f35b61015f600480360361015a91908101906115a4565b610344565b005b61017b60048036036101769190810190611365565b6103ef565b005b610197600480360361019291908101906111d1565b610492565b6040516101a49190611c40565b60405180910390f35b6101c760048036036101c2919081019061116c565b610532565b6040516101d49190611d7d565b60405180910390f35b6101f760048036036101f291908101906112ea565b61054a565b005b610213600480360361020e91908101906111d1565b61055d565b005b61022f600480360361022a919081019061116c565b61056e565b60405161023c9190611bfc565b60405180910390f35b61025f600480360361025a91908101906113dc565b610619565b005b61027b60048036036102769190810190611465565b6106c0565b005b61029760048036036102929190810190611220565b61076b565b005b6102b360048036036102ae9190810190611503565b61077e565b005b6102cf60048036036102ca9190810190611195565b610825565b005b6102eb60048036036102e6919081019061116c565b610834565b6040516102f89190611d7d565b60405180910390f35b61030d8333848461084c565b505050565b600160205282600052604060002060205281600052604060002060205280600052604060002060009250925050505481565b6000601960f81b600060f81b306003600061035e8d61056e565b73ffffffffffffffffffffffffffffffffffffffff1673ffffffffffffffffffffffffffffffffffffffff168152602001908152602001600020548b8888886040516020016103b4989796959493929190611ab1565b6040516020818303038152906040528051906020012090506103e5886103dd8a8a8a8a8761096e565b868686610a6c565b5050505050505050565b6000601960f81b600060f81b30600360006104098b61056e565b73ffffffffffffffffffffffffffffffffffffffff1673ffffffffffffffffffffffffffffffffffffffff16815260200190815260200160002054898660405160200161045b96959493929190611999565b60405160208183030381529060405280519060200120905061048a86610484888888888761096e565b84610b90565b505050505050565b600080600160008673ffffffffffffffffffffffffffffffffffffffff1673ffffffffffffffffffffffffffffffffffffffff168152602001908152602001600020600085815260200190815260200160002060008473ffffffffffffffffffffffffffffffffffffffff1673ffffffffffffffffffffffffffffffffffffffff1681526020019081526020016000205490504281119150509392505050565b60036020528060005260406000206000915090505481565b6105578433858585610a6c565b50505050565b61056983338484610d29565b505050565b6000806000808473ffffffffffffffffffffffffffffffffffffffff1673ffffffffffffffffffffffffffffffffffffffff16815260200190815260200160002060009054906101000a900473ffffffffffffffffffffffffffffffffffffffff169050600073ffffffffffffffffffffffffffffffffffffffff168173ffffffffffffffffffffffffffffffffffffffff161461060f5780915050610614565b829150505b919050565b6000601960f81b600060f81b30600360006106338c61056e565b73ffffffffffffffffffffffffffffffffffffffff1673ffffffffffffffffffffffffffffffffffffffff168152602001908152602001600020548a87876040516020016106879796959493929190611b4a565b6040516020818303038152906040528051906020012090506106b7876106b0898989898761096e565b8585610d29565b50505050505050565b6000601960f81b600060f81b30600360006106da8d61056e565b73ffffffffffffffffffffffffffffffffffffffff1673ffffffffffffffffffffffffffffffffffffffff168152602001908152602001600020548b888888604051602001610730989796959493929190611a14565b604051602081830303815290604052805190602001209050610761886107598a8a8a8a8761096e565b868686610edc565b5050505050505050565b6107788433858585610edc565b50505050565b6000601960f81b600060f81b30600360006107988c61056e565b73ffffffffffffffffffffffffffffffffffffffff1673ffffffffffffffffffffffffffffffffffffffff168152602001908152602001600020548a87876040516020016107ec9796959493929190611911565b60405160208183030381529060405280519060200120905061081c87610815898989898761096e565b858561084c565b50505050505050565b610830823383610b90565b5050565b60026020528060005260406000206000915090505481565b83836108578261056e565b73ffffffffffffffffffffffffffffffffffffffff168173ffffffffffffffffffffffffffffffffffffffff161461088e57600080fd5b8573ffffffffffffffffffffffffffffffffffffffff167f18ab6b2ae3d64306c00ce663125f2bd680e441a098de1635bd7ad8b0d44965e485856000600260008c73ffffffffffffffffffffffffffffffffffffffff1673ffffffffffffffffffffffffffffffffffffffff1681526020019081526020016000205460405161091a9493929190611ca0565b60405180910390a243600260008873ffffffffffffffffffffffffffffffffffffffff1673ffffffffffffffffffffffffffffffffffffffff16815260200190815260200160002081905550505050505050565b60008061097a83611094565b90506000600182888888604051600081526020016040526040516109a19493929190611d38565b6020604051602081039080840390855afa1580156109c3573d6000803e3d6000fd5b5050506020604051035190506109d88861056e565b73ffffffffffffffffffffffffffffffffffffffff168173ffffffffffffffffffffffffffffffffffffffff1614610a0f57600080fd5b600360008273ffffffffffffffffffffffffffffffffffffffff1673ffffffffffffffffffffffffffffffffffffffff16815260200190815260200160002060008154809291906001019190505550809250505095945050505050565b8484610a778261056e565b73ffffffffffffffffffffffffffffffffffffffff168173ffffffffffffffffffffffffffffffffffffffff1614610aae57600080fd5b8673ffffffffffffffffffffffffffffffffffffffff167f18ab6b2ae3d64306c00ce663125f2bd680e441a098de1635bd7ad8b0d44965e48686864201600260008d73ffffffffffffffffffffffffffffffffffffffff1673ffffffffffffffffffffffffffffffffffffffff16815260200190815260200160002054604051610b3b9493929190611cec565b60405180910390a243600260008973ffffffffffffffffffffffffffffffffffffffff1673ffffffffffffffffffffffffffffffffffffffff1681526020019081526020016000208190555050505050505050565b8282610b9b8261056e565b73ffffffffffffffffffffffffffffffffffffffff168173ffffffffffffffffffffffffffffffffffffffff1614610bd257600080fd5b826000808773ffffffffffffffffffffffffffffffffffffffff1673ffffffffffffffffffffffffffffffffffffffff16815260200190815260200160002060006101000a81548173ffffffffffffffffffffffffffffffffffffffff021916908373ffffffffffffffffffffffffffffffffffffffff1602179055508473ffffffffffffffffffffffffffffffffffffffff167f38a5a6e68f30ed1ab45860a4afb34bcb2fc00f22ca462d249b8a8d40cda6f7a384600260008973ffffffffffffffffffffffffffffffffffffffff1673ffffffffffffffffffffffffffffffffffffffff16815260200190815260200160002054604051610cd6929190611c17565b60405180910390a243600260008773ffffffffffffffffffffffffffffffffffffffff1673ffffffffffffffffffffffffffffffffffffffff168152602001908152602001600020819055505050505050565b8383610d348261056e565b73ffffffffffffffffffffffffffffffffffffffff168173ffffffffffffffffffffffffffffffffffffffff1614610d6b57600080fd5b42600160008873ffffffffffffffffffffffffffffffffffffffff1673ffffffffffffffffffffffffffffffffffffffff168152602001908152602001600020600086815260200190815260200160002060008573ffffffffffffffffffffffffffffffffffffffff1673ffffffffffffffffffffffffffffffffffffffff168152602001908152602001600020819055508573ffffffffffffffffffffffffffffffffffffffff167f5a5084339536bcab65f20799fcc58724588145ca054bd2be626174b27ba156f7858542600260008c73ffffffffffffffffffffffffffffffffffffffff1673ffffffffffffffffffffffffffffffffffffffff16815260200190815260200160002054604051610e889493929190611c5b565b60405180910390a243600260008873ffffffffffffffffffffffffffffffffffffffff1673ffffffffffffffffffffffffffffffffffffffff16815260200190815260200160002081905550505050505050565b8484610ee78261056e565b73ffffffffffffffffffffffffffffffffffffffff168173ffffffffffffffffffffffffffffffffffffffff1614610f1e57600080fd5b824201600160008973ffffffffffffffffffffffffffffffffffffffff1673ffffffffffffffffffffffffffffffffffffffff168152602001908152602001600020600087815260200190815260200160002060008673ffffffffffffffffffffffffffffffffffffffff1673ffffffffffffffffffffffffffffffffffffffff168152602001908152602001600020819055508673ffffffffffffffffffffffffffffffffffffffff167f5a5084339536bcab65f20799fcc58724588145ca054bd2be626174b27ba156f78686864201600260008d73ffffffffffffffffffffffffffffffffffffffff1673ffffffffffffffffffffffffffffffffffffffff1681526020019081526020016000205460405161103f9493929190611c5b565b60405180910390a243600260008973ffffffffffffffffffffffffffffffffffffffff1673ffffffffffffffffffffffffffffffffffffffff1681526020019081526020016000208190555050505050505050565b6000816040516020016110a79190611bd6565b604051602081830303815290604052805190602001209050919050565b6000813590506110d381611f86565b92915050565b6000813590506110e881611f9d565b92915050565b600082601f8301126110ff57600080fd5b813561111261110d82611dc5565b611d98565b9150808252602083016020830185838301111561112e57600080fd5b611139838284611ee4565b50505092915050565b60008135905061115181611fb4565b92915050565b60008135905061116681611fcb565b92915050565b60006020828403121561117e57600080fd5b600061118c848285016110c4565b91505092915050565b600080604083850312156111a857600080fd5b60006111b6858286016110c4565b92505060206111c7858286016110c4565b9150509250929050565b6000806000606084860312156111e657600080fd5b60006111f4868287016110c4565b9350506020611205868287016110d9565b9250506040611216868287016110c4565b9150509250925092565b6000806000806080858703121561123657600080fd5b6000611244878288016110c4565b9450506020611255878288016110d9565b9350506040611266878288016110c4565b925050606061127787828801611142565b91505092959194509250565b60008060006060848603121561129857600080fd5b60006112a6868287016110c4565b93505060206112b7868287016110d9565b925050604084013567ffffffffffffffff8111156112d457600080fd5b6112e0868287016110ee565b9150509250925092565b6000806000806080858703121561130057600080fd5b600061130e878288016110c4565b945050602061131f878288016110d9565b935050604085013567ffffffffffffffff81111561133c57600080fd5b611348878288016110ee565b925050606061135987828801611142565b91505092959194509250565b600080600080600060a0868803121561137d57600080fd5b600061138b888289016110c4565b955050602061139c88828901611157565b94505060406113ad888289016110d9565b93505060606113be888289016110d9565b92505060806113cf888289016110c4565b9150509295509295909350565b60008060008060008060c087890312156113f557600080fd5b600061140389828a016110c4565b965050602061141489828a01611157565b955050604061142589828a016110d9565b945050606061143689828a016110d9565b935050608061144789828a016110d9565b92505060a061145889828a016110c4565b9150509295509295509295565b600080600080600080600060e0888a03121561148057600080fd5b600061148e8a828b016110c4565b975050602061149f8a828b01611157565b96505060406114b08a828b016110d9565b95505060606114c18a828b016110d9565b94505060806114d28a828b016110d9565b93505060a06114e38a828b016110c4565b92505060c06114f48a828b01611142565b91505092959891949750929550565b60008060008060008060c0878903121561151c57600080fd5b600061152a89828a016110c4565b965050602061153b89828a01611157565b955050604061154c89828a016110d9565b945050606061155d89828a016110d9565b935050608061156e89828a016110d9565b92505060a087013567ffffffffffffffff81111561158b57600080fd5b61159789828a016110ee565b9150509295509295509295565b600080600080600080600060e0888a0312156115bf57600080fd5b60006115cd8a828b016110c4565b97505060206115de8a828b01611157565b96505060406115ef8a828b016110d9565b95505060606116008a828b016110d9565b94505060806116118a828b016110d9565b93505060a088013567ffffffffffffffff81111561162e57600080fd5b61163a8a828b016110ee565b92505060c061164b8a828b01611142565b91505092959891949750929550565b61166381611e23565b82525050565b61167a61167582611e23565b611f26565b82525050565b61168981611e35565b82525050565b6116a061169b82611e41565b611f38565b82525050565b6116af81611e6d565b82525050565b6116c66116c182611e6d565b611f42565b82525050565b60006116d782611df1565b6116e18185611dfc565b93506116f1818560208601611ef3565b6116fa81611f68565b840191505092915050565b600061171082611df1565b61171a8185611e0d565b935061172a818560208601611ef3565b80840191505092915050565b61174761174282611eae565b611f26565b82525050565b61175681611ed2565b82525050565b6000611769600f83611e18565b91507f7265766f6b6541747472696275746500000000000000000000000000000000006000830152600f82019050919050565b60006117a9601c83611e18565b91507f19457468657265756d205369676e6564204d6573736167653a0a3332000000006000830152601c82019050919050565b60006117e9600b83611e18565b91507f6368616e67654f776e65720000000000000000000000000000000000000000006000830152600b82019050919050565b6000611829600b83611e18565b91507f61646444656c65676174650000000000000000000000000000000000000000006000830152600b82019050919050565b6000611869600c83611e18565b91507f73657441747472696275746500000000000000000000000000000000000000006000830152600c82019050919050565b60006118a9600e83611e18565b91507f7265766f6b6544656c65676174650000000000000000000000000000000000006000830152600e82019050919050565b6118e581611e97565b82525050565b6118fc6118f782611e97565b611f5e565b82525050565b61190b81611ea1565b82525050565b600061191d828a61168f565b60018201915061192d828961168f565b60018201915061193d8288611736565b60148201915061194d82876118eb565b60208201915061195d8286611669565b60148201915061196c8261175c565b915061197882856116b5565b6020820191506119888284611705565b915081905098975050505050505050565b60006119a5828961168f565b6001820191506119b5828861168f565b6001820191506119c58287611736565b6014820191506119d582866118eb565b6020820191506119e58285611669565b6014820191506119f4826117dc565b9150611a008284611669565b601482019150819050979650505050505050565b6000611a20828b61168f565b600182019150611a30828a61168f565b600182019150611a408289611736565b601482019150611a5082886118eb565b602082019150611a608287611669565b601482019150611a6f8261181c565b9150611a7b82866116b5565b602082019150611a8b8285611669565b601482019150611a9b82846118eb565b6020820191508190509998505050505050505050565b6000611abd828b61168f565b600182019150611acd828a61168f565b600182019150611add8289611736565b601482019150611aed82886118eb565b602082019150611afd8287611669565b601482019150611b0c8261185c565b9150611b1882866116b5565b602082019150611b288285611705565b9150611b3482846118eb565b6020820191508190509998505050505050505050565b6000611b56828a61168f565b600182019150611b66828961168f565b600182019150611b768288611736565b601482019150611b8682876118eb565b602082019150611b968286611669565b601482019150611ba58261189c565b9150611bb182856116b5565b602082019150611bc18284611669565b60148201915081905098975050505050505050565b6000611be18261179c565b9150611bed82846116b5565b60208201915081905092915050565b6000602082019050611c11600083018461165a565b92915050565b6000604082019050611c2c600083018561165a565b611c3960208301846118dc565b9392505050565b6000602082019050611c556000830184611680565b92915050565b6000608082019050611c7060008301876116a6565b611c7d602083018661165a565b611c8a60408301856118dc565b611c9760608301846118dc565b95945050505050565b6000608082019050611cb560008301876116a6565b8181036020830152611cc781866116cc565b9050611cd6604083018561174d565b611ce360608301846118dc565b95945050505050565b6000608082019050611d0160008301876116a6565b8181036020830152611d1381866116cc565b9050611d2260408301856118dc565b611d2f60608301846118dc565b95945050505050565b6000608082019050611d4d60008301876116a6565b611d5a6020830186611902565b611d6760408301856116a6565b611d7460608301846116a6565b95945050505050565b6000602082019050611d9260008301846118dc565b92915050565b6000604051905081810181811067ffffffffffffffff82111715611dbb57600080fd5b8060405250919050565b600067ffffffffffffffff821115611ddc57600080fd5b601f19601f8301169050602081019050919050565b600081519050919050565b600082825260208201905092915050565b600081905092915050565b600081905092915050565b6000611e2e82611e77565b9050919050565b60008115159050919050565b60007fff0000000000000000000000000000000000000000000000000000000000000082169050919050565b6000819050919050565b600073ffffffffffffffffffffffffffffffffffffffff82169050919050565b6000819050919050565b600060ff82169050919050565b6000611eb982611ec0565b9050919050565b6000611ecb82611e77565b9050919050565b6000611edd82611e97565b9050919050565b82818337600083830152505050565b60005b83811015611f11578082015181840152602081019050611ef6565b83811115611f20576000848401525b50505050565b6000611f3182611f4c565b9050919050565b6000819050919050565b6000819050919050565b6000611f5782611f79565b9050919050565b6000819050919050565b6000601f19601f8301169050919050565b60008160601b9050919050565b611f8f81611e23565b8114611f9a57600080fd5b50565b611fa681611e6d565b8114611fb157600080fd5b50565b611fbd81611e97565b8114611fc857600080fd5b50565b611fd481611ea1565b8114611fdf57600080fd5b5056fea365627a7a72315820518583f72f4e7fddaea23940f6ea616307ef385e1fedc34069096181a47462b46c6578706572696d656e74616cf564736f6c634300050c0040",
  "source": "pragma experimental ABIEncoderV2;\npragma solidity ^0.5.12;\n\nimport \"./EthereumDIDRegistryInterface.sol\"; \n\ncontract ERC1056 is EthereumDIDRegistryInterface{\n\n  mapping(address => address) owners; \n  mapping(address => mapping(bytes32 => mapping(address => uint))) public delegates;\n  mapping(address => uint) public changed;\n  mapping(address => uint) public nonce;\n\n  modifier onlyOwner(address identity, address actor) {\n    require (actor == identityOwner(identity));\n    _;\n  }\n\n  event DIDOwnerChanged(\n    address indexed identity,\n    address owner,\n    uint previousChange\n  );\n\n  event DIDDelegateChanged(\n    address indexed identity,\n    bytes32 delegateType,\n    address delegate,\n    uint validTo,\n    uint previousChange\n  );\n\n  event DIDAttributeChanged(\n    address indexed identity,\n    bytes32 name,\n    bytes value,\n    uint validTo,\n    uint previousChange\n  );\n\n  function identityOwner(address identity) public view returns(address) {\n     address owner = owners[identity];\n\n     if (owner != address(0x0)) {\n       return owner;\n     }\n     return identity;\n  }\n\n  function checkSignature(address identity, uint8 sigV, bytes32 sigR, bytes32 sigS, bytes32 hash) internal returns(address) {\n    bytes32 FixedHash = prefixed(hash);\n    address signer = ecrecover(FixedHash, sigV, sigR, sigS);\n    require(signer == identityOwner(identity));\n    nonce[signer]++;  \n    return signer;\n  }\n\n  function validDelegate(address identity, bytes32 delegateType, address delegate) public view returns(bool) {\n    uint validity = delegates[identity][delegateType][delegate];\n    return (validity > now);\n  }\n\n  function changeOwner(address identity, address actor, address newOwner) internal onlyOwner(identity, actor) { \n    owners[identity] = newOwner;\n    emit DIDOwnerChanged(identity, newOwner, changed[identity]);\n    changed[identity] = block.number;\n  }\n\n  function changeOwner(address identity, address newOwner) public {\n    changeOwner(identity, msg.sender, newOwner);\n  }\n\n  function changeOwnerSigned(address identity, uint8 sigV, bytes32 sigR, bytes32 sigS, address newOwner) public {\n    bytes32 hash = keccak256(abi.encodePacked(byte(0x19), byte(0), this, nonce[identityOwner(identity)], identity, \"changeOwner\", newOwner));\n    changeOwner(identity, checkSignature(identity, sigV, sigR, sigS, hash), newOwner);\n  }\n\n  function addDelegate(address identity, address actor, bytes32 delegateType, address delegate, uint validity) internal onlyOwner(identity, actor) {\n    delegates[identity][delegateType][delegate] = now + validity;\n    emit DIDDelegateChanged(identity, delegateType, delegate, now + validity, changed[identity]);\n    changed[identity] = block.number;\n  }\n\n  function addDelegate(address identity, bytes32 delegateType, address delegate, uint validity) public {\n    addDelegate(identity, msg.sender, delegateType, delegate, validity);\n  }\n\n  function addDelegateSigned(address identity, uint8 sigV, bytes32 sigR, bytes32 sigS, bytes32 delegateType, address delegate, uint validity) public {\n    bytes32 hash = keccak256(abi.encodePacked(byte(0x19), byte(0), this, nonce[identityOwner(identity)], identity, \"addDelegate\", delegateType, delegate, validity));\n    addDelegate(identity, checkSignature(identity, sigV, sigR, sigS, hash), delegateType, delegate, validity);\n  }\n\n  function revokeDelegate(address identity, address actor, bytes32 delegateType, address delegate) internal onlyOwner(identity, actor) {\n    delegates[identity][delegateType][delegate] = now;\n    emit DIDDelegateChanged(identity, delegateType, delegate, now, changed[identity]);\n    changed[identity] = block.number;\n  }\n\n  function revokeDelegate(address identity, bytes32 delegateType, address delegate) public {\n    revokeDelegate(identity, msg.sender, delegateType, delegate);\n  }\n\n  function revokeDelegateSigned(address identity, uint8 sigV, bytes32 sigR, bytes32 sigS, bytes32 delegateType, address delegate) public {\n    bytes32 hash = keccak256(abi.encodePacked(byte(0x19), byte(0), this, nonce[identityOwner(identity)], identity, \"revokeDelegate\", delegateType, delegate));\n    revokeDelegate(identity, checkSignature(identity, sigV, sigR, sigS, hash), delegateType, delegate);\n  }\n\n  function setAttribute(address identity, address actor, bytes32 name, bytes memory value, uint validity ) internal onlyOwner(identity, actor) {\n    emit DIDAttributeChanged(identity, name, value, now + validity, changed[identity]);\n    changed[identity] = block.number;\n  }\n\n  function setAttribute(address identity, bytes32 name, bytes memory value, uint validity) public {\n    setAttribute(identity, msg.sender, name, value, validity);\n  }\n\n  function setAttributeSigned(address identity, uint8 sigV, bytes32 sigR, bytes32 sigS, bytes32 name, bytes memory value, uint validity) public {\n    bytes32 hash = keccak256(abi.encodePacked(byte(0x19), byte(0), this, nonce[identityOwner(identity)], identity, \"setAttribute\", name, value, validity));\n    setAttribute(identity, checkSignature(identity, sigV, sigR, sigS, hash), name, value, validity);\n  }\n\n  function revokeAttribute(address identity, address actor, bytes32 name, bytes memory value ) internal onlyOwner(identity, actor) {\n    emit DIDAttributeChanged(identity, name, value, 0, changed[identity]);\n    changed[identity] = block.number;\n  }\n\n  function revokeAttribute(address identity, bytes32 name, bytes memory value) public {\n    revokeAttribute(identity, msg.sender, name, value);\n  }\n\n function revokeAttributeSigned(address identity, uint8 sigV, bytes32 sigR, bytes32 sigS, bytes32 name, bytes memory value) public {\n    bytes32 hash = keccak256(abi.encodePacked(byte(0x19), byte(0), this, nonce[identityOwner(identity)], identity, \"revokeAttribute\", name, value)); \n    revokeAttribute(identity, checkSignature(identity, sigV, sigR, sigS, hash), name, value);\n  }\n\n function prefixed(bytes32 hash) internal returns (bytes32) {\n        return keccak256(abi.encodePacked(\"\\x19Ethereum Signed Message:\\n32\", hash));\n    }\n}\n\n",
  "sourcePath": "/Users/Hai/Google Drive/KMS/01. Work/121. Vue/Vue_Truffle/contracts/ERC1056.sol",
  "compiler": {
    "name": "solc",
    "version": "0.5.12+commit.7709ece9.Emscripten.clang"
  },
  "schemaVersion": "3.0.11",
  "updatedAt": "2019-11-27T16:01:10.708Z",
  "devdoc": {
    "methods": {}
  },
  "userdoc": {
    "methods": {}
  }
}