{
  "contractName": "LicenseBase",
  "abi": [
    {
      "anonymous": false,
      "inputs": [
        {
          "indexed": true,
          "internalType": "address",
          "name": "owner",
          "type": "address"
        },
        {
          "indexed": true,
          "internalType": "address",
          "name": "purchaser",
          "type": "address"
        },
        {
          "indexed": false,
          "internalType": "uint256",
          "name": "licenseId",
          "type": "uint256"
        },
        {
          "indexed": false,
          "internalType": "uint256",
          "name": "productId",
          "type": "uint256"
        },
        {
          "indexed": false,
          "internalType": "uint256",
          "name": "attributes",
          "type": "uint256"
        },
        {
          "indexed": false,
          "internalType": "uint256",
          "name": "issuedTime",
          "type": "uint256"
        },
        {
          "indexed": false,
          "internalType": "uint256",
          "name": "expirationTime",
          "type": "uint256"
        }
      ],
      "name": "LicenseIssued",
      "type": "event"
    },
    {
      "anonymous": false,
      "inputs": [
        {
          "indexed": true,
          "internalType": "address",
          "name": "owner",
          "type": "address"
        },
        {
          "indexed": true,
          "internalType": "address",
          "name": "purchaser",
          "type": "address"
        },
        {
          "indexed": false,
          "internalType": "uint256",
          "name": "licenseId",
          "type": "uint256"
        },
        {
          "indexed": false,
          "internalType": "uint256",
          "name": "productId",
          "type": "uint256"
        },
        {
          "indexed": false,
          "internalType": "uint256",
          "name": "expirationTime",
          "type": "uint256"
        }
      ],
      "name": "LicenseRenewal",
      "type": "event"
    },
    {
      "constant": true,
      "inputs": [
        {
          "internalType": "uint256",
          "name": "_licenseId",
          "type": "uint256"
        }
      ],
      "name": "licenseProductId",
      "outputs": [
        {
          "internalType": "uint256",
          "name": "",
          "type": "uint256"
        }
      ],
      "payable": false,
      "stateMutability": "view",
      "type": "function"
    },
    {
      "constant": true,
      "inputs": [
        {
          "internalType": "uint256",
          "name": "_licenseId",
          "type": "uint256"
        }
      ],
      "name": "licenseAttributes",
      "outputs": [
        {
          "internalType": "uint256",
          "name": "",
          "type": "uint256"
        }
      ],
      "payable": false,
      "stateMutability": "view",
      "type": "function"
    },
    {
      "constant": true,
      "inputs": [
        {
          "internalType": "uint256",
          "name": "_licenseId",
          "type": "uint256"
        }
      ],
      "name": "licenseIssuedTime",
      "outputs": [
        {
          "internalType": "uint256",
          "name": "",
          "type": "uint256"
        }
      ],
      "payable": false,
      "stateMutability": "view",
      "type": "function"
    },
    {
      "constant": true,
      "inputs": [
        {
          "internalType": "uint256",
          "name": "_licenseId",
          "type": "uint256"
        }
      ],
      "name": "licenseExpirationTime",
      "outputs": [
        {
          "internalType": "uint256",
          "name": "",
          "type": "uint256"
        }
      ],
      "payable": false,
      "stateMutability": "view",
      "type": "function"
    },
    {
      "constant": true,
      "inputs": [
        {
          "internalType": "uint256",
          "name": "_licenseId",
          "type": "uint256"
        }
      ],
      "name": "licenseInfo",
      "outputs": [
        {
          "internalType": "uint256",
          "name": "",
          "type": "uint256"
        },
        {
          "internalType": "uint256",
          "name": "",
          "type": "uint256"
        },
        {
          "internalType": "uint256",
          "name": "",
          "type": "uint256"
        },
        {
          "internalType": "uint256",
          "name": "",
          "type": "uint256"
        }
      ],
      "payable": false,
      "stateMutability": "view",
      "type": "function"
    }
  ],
  "bytecode": "0x608060405234801561001057600080fd5b506102c5806100206000396000f3fe608060405234801561001057600080fd5b50600436106100575760003560e01c80631411d7131461005c5780631e0845581461009e5780639425753c146100f5578063dfbebd0714610137578063f4b272db14610179575b600080fd5b6100886004803603602081101561007257600080fd5b81019080803590602001909291905050506101bb565b6040518082815260200191505060405180910390f35b6100ca600480360360208110156100b457600080fd5b81019080803590602001909291905050506101e2565b6040518085815260200184815260200183815260200182815260200194505050505060405180910390f35b6101216004803603602081101561010b57600080fd5b810190808035906020019092919050505061021b565b6040518082815260200191505060405180910390f35b6101636004803603602081101561014d57600080fd5b8101908080359060200190929190505050610242565b6040518082815260200191505060405180910390f35b6101a56004803603602081101561018f57600080fd5b8101908080359060200190929190505050610269565b6040518082815260200191505060405180910390f35b60008082815481106101c957fe5b9060005260206000209060040201600201549050919050565b6000806000806101f18561021b565b6101fa86610269565b610203876101bb565b61020c88610242565b93509350935093509193509193565b600080828154811061022957fe5b9060005260206000209060040201600001549050919050565b600080828154811061025057fe5b9060005260206000209060040201600301549050919050565b600080828154811061027757fe5b906000526020600020906004020160010154905091905056fea265627a7a723158204726d977805fb944fc4dbfa7dde28c6c6fe3fed8f362845628f47d9184e8a5dd64736f6c634300050c0032",
  "source": "pragma solidity ^0.5.12;\n\n/**\n * @title LicenseBase\n * @notice This contract defines the License data structure and how to read from it\n */\n\ncontract LicenseBase {\n    /**\n   * @notice Issued is emitted when a new license is issued\n   */\n    event LicenseIssued(\n        address indexed owner,\n        address indexed purchaser,\n        uint256 licenseId,\n        uint256 productId,\n        uint256 attributes,\n        uint256 issuedTime,\n        uint256 expirationTime\n    );\n\n    event LicenseRenewal(\n        address indexed owner,\n        address indexed purchaser,\n        uint256 licenseId,\n        uint256 productId,\n        uint256 expirationTime\n    );\n\n    struct License {\n        uint256 productId;\n        uint256 attributes;\n        uint256 issuedTime;\n        uint256 expirationTime;\n    }\n\n    /**\n   * @notice All licenses in existence.\n   * @dev The ID of each license is an index in this array.\n   */\n    License[] licenses;\n\n    /** internal **/\n    function _isValidLicense(uint256 _licenseId) internal view returns (bool) {\n        return licenseProductId(_licenseId) != 0;\n    }\n\n    /**\n   * @notice Get a license's productId\n   * @param _licenseId the license id\n   */\n    function licenseProductId(uint256 _licenseId)\n        public\n        view\n        returns (uint256)\n    {\n        return licenses[_licenseId].productId;\n    }\n\n    /**\n   * @notice Get a license's attributes\n   * @param _licenseId the license id\n   */\n    function licenseAttributes(uint256 _licenseId)\n        public\n        view\n        returns (uint256)\n    {\n        return licenses[_licenseId].attributes;\n    }\n\n    /**\n   * @notice Get a license's issueTime\n   * @param _licenseId the license id\n   */\n    function licenseIssuedTime(uint256 _licenseId)\n        public\n        view\n        returns (uint256)\n    {\n        return licenses[_licenseId].issuedTime;\n    }\n\n    /**\n   * @notice Get a license's issueTime\n   * @param _licenseId the license id\n   */\n    function licenseExpirationTime(uint256 _licenseId)\n        public\n        view\n        returns (uint256)\n    {\n        return licenses[_licenseId].expirationTime;\n    }\n\n    /**\n   * @notice Get a license's info\n   * @param _licenseId the license id\n   */\n    function licenseInfo(uint256 _licenseId)\n        public\n        view\n        returns (uint256, uint256, uint256, uint256)\n    {\n        return (\n            licenseProductId(_licenseId),\n            licenseAttributes(_licenseId),\n            licenseIssuedTime(_licenseId),\n            licenseExpirationTime(_licenseId)\n        );\n    }\n\n}\n",
  "sourcePath": "/Users/Hai/Google Drive/KMS/01. Work/121. Vue/Vue_Truffle/contracts/LicenseBase.sol",
  "compiler": {
    "name": "solc",
    "version": "0.5.12+commit.7709ece9.Emscripten.clang"
  },
  "schemaVersion": "3.0.23",
  "updatedAt": "2020-02-26T14:46:17.644Z",
  "devdoc": {
    "methods": {
      "licenseAttributes(uint256)": {
        "params": {
          "_licenseId": "the license id"
        }
      },
      "licenseExpirationTime(uint256)": {
        "params": {
          "_licenseId": "the license id"
        }
      },
      "licenseInfo(uint256)": {
        "params": {
          "_licenseId": "the license id"
        }
      },
      "licenseIssuedTime(uint256)": {
        "params": {
          "_licenseId": "the license id"
        }
      },
      "licenseProductId(uint256)": {
        "params": {
          "_licenseId": "the license id"
        }
      }
    },
    "title": "LicenseBase"
  },
  "userdoc": {
    "methods": {
      "licenseAttributes(uint256)": {
        "notice": "Get a license's attributes"
      },
      "licenseExpirationTime(uint256)": {
        "notice": "Get a license's issueTime"
      },
      "licenseInfo(uint256)": {
        "notice": "Get a license's info"
      },
      "licenseIssuedTime(uint256)": {
        "notice": "Get a license's issueTime"
      },
      "licenseProductId(uint256)": {
        "notice": "Get a license's productId"
      }
    },
    "notice": "This contract defines the License data structure and how to read from it"
  }
}