{
  "contractName": "MarketPlaceCore",
  "abi": [
    {
      "inputs": [
        {
          "internalType": "address",
          "name": "_ethereumDIDRegistry",
          "type": "address"
        },
        {
          "internalType": "address",
          "name": "_claimRegistry",
          "type": "address"
        }
      ],
      "payable": false,
      "stateMutability": "nonpayable",
      "type": "constructor"
    },
    {
      "constant": true,
      "inputs": [],
      "name": "DELEGATE_ADMIN",
      "outputs": [
        {
          "internalType": "bytes32",
          "name": "",
          "type": "bytes32"
        }
      ],
      "payable": false,
      "stateMutability": "view",
      "type": "function"
    },
    {
      "constant": true,
      "inputs": [],
      "name": "DELEGATE_MEMBER",
      "outputs": [
        {
          "internalType": "bytes32",
          "name": "",
          "type": "bytes32"
        }
      ],
      "payable": false,
      "stateMutability": "view",
      "type": "function"
    },
    {
      "constant": false,
      "inputs": [
        {
          "internalType": "address",
          "name": "identity",
          "type": "address"
        },
        {
          "internalType": "bytes32",
          "name": "memberType",
          "type": "bytes32"
        },
        {
          "internalType": "address",
          "name": "member",
          "type": "address"
        }
      ],
      "name": "addMember",
      "outputs": [],
      "payable": false,
      "stateMutability": "nonpayable",
      "type": "function"
    },
    {
      "constant": true,
      "inputs": [],
      "name": "chainId",
      "outputs": [
        {
          "internalType": "uint256",
          "name": "",
          "type": "uint256"
        }
      ],
      "payable": false,
      "stateMutability": "view",
      "type": "function"
    },
    {
      "constant": false,
      "inputs": [
        {
          "internalType": "address",
          "name": "identity",
          "type": "address"
        },
        {
          "internalType": "uint8",
          "name": "sigV",
          "type": "uint8"
        },
        {
          "internalType": "bytes32",
          "name": "sigR",
          "type": "bytes32"
        },
        {
          "internalType": "bytes32",
          "name": "sigS",
          "type": "bytes32"
        },
        {
          "internalType": "address",
          "name": "newOwner",
          "type": "address"
        }
      ],
      "name": "registerEntity",
      "outputs": [],
      "payable": false,
      "stateMutability": "nonpayable",
      "type": "function"
    },
    {
      "constant": true,
      "inputs": [],
      "name": "registry",
      "outputs": [
        {
          "internalType": "contract EthereumDIDRegistryInterface",
          "name": "",
          "type": "address"
        }
      ],
      "payable": false,
      "stateMutability": "view",
      "type": "function"
    },
    {
      "constant": false,
      "inputs": [
        {
          "internalType": "address",
          "name": "identity",
          "type": "address"
        },
        {
          "internalType": "bytes32",
          "name": "memberType",
          "type": "bytes32"
        },
        {
          "internalType": "address",
          "name": "member",
          "type": "address"
        }
      ],
      "name": "revokeMember",
      "outputs": [],
      "payable": false,
      "stateMutability": "nonpayable",
      "type": "function"
    },
    {
      "constant": true,
      "inputs": [],
      "name": "salt",
      "outputs": [
        {
          "internalType": "bytes32",
          "name": "",
          "type": "bytes32"
        }
      ],
      "payable": false,
      "stateMutability": "view",
      "type": "function"
    },
    {
      "constant": false,
      "inputs": [
        {
          "internalType": "address",
          "name": "identity",
          "type": "address"
        },
        {
          "internalType": "bytes32",
          "name": "name",
          "type": "bytes32"
        },
        {
          "internalType": "bytes",
          "name": "value",
          "type": "bytes"
        },
        {
          "internalType": "uint256",
          "name": "validity",
          "type": "uint256"
        }
      ],
      "name": "setData",
      "outputs": [],
      "payable": false,
      "stateMutability": "nonpayable",
      "type": "function"
    },
    {
      "constant": true,
      "inputs": [],
      "name": "test",
      "outputs": [
        {
          "internalType": "string",
          "name": "",
          "type": "string"
        }
      ],
      "payable": false,
      "stateMutability": "view",
      "type": "function"
    },
    {
      "constant": true,
      "inputs": [
        {
          "internalType": "address",
          "name": "author",
          "type": "address"
        },
        {
          "internalType": "string",
          "name": "appName",
          "type": "string"
        },
        {
          "internalType": "string",
          "name": "description",
          "type": "string"
        },
        {
          "internalType": "string",
          "name": "downloadLink",
          "type": "string"
        },
        {
          "internalType": "address[]",
          "name": "supportedApp",
          "type": "address[]"
        },
        {
          "internalType": "bytes32",
          "name": "sigR",
          "type": "bytes32"
        },
        {
          "internalType": "bytes32",
          "name": "sigS",
          "type": "bytes32"
        },
        {
          "internalType": "uint8",
          "name": "sigV",
          "type": "uint8"
        }
      ],
      "name": "verifyApp",
      "outputs": [
        {
          "internalType": "bool",
          "name": "",
          "type": "bool"
        }
      ],
      "payable": false,
      "stateMutability": "view",
      "type": "function"
    },
    {
      "constant": true,
      "inputs": [],
      "name": "verifyingContract",
      "outputs": [
        {
          "internalType": "address",
          "name": "",
          "type": "address"
        }
      ],
      "payable": false,
      "stateMutability": "view",
      "type": "function"
    }
  ],
  "bytecode": "0x60806040523480156200001157600080fd5b5060405162001b5138038062001b518339818101604052620000379190810190620000d7565b816000806101000a81548173ffffffffffffffffffffffffffffffffffffffff021916908373ffffffffffffffffffffffffffffffffffffffff16021790555080600160006101000a81548173ffffffffffffffffffffffffffffffffffffffff021916908373ffffffffffffffffffffffffffffffffffffffff160217905550505062000166565b600081519050620000d1816200014c565b92915050565b60008060408385031215620000eb57600080fd5b6000620000fb85828601620000c0565b92505060206200010e85828601620000c0565b9150509250929050565b600062000125826200012c565b9050919050565b600073ffffffffffffffffffffffffffffffffffffffff82169050919050565b620001578162000118565b81146200016357600080fd5b50565b6119db80620001766000396000f3fe608060405234801561001057600080fd5b50600436106100b45760003560e01c80639a8a0592116100715780639a8a059214610179578063a787d61b14610197578063b9e4bf9b146101b5578063bfa0b133146101d3578063d6359863146101f1578063f8a8fd6d1461020d576100b4565b806311b8ba5c146100b9578063137d6a13146100e95780631f19713e146101055780634b6edf7714610121578063656651091461013d5780637b1039991461015b575b600080fd5b6100d360048036036100ce9190810190610e56565b61022b565b6040516100e0919061147b565b60405180910390f35b61010360048036036100fe9190810190610ddb565b61030c565b005b61011f600480360361011a9190810190610f68565b61067c565b005b61013b60048036036101369190810190610d8c565b610795565b005b61014561082e565b6040516101529190611496565b60405180910390f35b61016361086e565b60405161017091906115b8565b60405180910390f35b610181610893565b60405161018e91906115f5565b60405180910390f35b61019f61089d565b6040516101ac919061130e565b60405180910390f35b6101bd6108b5565b6040516101ca9190611496565b60405180910390f35b6101db6108f5565b6040516101e89190611496565b60405180910390f35b61020b60048036036102069190810190610d8c565b61091c565b005b6102156109b1565b60405161022291906115d3565b60405180910390f35b6000610235610bb3565b6040518060a001604052808b73ffffffffffffffffffffffffffffffffffffffff1681526020018a8152602001898152602001888152602001878152509050600161027f826109f3565b8487876040516000815260200160405260405161029f9493929190611573565b6020604051602081039080840390855afa1580156102c1573d6000803e3d6000fd5b5050506020604051035173ffffffffffffffffffffffffffffffffffffffff16816000015173ffffffffffffffffffffffffffffffffffffffff161491505098975050505050505050565b3373ffffffffffffffffffffffffffffffffffffffff16600260008673ffffffffffffffffffffffffffffffffffffffff1673ffffffffffffffffffffffffffffffffffffffff16815260200190815260200160002060009054906101000a900473ffffffffffffffffffffffffffffffffffffffff1673ffffffffffffffffffffffffffffffffffffffff1614806104ea57506000809054906101000a900473ffffffffffffffffffffffffffffffffffffffff1673ffffffffffffffffffffffffffffffffffffffff1663622b2a3c600260008773ffffffffffffffffffffffffffffffffffffffff1673ffffffffffffffffffffffffffffffffffffffff16815260200190815260200160002060009054906101000a900473ffffffffffffffffffffffffffffffffffffffff166040518060400160405280600581526020017f61646d696e00000000000000000000000000000000000000000000000000000081525080519060200120336040518463ffffffff1660e01b815260040161049993929190611360565b60206040518083038186803b1580156104b157600080fd5b505afa1580156104c5573d6000803e3d6000fd5b505050506040513d601f19601f820116820180604052506104e99190810190610fdf565b5b806105db57506000809054906101000a900473ffffffffffffffffffffffffffffffffffffffff1673ffffffffffffffffffffffffffffffffffffffff1663622b2a3c856040518060400160405280600581526020017f61646d696e00000000000000000000000000000000000000000000000000000081525080519060200120336040518463ffffffff1660e01b815260040161058a93929190611360565b60206040518083038186803b1580156105a257600080fd5b505afa1580156105b6573d6000803e3d6000fd5b505050506040513d601f19601f820116820180604052506105da9190810190610fdf565b5b6105e457600080fd5b6000809054906101000a900473ffffffffffffffffffffffffffffffffffffffff1673ffffffffffffffffffffffffffffffffffffffff16637ad4b0a4858585856040518563ffffffff1660e01b815260040161064494939291906113dc565b600060405180830381600087803b15801561065e57600080fd5b505af1158015610672573d6000803e3d6000fd5b5050505050505050565b6000809054906101000a900473ffffffffffffffffffffffffffffffffffffffff1673ffffffffffffffffffffffffffffffffffffffff1663240cf1fa86868686306040518663ffffffff1660e01b81526004016106de959493929190611428565b600060405180830381600087803b1580156106f857600080fd5b505af115801561070c573d6000803e3d6000fd5b5050505080600260008773ffffffffffffffffffffffffffffffffffffffff1673ffffffffffffffffffffffffffffffffffffffff16815260200190815260200160002060006101000a81548173ffffffffffffffffffffffffffffffffffffffff021916908373ffffffffffffffffffffffffffffffffffffffff1602179055505050505050565b6000809054906101000a900473ffffffffffffffffffffffffffffffffffffffff1673ffffffffffffffffffffffffffffffffffffffff1663a7068d66848484614e206040518563ffffffff1660e01b81526004016107f79493929190611397565b600060405180830381600087803b15801561081157600080fd5b505af1158015610825573d6000803e3d6000fd5b50505050505050565b6040518060400160405280600581526020017f61646d696e0000000000000000000000000000000000000000000000000000008152508051906020012081565b6000809054906101000a900473ffffffffffffffffffffffffffffffffffffffff1681565b65016ffa9cf37281565b731c56346cd2a2bf3202f771f50d3d14a367b4807081565b6040518060400160405280600681526020017f6d656d62657200000000000000000000000000000000000000000000000000008152508051906020012081565b7ff2d857f4a3edcb9b78b4d503bfe733db1e3f6cdc2b7971ee739626c97e86a55860001b81565b6000809054906101000a900473ffffffffffffffffffffffffffffffffffffffff1673ffffffffffffffffffffffffffffffffffffffff166380b29f7c8484846040518463ffffffff1660e01b815260040161097a93929190611329565b600060405180830381600087803b15801561099457600080fd5b505af11580156109a8573d6000803e3d6000fd5b50505050505050565b6060806040518060400160405280600381526020017f686579000000000000000000000000000000000000000000000000000000000081525090508091505090565b60006040518060800160405280605f815260200161193a605f9139604051602001610a1e9190611296565b60405160208183030381529060405280519060200120604051610a40906112e4565b6040518091039020604051610a54906112f9565b604051809103902065016ffa9cf372731c56346cd2a2bf3202f771f50d3d14a367b480707ff2d857f4a3edcb9b78b4d503bfe733db1e3f6cdc2b7971ee739626c97e86a55860001b604051602001610ab196959493929190611512565b604051602081830303815290604052805190602001206040518060800160405280606081526020016118da60609139604051602001610af09190611296565b6040516020818303038152906040528051906020012083600001518460200151805190602001208560400151805190602001208660600151805190602001208760800151604051602001610b44919061127f565b60405160208183030381529060405280519060200120604051602001610b6f969594939291906114b1565b60405160208183030381529060405280519060200120604051602001610b969291906112ad565b604051602081830303815290604052805190602001209050919050565b6040518060a00160405280600073ffffffffffffffffffffffffffffffffffffffff168152602001606081526020016060815260200160608152602001606081525090565b600081359050610c0781611866565b92915050565b600082601f830112610c1e57600080fd5b8135610c31610c2c8261163d565b611610565b91508181835260208401935060208101905083856020840282011115610c5657600080fd5b60005b83811015610c865781610c6c8882610bf8565b845260208401935060208301925050600181019050610c59565b5050505092915050565b600081519050610c9f8161187d565b92915050565b600081359050610cb481611894565b92915050565b600082601f830112610ccb57600080fd5b8135610cde610cd982611665565b611610565b91508082526020830160208301858383011115610cfa57600080fd5b610d05838284611809565b50505092915050565b600082601f830112610d1f57600080fd5b8135610d32610d2d82611691565b611610565b91508082526020830160208301858383011115610d4e57600080fd5b610d59838284611809565b50505092915050565b600081359050610d71816118ab565b92915050565b600081359050610d86816118c2565b92915050565b600080600060608486031215610da157600080fd5b6000610daf86828701610bf8565b9350506020610dc086828701610ca5565b9250506040610dd186828701610bf8565b9150509250925092565b60008060008060808587031215610df157600080fd5b6000610dff87828801610bf8565b9450506020610e1087828801610ca5565b935050604085013567ffffffffffffffff811115610e2d57600080fd5b610e3987828801610cba565b9250506060610e4a87828801610d62565b91505092959194509250565b600080600080600080600080610100898b031215610e7357600080fd5b6000610e818b828c01610bf8565b985050602089013567ffffffffffffffff811115610e9e57600080fd5b610eaa8b828c01610d0e565b975050604089013567ffffffffffffffff811115610ec757600080fd5b610ed38b828c01610d0e565b965050606089013567ffffffffffffffff811115610ef057600080fd5b610efc8b828c01610d0e565b955050608089013567ffffffffffffffff811115610f1957600080fd5b610f258b828c01610c0d565b94505060a0610f368b828c01610ca5565b93505060c0610f478b828c01610ca5565b92505060e0610f588b828c01610d77565b9150509295985092959890939650565b600080600080600060a08688031215610f8057600080fd5b6000610f8e88828901610bf8565b9550506020610f9f88828901610d77565b9450506040610fb088828901610ca5565b9350506060610fc188828901610ca5565b9250506080610fd288828901610bf8565b9150509295509295909350565b600060208284031215610ff157600080fd5b6000610fff84828501610c90565b91505092915050565b6000611014838361103e565b60208301905092915050565b6110298161179d565b82525050565b6110388161173e565b82525050565b6110478161173e565b82525050565b6000611058826116cd565b6110628185611706565b935061106d836116bd565b8060005b8381101561109e5781516110858882611008565b9750611090836116f9565b925050600181019050611071565b5085935050505092915050565b6110b481611750565b82525050565b6110c38161175c565b82525050565b6110da6110d58261175c565b61184b565b82525050565b60006110eb826116d8565b6110f58185611711565b9350611105818560208601611818565b61110e81611855565b840191505092915050565b611122816117af565b82525050565b611131816117d3565b82525050565b6000611142826116ee565b61114c8185611722565b935061115c818560208601611818565b61116581611855565b840191505092915050565b600061117b826116e3565b6111858185611733565b9350611195818560208601611818565b80840191505092915050565b60006111ae600283611733565b91507f19010000000000000000000000000000000000000000000000000000000000006000830152600282019050919050565b60006111ee601483611733565b91507f4d61726b6574706c6163652052656769737472790000000000000000000000006000830152601482019050919050565b600061122e600183611733565b91507f31000000000000000000000000000000000000000000000000000000000000006000830152600182019050919050565b61126a81611786565b82525050565b61127981611790565b82525050565b600061128b828461104d565b915081905092915050565b60006112a28284611170565b915081905092915050565b60006112b8826111a1565b91506112c482856110c9565b6020820191506112d482846110c9565b6020820191508190509392505050565b60006112ef826111e1565b9150819050919050565b600061130482611221565b9150819050919050565b6000602082019050611323600083018461102f565b92915050565b600060608201905061133e600083018661102f565b61134b60208301856110ba565b611358604083018461102f565b949350505050565b6000606082019050611375600083018661102f565b61138260208301856110ba565b61138f6040830184611020565b949350505050565b60006080820190506113ac600083018761102f565b6113b960208301866110ba565b6113c6604083018561102f565b6113d36060830184611128565b95945050505050565b60006080820190506113f1600083018761102f565b6113fe60208301866110ba565b818103604083015261141081856110e0565b905061141f6060830184611261565b95945050505050565b600060a08201905061143d600083018861102f565b61144a6020830187611270565b61145760408301866110ba565b61146460608301856110ba565b611471608083018461102f565b9695505050505050565b600060208201905061149060008301846110ab565b92915050565b60006020820190506114ab60008301846110ba565b92915050565b600060c0820190506114c660008301896110ba565b6114d3602083018861102f565b6114e060408301876110ba565b6114ed60608301866110ba565b6114fa60808301856110ba565b61150760a08301846110ba565b979650505050505050565b600060c08201905061152760008301896110ba565b61153460208301886110ba565b61154160408301876110ba565b61154e6060830186611261565b61155b608083018561102f565b61156860a08301846110ba565b979650505050505050565b600060808201905061158860008301876110ba565b6115956020830186611270565b6115a260408301856110ba565b6115af60608301846110ba565b95945050505050565b60006020820190506115cd6000830184611119565b92915050565b600060208201905081810360008301526115ed8184611137565b905092915050565b600060208201905061160a6000830184611261565b92915050565b6000604051905081810181811067ffffffffffffffff8211171561163357600080fd5b8060405250919050565b600067ffffffffffffffff82111561165457600080fd5b602082029050602081019050919050565b600067ffffffffffffffff82111561167c57600080fd5b601f19601f8301169050602081019050919050565b600067ffffffffffffffff8211156116a857600080fd5b601f19601f8301169050602081019050919050565b6000819050602082019050919050565b600081519050919050565b600081519050919050565b600081519050919050565b600081519050919050565b6000602082019050919050565b600081905092915050565b600082825260208201905092915050565b600082825260208201905092915050565b600081905092915050565b600061174982611766565b9050919050565b60008115159050919050565b6000819050919050565b600073ffffffffffffffffffffffffffffffffffffffff82169050919050565b6000819050919050565b600060ff82169050919050565b60006117a8826117e5565b9050919050565b60006117ba826117c1565b9050919050565b60006117cc82611766565b9050919050565b60006117de82611786565b9050919050565b60006117f0826117f7565b9050919050565b600061180282611766565b9050919050565b82818337600083830152505050565b60005b8381101561183657808201518184015260208101905061181b565b83811115611845576000848401525b50505050565b6000819050919050565b6000601f19601f8301169050919050565b61186f8161173e565b811461187a57600080fd5b50565b61188681611750565b811461189157600080fd5b50565b61189d8161175c565b81146118a857600080fd5b50565b6118b481611786565b81146118bf57600080fd5b50565b6118cb81611790565b81146118d657600080fd5b5056fe417070286164647265737320617574686f722c737472696e67206170704e616d652c737472696e67206465736372697074696f6e2c737472696e6720646f776e6c6f61644c696e6b2c616464726573735b5d20737570706f7274656441707029454950373132446f6d61696e28737472696e67206e616d652c737472696e672076657273696f6e2c75696e7432353620636861696e49642c6164647265737320766572696679696e67436f6e74726163742c627974657333322073616c7429a365627a7a72315820c7bdfb1bcb3d7a8dc5306e6e65e208862d48328f455a2c2feb53c71e2a00a4eb6c6578706572696d656e74616cf564736f6c634300050c0040",
  "source": "pragma experimental ABIEncoderV2;\npragma solidity ^0.5.12;\n\nimport \"./AccessControl.sol\";\n\ncontract MarketPlaceCore is AccessControl {\n\n  constructor(address _ethereumDIDRegistry, address _claimRegistry) public {\n      registry = EthereumDIDRegistryInterface(_ethereumDIDRegistry); \n      claimRegistry = ClaimRegistryInterface(_claimRegistry);\n  }\n\n}",
  "sourcePath": "/Users/Hai/Google Drive/KMS/01. Work/121. Vue/Vue_Truffle/contracts/MarketPlaceCore.sol",
  "compiler": {
    "name": "solc",
    "version": "0.5.12+commit.7709ece9.Emscripten.clang"
  },
  "schemaVersion": "3.0.23",
  "updatedAt": "2020-02-26T14:37:06.711Z",
  "networkType": "ethereum",
  "devdoc": {
    "methods": {}
  },
  "userdoc": {
    "methods": {}
  }
}