{
  "contractName": "MarketPlaceBase",
  "abi": [
    {
      "constant": true,
      "inputs": [],
      "name": "DELEGATE_ADMIN",
      "outputs": [
        {
          "internalType": "bytes32",
          "name": "",
          "type": "bytes32"
        }
      ],
      "payable": false,
      "stateMutability": "view",
      "type": "function"
    },
    {
      "constant": true,
      "inputs": [],
      "name": "DELEGATE_MEMBER",
      "outputs": [
        {
          "internalType": "bytes32",
          "name": "",
          "type": "bytes32"
        }
      ],
      "payable": false,
      "stateMutability": "view",
      "type": "function"
    },
    {
      "constant": true,
      "inputs": [],
      "name": "TYPE_API",
      "outputs": [
        {
          "internalType": "string",
          "name": "",
          "type": "string"
        }
      ],
      "payable": false,
      "stateMutability": "view",
      "type": "function"
    },
    {
      "constant": true,
      "inputs": [],
      "name": "TYPE_APIVERSION",
      "outputs": [
        {
          "internalType": "string",
          "name": "",
          "type": "string"
        }
      ],
      "payable": false,
      "stateMutability": "view",
      "type": "function"
    },
    {
      "constant": true,
      "inputs": [],
      "name": "TYPE_APP",
      "outputs": [
        {
          "internalType": "string",
          "name": "",
          "type": "string"
        }
      ],
      "payable": false,
      "stateMutability": "view",
      "type": "function"
    },
    {
      "constant": true,
      "inputs": [],
      "name": "TYPE_APPVERSION",
      "outputs": [
        {
          "internalType": "string",
          "name": "",
          "type": "string"
        }
      ],
      "payable": false,
      "stateMutability": "view",
      "type": "function"
    },
    {
      "constant": true,
      "inputs": [],
      "name": "TYPE_ORGANIZATION",
      "outputs": [
        {
          "internalType": "string",
          "name": "",
          "type": "string"
        }
      ],
      "payable": false,
      "stateMutability": "view",
      "type": "function"
    },
    {
      "constant": true,
      "inputs": [],
      "name": "TYPE_USER",
      "outputs": [
        {
          "internalType": "string",
          "name": "",
          "type": "string"
        }
      ],
      "payable": false,
      "stateMutability": "view",
      "type": "function"
    },
    {
      "constant": true,
      "inputs": [],
      "name": "chainId",
      "outputs": [
        {
          "internalType": "uint256",
          "name": "",
          "type": "uint256"
        }
      ],
      "payable": false,
      "stateMutability": "view",
      "type": "function"
    },
    {
      "constant": true,
      "inputs": [],
      "name": "registry",
      "outputs": [
        {
          "internalType": "contract EthereumDIDRegistryInterface",
          "name": "",
          "type": "address"
        }
      ],
      "payable": false,
      "stateMutability": "view",
      "type": "function"
    },
    {
      "constant": true,
      "inputs": [],
      "name": "salt",
      "outputs": [
        {
          "internalType": "bytes32",
          "name": "",
          "type": "bytes32"
        }
      ],
      "payable": false,
      "stateMutability": "view",
      "type": "function"
    },
    {
      "constant": true,
      "inputs": [
        {
          "internalType": "address",
          "name": "owner",
          "type": "address"
        },
        {
          "internalType": "address",
          "name": "author",
          "type": "address"
        },
        {
          "internalType": "string",
          "name": "appName",
          "type": "string"
        },
        {
          "internalType": "string",
          "name": "description",
          "type": "string"
        },
        {
          "internalType": "address",
          "name": "issuer",
          "type": "address"
        },
        {
          "internalType": "string",
          "name": "downloadLink",
          "type": "string"
        },
        {
          "internalType": "bytes32",
          "name": "sigR",
          "type": "bytes32"
        },
        {
          "internalType": "bytes32",
          "name": "sigS",
          "type": "bytes32"
        },
        {
          "internalType": "uint8",
          "name": "sigV",
          "type": "uint8"
        }
      ],
      "name": "verifyApp",
      "outputs": [
        {
          "internalType": "bool",
          "name": "",
          "type": "bool"
        }
      ],
      "payable": false,
      "stateMutability": "view",
      "type": "function"
    },
    {
      "constant": true,
      "inputs": [],
      "name": "verifyingContract",
      "outputs": [
        {
          "internalType": "address",
          "name": "",
          "type": "address"
        }
      ],
      "payable": false,
      "stateMutability": "view",
      "type": "function"
    },
    {
      "constant": false,
      "inputs": [
        {
          "internalType": "address",
          "name": "identity",
          "type": "address"
        },
        {
          "internalType": "uint8",
          "name": "sigV",
          "type": "uint8"
        },
        {
          "internalType": "bytes32",
          "name": "sigR",
          "type": "bytes32"
        },
        {
          "internalType": "bytes32",
          "name": "sigS",
          "type": "bytes32"
        },
        {
          "internalType": "address",
          "name": "newOwner",
          "type": "address"
        }
      ],
      "name": "changeOwnerSigned",
      "outputs": [],
      "payable": false,
      "stateMutability": "nonpayable",
      "type": "function"
    },
    {
      "constant": true,
      "inputs": [
        {
          "internalType": "address",
          "name": "identity",
          "type": "address"
        }
      ],
      "name": "showOwner",
      "outputs": [
        {
          "internalType": "address",
          "name": "",
          "type": "address"
        }
      ],
      "payable": false,
      "stateMutability": "view",
      "type": "function"
    },
    {
      "constant": true,
      "inputs": [
        {
          "internalType": "address",
          "name": "identity",
          "type": "address"
        },
        {
          "internalType": "bytes32",
          "name": "name",
          "type": "bytes32"
        },
        {
          "internalType": "bytes",
          "name": "value",
          "type": "bytes"
        },
        {
          "internalType": "uint256",
          "name": "validity",
          "type": "uint256"
        }
      ],
      "name": "registerEntity",
      "outputs": [
        {
          "internalType": "address",
          "name": "",
          "type": "address"
        }
      ],
      "payable": false,
      "stateMutability": "view",
      "type": "function"
    },
    {
      "constant": false,
      "inputs": [
        {
          "internalType": "address",
          "name": "identity",
          "type": "address"
        },
        {
          "internalType": "address",
          "name": "actor",
          "type": "address"
        },
        {
          "internalType": "bytes32",
          "name": "key",
          "type": "bytes32"
        },
        {
          "internalType": "bytes32",
          "name": "signature",
          "type": "bytes32"
        }
      ],
      "name": "_updateEntity",
      "outputs": [],
      "payable": false,
      "stateMutability": "nonpayable",
      "type": "function"
    },
    {
      "constant": true,
      "inputs": [
        {
          "internalType": "address",
          "name": "identity",
          "type": "address"
        },
        {
          "internalType": "bytes32",
          "name": "key",
          "type": "bytes32"
        }
      ],
      "name": "Test",
      "outputs": [
        {
          "internalType": "bytes32",
          "name": "",
          "type": "bytes32"
        }
      ],
      "payable": false,
      "stateMutability": "view",
      "type": "function"
    }
  ],
  "bytecode": "0x608060405234801561001057600080fd5b50611ca0806100206000396000f3fe608060405234801561001057600080fd5b50600436106101165760003560e01c806395fc38e8116100a2578063b9e4bf9b11610071578063b9e4bf9b146102e5578063bfa0b13314610303578063cbe8fea714610321578063ee62ab481461033f578063f1e5ca711461035d57610116565b806395fc38e8146102495780639a8a0592146102795780639d202b1214610297578063a787d61b146102c757610116565b806331b5849d116100e957806331b5849d1461018f578063483a07d9146101bf57806355fba102146101ef578063656651091461020d5780637b1039991461022b57610116565b8063204669431461011b578063240cf1fa1461013757806325ef93c9146101535780633090b07414610171575b600080fd5b6101356004803603610130919081019061113e565b61037b565b005b610151600480360361014c9190810190611366565b61077e565b005b61015b610819565b6040516101689190611940565b60405180910390f35b610179610852565b6040516101869190611940565b60405180910390f35b6101a960048036036101a491908101906112af565b61088b565b6040516101b691906117f5565b60405180910390f35b6101d960048036036101d491908101906110ec565b610944565b6040516101e6919061167b565b60405180910390f35b6101f76109f7565b6040516102049190611940565b60405180910390f35b610215610a30565b60405161022291906117f5565b60405180910390f35b610233610a70565b6040516102409190611925565b60405180910390f35b610263600480360361025e91908101906111a1565b610a95565b60405161027091906117da565b60405180910390f35b610281610ba9565b60405161028e9190611962565b60405180910390f35b6102b160048036036102ac91908101906112eb565b610bb3565b6040516102be919061167b565b60405180910390f35b6102cf610c6f565b6040516102dc919061167b565b60405180910390f35b6102ed610c87565b6040516102fa91906117f5565b60405180910390f35b61030b610cc7565b60405161031891906117f5565b60405180910390f35b610329610cee565b6040516103369190611940565b60405180910390f35b610347610d27565b6040516103549190611940565b60405180910390f35b610365610d60565b6040516103729190611940565b60405180910390f35b6000809054906101000a900473ffffffffffffffffffffffffffffffffffffffff1673ffffffffffffffffffffffffffffffffffffffff16638733d4e8856040518263ffffffff1660e01b81526004016103d5919061167b565b60206040518083038186803b1580156103ed57600080fd5b505afa158015610401573d6000803e3d6000fd5b505050506040513d601f19601f820116820180604052506104259190810190611115565b73ffffffffffffffffffffffffffffffffffffffff168373ffffffffffffffffffffffffffffffffffffffff1614806105ed57506000809054906101000a900473ffffffffffffffffffffffffffffffffffffffff1673ffffffffffffffffffffffffffffffffffffffff1663622b2a3c6000809054906101000a900473ffffffffffffffffffffffffffffffffffffffff1673ffffffffffffffffffffffffffffffffffffffff16638733d4e8876040518263ffffffff1660e01b81526004016104f0919061167b565b60206040518083038186803b15801561050857600080fd5b505afa15801561051c573d6000803e3d6000fd5b505050506040513d601f19601f820116820180604052506105409190810190611115565b6040518060400160405280600581526020017f61646d696e00000000000000000000000000000000000000000000000000000081525080519060200120866040518463ffffffff1660e01b815260040161059c939291906116cd565b60206040518083038186803b1580156105b457600080fd5b505afa1580156105c8573d6000803e3d6000fd5b505050506040513d601f19601f820116820180604052506105ec91908101906113dd565b5b806106de57506000809054906101000a900473ffffffffffffffffffffffffffffffffffffffff1673ffffffffffffffffffffffffffffffffffffffff1663622b2a3c856040518060400160405280600581526020017f61646d696e00000000000000000000000000000000000000000000000000000081525080519060200120866040518463ffffffff1660e01b815260040161068d939291906116cd565b60206040518083038186803b1580156106a557600080fd5b505afa1580156106b9573d6000803e3d6000fd5b505050506040513d601f19601f820116820180604052506106dd91908101906113dd565b5b6106e757600080fd5b600160009054906101000a900473ffffffffffffffffffffffffffffffffffffffff1673ffffffffffffffffffffffffffffffffffffffff16639918925d8584846040518463ffffffff1660e01b815260040161074693929190611704565b600060405180830381600087803b15801561076057600080fd5b505af1158015610774573d6000803e3d6000fd5b5050505050505050565b6000809054906101000a900473ffffffffffffffffffffffffffffffffffffffff1673ffffffffffffffffffffffffffffffffffffffff1663240cf1fa86868686866040518663ffffffff1660e01b81526004016107e0959493929190611787565b600060405180830381600087803b1580156107fa57600080fd5b505af115801561080e573d6000803e3d6000fd5b505050505050505050565b6040518060400160405280600381526020017f617070000000000000000000000000000000000000000000000000000000000081525081565b6040518060400160405280600c81526020017f6f7267616e697a6174696f6e000000000000000000000000000000000000000081525081565b6000600160009054906101000a900473ffffffffffffffffffffffffffffffffffffffff1673ffffffffffffffffffffffffffffffffffffffff1663e1661eff3085856040518463ffffffff1660e01b81526004016108ec93929190611696565b60206040518083038186803b15801561090457600080fd5b505afa158015610918573d6000803e3d6000fd5b505050506040513d601f19601f8201168201806040525061093c9190810190611406565b905092915050565b60008060009054906101000a900473ffffffffffffffffffffffffffffffffffffffff1673ffffffffffffffffffffffffffffffffffffffff16638733d4e8836040518263ffffffff1660e01b81526004016109a0919061167b565b60206040518083038186803b1580156109b857600080fd5b505afa1580156109cc573d6000803e3d6000fd5b505050506040513d601f19601f820116820180604052506109f09190810190611115565b9050919050565b6040518060400160405280600a81526020017f61707056657273696f6e0000000000000000000000000000000000000000000081525081565b6040518060400160405280600581526020017f61646d696e0000000000000000000000000000000000000000000000000000008152508051906020012081565b6000809054906101000a900473ffffffffffffffffffffffffffffffffffffffff1681565b6000610a9f610f39565b6040518060c001604052808c73ffffffffffffffffffffffffffffffffffffffff1681526020018b73ffffffffffffffffffffffffffffffffffffffff1681526020018a81526020018981526020018873ffffffffffffffffffffffffffffffffffffffff1681526020018781525090506001610b1b82610d99565b84878760405160008152602001604052604051610b3b94939291906118e0565b6020604051602081039080840390855afa158015610b5d573d6000803e3d6000fd5b5050506020604051035173ffffffffffffffffffffffffffffffffffffffff16816020015173ffffffffffffffffffffffffffffffffffffffff16149150509998505050505050505050565b65016ead397a2881565b60008060009054906101000a900473ffffffffffffffffffffffffffffffffffffffff1673ffffffffffffffffffffffffffffffffffffffff16637ad4b0a4868686866040518563ffffffff1660e01b8152600401610c15949392919061173b565b60206040518083038186803b158015610c2d57600080fd5b505afa158015610c41573d6000803e3d6000fd5b505050506040513d601f19601f82011682018060405250610c659190810190611115565b9050949350505050565b731c56346cd2a2bf3202f771f50d3d14a367b4807081565b6040518060400160405280600681526020017f6d656d62657200000000000000000000000000000000000000000000000000008152508051906020012081565b7ff2d857f4a3edcb9b78b4d503bfe733db1e3f6cdc2b7971ee739626c97e86a55860001b81565b6040518060400160405280600481526020017f757365720000000000000000000000000000000000000000000000000000000081525081565b6040518060400160405280600381526020017f617069000000000000000000000000000000000000000000000000000000000081525081565b6040518060400160405280600a81526020017f61706956657273696f6e0000000000000000000000000000000000000000000081525081565b60006040518060800160405280605f8152602001611bff605f9139604051602001610dc49190611603565b60405160208183030381529060405280519060200120604051610de690611651565b6040518091039020604051610dfa90611666565b604051809103902065016ead397a28731c56346cd2a2bf3202f771f50d3d14a367b480707ff2d857f4a3edcb9b78b4d503bfe733db1e3f6cdc2b7971ee739626c97e86a55860001b604051602001610e579695949392919061187f565b604051602081830303815290604052805190602001206040518060a0016040528060668152602001611b9960669139604051602001610e969190611603565b604051602081830303815290604052805190602001208360000151846020015185604001518051906020012086606001518051906020012087608001518860a0015180519060200120604051602001610ef59796959493929190611810565b60405160208183030381529060405280519060200120604051602001610f1c92919061161a565b604051602081830303815290604052805190602001209050919050565b6040518060c00160405280600073ffffffffffffffffffffffffffffffffffffffff168152602001600073ffffffffffffffffffffffffffffffffffffffff1681526020016060815260200160608152602001600073ffffffffffffffffffffffffffffffffffffffff168152602001606081525090565b600081359050610fc081611b25565b92915050565b600081519050610fd581611b25565b92915050565b600081519050610fea81611b3c565b92915050565b600081359050610fff81611b53565b92915050565b60008151905061101481611b53565b92915050565b600082601f83011261102b57600080fd5b813561103e611039826119aa565b61197d565b9150808252602083016020830185838301111561105a57600080fd5b611065838284611ac8565b50505092915050565b600082601f83011261107f57600080fd5b813561109261108d826119d6565b61197d565b915080825260208301602083018583830111156110ae57600080fd5b6110b9838284611ac8565b50505092915050565b6000813590506110d181611b6a565b92915050565b6000813590506110e681611b81565b92915050565b6000602082840312156110fe57600080fd5b600061110c84828501610fb1565b91505092915050565b60006020828403121561112757600080fd5b600061113584828501610fc6565b91505092915050565b6000806000806080858703121561115457600080fd5b600061116287828801610fb1565b945050602061117387828801610fb1565b935050604061118487828801610ff0565b925050606061119587828801610ff0565b91505092959194509250565b60008060008060008060008060006101208a8c0312156111c057600080fd5b60006111ce8c828d01610fb1565b99505060206111df8c828d01610fb1565b98505060408a013567ffffffffffffffff8111156111fc57600080fd5b6112088c828d0161106e565b97505060608a013567ffffffffffffffff81111561122557600080fd5b6112318c828d0161106e565b96505060806112428c828d01610fb1565b95505060a08a013567ffffffffffffffff81111561125f57600080fd5b61126b8c828d0161106e565b94505060c061127c8c828d01610ff0565b93505060e061128d8c828d01610ff0565b92505061010061129f8c828d016110d7565b9150509295985092959850929598565b600080604083850312156112c257600080fd5b60006112d085828601610fb1565b92505060206112e185828601610ff0565b9150509250929050565b6000806000806080858703121561130157600080fd5b600061130f87828801610fb1565b945050602061132087828801610ff0565b935050604085013567ffffffffffffffff81111561133d57600080fd5b6113498782880161101a565b925050606061135a878288016110c2565b91505092959194509250565b600080600080600060a0868803121561137e57600080fd5b600061138c88828901610fb1565b955050602061139d888289016110d7565b94505060406113ae88828901610ff0565b93505060606113bf88828901610ff0565b92505060806113d088828901610fb1565b9150509295509295909350565b6000602082840312156113ef57600080fd5b60006113fd84828501610fdb565b91505092915050565b60006020828403121561141857600080fd5b600061142684828501611005565b91505092915050565b61143881611a45565b82525050565b61144781611a57565b82525050565b61145681611a63565b82525050565b61146d61146882611a63565b611b0a565b82525050565b600061147e82611a02565b6114888185611a18565b9350611498818560208601611ad7565b6114a181611b14565b840191505092915050565b6114b581611aa4565b82525050565b60006114c682611a0d565b6114d08185611a29565b93506114e0818560208601611ad7565b6114e981611b14565b840191505092915050565b60006114ff82611a0d565b6115098185611a3a565b9350611519818560208601611ad7565b80840191505092915050565b6000611532600283611a3a565b91507f19010000000000000000000000000000000000000000000000000000000000006000830152600282019050919050565b6000611572601483611a3a565b91507f4d61726b6574706c6163652052656769737472790000000000000000000000006000830152601482019050919050565b60006115b2600183611a3a565b91507f31000000000000000000000000000000000000000000000000000000000000006000830152600182019050919050565b6115ee81611a8d565b82525050565b6115fd81611a97565b82525050565b600061160f82846114f4565b915081905092915050565b600061162582611525565b9150611631828561145c565b602082019150611641828461145c565b6020820191508190509392505050565b600061165c82611565565b9150819050919050565b6000611671826115a5565b9150819050919050565b6000602082019050611690600083018461142f565b92915050565b60006060820190506116ab600083018661142f565b6116b8602083018561142f565b6116c5604083018461144d565b949350505050565b60006060820190506116e2600083018661142f565b6116ef602083018561144d565b6116fc604083018461142f565b949350505050565b6000606082019050611719600083018661142f565b611726602083018561144d565b611733604083018461144d565b949350505050565b6000608082019050611750600083018761142f565b61175d602083018661144d565b818103604083015261176f8185611473565b905061177e60608301846115e5565b95945050505050565b600060a08201905061179c600083018861142f565b6117a960208301876115f4565b6117b6604083018661144d565b6117c3606083018561144d565b6117d0608083018461142f565b9695505050505050565b60006020820190506117ef600083018461143e565b92915050565b600060208201905061180a600083018461144d565b92915050565b600060e082019050611825600083018a61144d565b611832602083018961142f565b61183f604083018861142f565b61184c606083018761144d565b611859608083018661144d565b61186660a083018561142f565b61187360c083018461144d565b98975050505050505050565b600060c082019050611894600083018961144d565b6118a1602083018861144d565b6118ae604083018761144d565b6118bb60608301866115e5565b6118c8608083018561142f565b6118d560a083018461144d565b979650505050505050565b60006080820190506118f5600083018761144d565b61190260208301866115f4565b61190f604083018561144d565b61191c606083018461144d565b95945050505050565b600060208201905061193a60008301846114ac565b92915050565b6000602082019050818103600083015261195a81846114bb565b905092915050565b600060208201905061197760008301846115e5565b92915050565b6000604051905081810181811067ffffffffffffffff821117156119a057600080fd5b8060405250919050565b600067ffffffffffffffff8211156119c157600080fd5b601f19601f8301169050602081019050919050565b600067ffffffffffffffff8211156119ed57600080fd5b601f19601f8301169050602081019050919050565b600081519050919050565b600081519050919050565b600082825260208201905092915050565b600082825260208201905092915050565b600081905092915050565b6000611a5082611a6d565b9050919050565b60008115159050919050565b6000819050919050565b600073ffffffffffffffffffffffffffffffffffffffff82169050919050565b6000819050919050565b600060ff82169050919050565b6000611aaf82611ab6565b9050919050565b6000611ac182611a6d565b9050919050565b82818337600083830152505050565b60005b83811015611af5578082015181840152602081019050611ada565b83811115611b04576000848401525b50505050565b6000819050919050565b6000601f19601f8301169050919050565b611b2e81611a45565b8114611b3957600080fd5b50565b611b4581611a57565b8114611b5057600080fd5b50565b611b5c81611a63565b8114611b6757600080fd5b50565b611b7381611a8d565b8114611b7e57600080fd5b50565b611b8a81611a97565b8114611b9557600080fd5b5056fe4170702861646472657373206f776e65722c6164647265737320617574686f722c737472696e67206170704e616d652c737472696e67206465736372697074696f6e2c61646472657373206973737565722c737472696e6720646f776e6c6f61644c696e6b29454950373132446f6d61696e28737472696e67206e616d652c737472696e672076657273696f6e2c75696e7432353620636861696e49642c6164647265737320766572696679696e67436f6e74726163742c627974657333322073616c7429a365627a7a72315820650e7773bbd16e748cb3e9f0abb94dbf54ea8a1f9068741d8a12697d3fb3c8d96c6578706572696d656e74616cf564736f6c634300050c0040",
  "source": "pragma experimental ABIEncoderV2;\npragma solidity ^0.5.12;\n\nimport \"./EthereumDIDRegistryInterface.sol\";\nimport \"./Verifier.sol\";\nimport \"./ClaimRegistryInterface.sol\";\n\ncontract MarketPlaceBase is Verifier{\n\n    EthereumDIDRegistryInterface public registry;\n    ClaimRegistryInterface claimRegistry; \n\n  string public constant TYPE_APP =\"app\";\n  string public constant TYPE_API = \"api\";\n  string public constant TYPE_ORGANIZATION = \"organization\";\n  string public constant TYPE_USER = \"user\";\n  string public constant TYPE_APPVERSION = \"appVersion\";\n  string public constant TYPE_APIVERSION = \"apiVersion\"; \n  bytes32 public constant DELEGATE_ADMIN = keccak256(bytes(\"admin\"));\n  bytes32 public constant DELEGATE_MEMBER = keccak256(bytes(\"member\"));\n\n  // This holds all organization, app and api IDs registered in the marketplace \n  address[] entity; \n\n  // This maps the owner of entity to the respective entity. because ownership is transferred to the marketplace, the owner needs to be specified here. The ownership is being transferred, so delegates and other dudes can write to the DECENTRALIZED RESSOURCE RECORDS, or the ERC 1056 data storage. \n  mapping(uint256 => address) EntityIndexToOwner; \n  mapping(address => uint) entityOwner; \n\n  function changeOwnerSigned(address identity, uint8 sigV, bytes32 sigR, bytes32 sigS, address newOwner ) public{\n    registry.changeOwnerSigned(identity, sigV, sigR, sigS, newOwner);\n  }\n\n  function showOwner(address identity) public view returns(address){\n   return registry.identityOwner(identity); \n  }\n\n  function registerEntity(address identity, bytes32 name, bytes memory value, uint validity) public view returns(address) {\n      return registry.setAttribute(identity, name, value, validity);\n      // entity.push(identity); \n      // EntityIndexToOwner[entity.length -1] = msg.sender; \n  }\n\n  // Ownership is handled in ERC1056\n  // Marketplace Logic in here. \n  \n  // registers Entity to ERC780 \n  function _updateEntity(address identity, address actor,bytes32 key, bytes32 signature) public {\n      require( actor == registry.identityOwner(identity) || \n                registry.validDelegate(registry.identityOwner(identity), DELEGATE_ADMIN, actor) ||\n                registry.validDelegate(identity, DELEGATE_ADMIN, actor)\n              );\n\n      // set the Hash, /app/version \n      claimRegistry.setClaim(identity, key , signature);  \n  }\n\n  // registers Entity to ERC1056 \n/*   function _updateEntityERC1056() public {\n      require( actor == registry.identityOwner(identity) || \n                registry.validDelegate(registry.identityOwner(identity), DELEGATE_ADMIN, actor) ||\n                registry.validDelegate(identity, DELEGATE_ADMIN, actor)\n              );\n  } */\n\n\n\n  function Test(address identity, bytes32 key) public view returns (bytes32) {\n    return claimRegistry.getClaim(address(this), identity, key); \n  }\n\n  function _deleteEntity() internal {\n\n  }\n    \n    /* uint256 constant chainId = 1573916018149;\n    address constant verifyingContract = 0x1C56346CD2A2Bf3202F771f50d3D14a367B48070;\n    bytes32 constant salt = 0x77a604b8f7c68ecb34d6df338028f7fad929e2a3c98c72b3a1243f1d4dfac9b1;\n\n    string private constant EIP712_DOMAIN  = \"EIP712Domain(string name,string version,uint256 chainId,address verifyingContract,bytes32 salt)\";\n\n    bytes32 private constant EIP712_DOMAIN_TYPEHASH = keccak256(abi.encodePacked(EIP712_DOMAIN));\n\n    bytes32 private constant DOMAIN_SEPARATOR = keccak256(abi.encode(\n        EIP712_DOMAIN_TYPEHASH,\n        keccak256(\"My amazing dApp\"),\n        keccak256(\"2\"),\n        chainId,\n        verifyingContract,\n        salt\n    )); */\n\n}",
  "sourcePath": "/Users/Hai/Google Drive/KMS/01. Work/121. Vue/Vue_Truffle/contracts/MarketPlaceBase.sol",
  "compiler": {
    "name": "solc",
    "version": "0.5.12+commit.7709ece9.Emscripten.clang"
  },
  "schemaVersion": "3.0.11",
  "updatedAt": "2020-01-29T07:47:46.778Z",
  "devdoc": {
    "methods": {}
  },
  "userdoc": {
    "methods": {}
  }
}