{
  "contractName": "MarketPlaceCore",
  "abi": [
    {
      "inputs": [
        {
          "internalType": "address",
          "name": "_ethereumDIDRegistry",
          "type": "address"
        },
        {
          "internalType": "address",
          "name": "_claimRegistry",
          "type": "address"
        }
      ],
      "payable": false,
      "stateMutability": "nonpayable",
      "type": "constructor"
    },
    {
      "constant": true,
      "inputs": [],
      "name": "DELEGATE_ADMIN",
      "outputs": [
        {
          "internalType": "bytes32",
          "name": "",
          "type": "bytes32"
        }
      ],
      "payable": false,
      "stateMutability": "view",
      "type": "function"
    },
    {
      "constant": true,
      "inputs": [],
      "name": "TYPE_API",
      "outputs": [
        {
          "internalType": "string",
          "name": "",
          "type": "string"
        }
      ],
      "payable": false,
      "stateMutability": "view",
      "type": "function"
    },
    {
      "constant": true,
      "inputs": [],
      "name": "TYPE_APIVERSION",
      "outputs": [
        {
          "internalType": "string",
          "name": "",
          "type": "string"
        }
      ],
      "payable": false,
      "stateMutability": "view",
      "type": "function"
    },
    {
      "constant": true,
      "inputs": [],
      "name": "TYPE_APP",
      "outputs": [
        {
          "internalType": "string",
          "name": "",
          "type": "string"
        }
      ],
      "payable": false,
      "stateMutability": "view",
      "type": "function"
    },
    {
      "constant": true,
      "inputs": [],
      "name": "TYPE_APPVERSION",
      "outputs": [
        {
          "internalType": "string",
          "name": "",
          "type": "string"
        }
      ],
      "payable": false,
      "stateMutability": "view",
      "type": "function"
    },
    {
      "constant": true,
      "inputs": [],
      "name": "TYPE_ORGANIZATION",
      "outputs": [
        {
          "internalType": "string",
          "name": "",
          "type": "string"
        }
      ],
      "payable": false,
      "stateMutability": "view",
      "type": "function"
    },
    {
      "constant": true,
      "inputs": [],
      "name": "TYPE_USER",
      "outputs": [
        {
          "internalType": "string",
          "name": "",
          "type": "string"
        }
      ],
      "payable": false,
      "stateMutability": "view",
      "type": "function"
    },
    {
      "constant": true,
      "inputs": [
        {
          "internalType": "address",
          "name": "identity",
          "type": "address"
        },
        {
          "internalType": "bytes32",
          "name": "key",
          "type": "bytes32"
        }
      ],
      "name": "Test",
      "outputs": [
        {
          "internalType": "bytes32",
          "name": "",
          "type": "bytes32"
        }
      ],
      "payable": false,
      "stateMutability": "view",
      "type": "function"
    },
    {
      "constant": false,
      "inputs": [
        {
          "internalType": "address",
          "name": "identity",
          "type": "address"
        },
        {
          "internalType": "address",
          "name": "actor",
          "type": "address"
        },
        {
          "internalType": "bytes32",
          "name": "key",
          "type": "bytes32"
        },
        {
          "internalType": "bytes32",
          "name": "signature",
          "type": "bytes32"
        }
      ],
      "name": "_updateEntity",
      "outputs": [],
      "payable": false,
      "stateMutability": "nonpayable",
      "type": "function"
    },
    {
      "constant": false,
      "inputs": [
        {
          "internalType": "address",
          "name": "identity",
          "type": "address"
        },
        {
          "internalType": "bytes32",
          "name": "name",
          "type": "bytes32"
        },
        {
          "internalType": "bytes",
          "name": "value",
          "type": "bytes"
        },
        {
          "internalType": "uint256",
          "name": "validity",
          "type": "uint256"
        }
      ],
      "name": "_updateEntity2",
      "outputs": [],
      "payable": false,
      "stateMutability": "nonpayable",
      "type": "function"
    },
    {
      "constant": true,
      "inputs": [],
      "name": "chainId",
      "outputs": [
        {
          "internalType": "uint256",
          "name": "",
          "type": "uint256"
        }
      ],
      "payable": false,
      "stateMutability": "view",
      "type": "function"
    },
    {
      "constant": true,
      "inputs": [],
      "name": "getAllEntities",
      "outputs": [
        {
          "internalType": "uint256",
          "name": "",
          "type": "uint256"
        }
      ],
      "payable": false,
      "stateMutability": "view",
      "type": "function"
    },
    {
      "constant": true,
      "inputs": [
        {
          "internalType": "uint256",
          "name": "index",
          "type": "uint256"
        }
      ],
      "name": "getEntity",
      "outputs": [
        {
          "internalType": "address",
          "name": "",
          "type": "address"
        }
      ],
      "payable": false,
      "stateMutability": "view",
      "type": "function"
    },
    {
      "constant": false,
      "inputs": [
        {
          "internalType": "address",
          "name": "identity",
          "type": "address"
        },
        {
          "internalType": "uint8",
          "name": "sigV",
          "type": "uint8"
        },
        {
          "internalType": "bytes32",
          "name": "sigR",
          "type": "bytes32"
        },
        {
          "internalType": "bytes32",
          "name": "sigS",
          "type": "bytes32"
        },
        {
          "internalType": "address",
          "name": "newOwner",
          "type": "address"
        }
      ],
      "name": "registerEntity",
      "outputs": [],
      "payable": false,
      "stateMutability": "nonpayable",
      "type": "function"
    },
    {
      "constant": false,
      "inputs": [
        {
          "internalType": "address",
          "name": "identity",
          "type": "address"
        },
        {
          "internalType": "address",
          "name": "newOwner",
          "type": "address"
        }
      ],
      "name": "registerIdentity",
      "outputs": [],
      "payable": false,
      "stateMutability": "nonpayable",
      "type": "function"
    },
    {
      "constant": true,
      "inputs": [],
      "name": "registry",
      "outputs": [
        {
          "internalType": "contract EthereumDIDRegistryInterface",
          "name": "",
          "type": "address"
        }
      ],
      "payable": false,
      "stateMutability": "view",
      "type": "function"
    },
    {
      "constant": true,
      "inputs": [],
      "name": "salt",
      "outputs": [
        {
          "internalType": "bytes32",
          "name": "",
          "type": "bytes32"
        }
      ],
      "payable": false,
      "stateMutability": "view",
      "type": "function"
    },
    {
      "constant": true,
      "inputs": [
        {
          "internalType": "address",
          "name": "identity",
          "type": "address"
        }
      ],
      "name": "showOwner",
      "outputs": [
        {
          "internalType": "address",
          "name": "",
          "type": "address"
        }
      ],
      "payable": false,
      "stateMutability": "view",
      "type": "function"
    },
    {
      "constant": true,
      "inputs": [],
      "name": "test",
      "outputs": [
        {
          "internalType": "string",
          "name": "",
          "type": "string"
        }
      ],
      "payable": false,
      "stateMutability": "view",
      "type": "function"
    },
    {
      "constant": true,
      "inputs": [
        {
          "internalType": "address",
          "name": "author",
          "type": "address"
        },
        {
          "internalType": "string",
          "name": "appName",
          "type": "string"
        },
        {
          "internalType": "string",
          "name": "description",
          "type": "string"
        },
        {
          "internalType": "string",
          "name": "downloadLink",
          "type": "string"
        },
        {
          "internalType": "address[]",
          "name": "supportedApp",
          "type": "address[]"
        },
        {
          "internalType": "bytes32",
          "name": "sigR",
          "type": "bytes32"
        },
        {
          "internalType": "bytes32",
          "name": "sigS",
          "type": "bytes32"
        },
        {
          "internalType": "uint8",
          "name": "sigV",
          "type": "uint8"
        }
      ],
      "name": "verifyApp",
      "outputs": [
        {
          "internalType": "bool",
          "name": "",
          "type": "bool"
        }
      ],
      "payable": false,
      "stateMutability": "view",
      "type": "function"
    },
    {
      "constant": true,
      "inputs": [],
      "name": "verifyingContract",
      "outputs": [
        {
          "internalType": "address",
          "name": "",
          "type": "address"
        }
      ],
      "payable": false,
      "stateMutability": "view",
      "type": "function"
    }
  ],
  "bytecode": "0x60806040523480156200001157600080fd5b506040516200230a3803806200230a8339818101604052620000379190810190620000d7565b816000806101000a81548173ffffffffffffffffffffffffffffffffffffffff021916908373ffffffffffffffffffffffffffffffffffffffff16021790555080600160006101000a81548173ffffffffffffffffffffffffffffffffffffffff021916908373ffffffffffffffffffffffffffffffffffffffff160217905550505062000166565b600081519050620000d1816200014c565b92915050565b60008060408385031215620000eb57600080fd5b6000620000fb85828601620000c0565b92505060206200010e85828601620000c0565b9150509250929050565b600062000125826200012c565b9050919050565b600073ffffffffffffffffffffffffffffffffffffffff82169050919050565b620001578162000118565b81146200016357600080fd5b50565b61219480620001766000396000f3fe608060405234801561001057600080fd5b50600436106101375760003560e01c80637b103999116100b8578063b3a278421161007c578063b3a278421461032c578063bfa0b1331461035c578063cbe8fea71461037a578063ee62ab4814610398578063f1e5ca71146103b6578063f8a8fd6d146103d457610137565b80637b103999146102985780637e69dae0146102b65780639a8a0592146102d4578063a4750bad146102f2578063a787d61b1461030e57610137565b806331b5849d116100ff57806331b5849d146101e0578063483a07d91461021057806355fba10214610240578063656651091461025e578063781f5a831461027c57610137565b806311b8ba5c1461013c5780631f19713e1461016c578063204669431461018857806325ef93c9146101a45780633090b074146101c2575b600080fd5b610156600480360361015191908101906115d6565b6103f2565b6040516101639190611c5a565b60405180910390f35b610186600480360361018191908101906116e8565b6104d3565b005b6101a2600480360361019d91908101906114bc565b61069d565b005b6101ac610aa0565b6040516101b99190611db2565b60405180910390f35b6101ca610ad9565b6040516101d79190611db2565b60405180910390f35b6101fa60048036036101f5919081019061151f565b610b12565b6040516102079190611c75565b60405180910390f35b61022a6004803603610225919081019061142e565b610bcb565b6040516102379190611afb565b60405180910390f35b610248610c7e565b6040516102559190611db2565b60405180910390f35b610266610cb7565b6040516102739190611c75565b60405180910390f35b61029660048036036102919190810190611480565b610cf7565b005b6102a0610e2a565b6040516102ad9190611d97565b60405180910390f35b6102be610e4f565b6040516102cb9190611df6565b60405180910390f35b6102dc610e5c565b6040516102e99190611df6565b60405180910390f35b61030c6004803603610307919081019061155b565b610e66565b005b610316610efe565b6040516103239190611afb565b60405180910390f35b610346600480360361034191908101906117b1565b610f16565b6040516103539190611afb565b60405180910390f35b610364610f57565b6040516103719190611c75565b60405180910390f35b610382610f7e565b60405161038f9190611db2565b60405180910390f35b6103a0610fb7565b6040516103ad9190611db2565b60405180910390f35b6103be610ff0565b6040516103cb9190611db2565b60405180910390f35b6103dc611029565b6040516103e99190611dd4565b60405180910390f35b60006103fc61122b565b6040518060a001604052808b73ffffffffffffffffffffffffffffffffffffffff1681526020018a815260200189815260200188815260200187815250905060016104468261106b565b848787604051600081526020016040526040516104669493929190611d52565b6020604051602081039080840390855afa158015610488573d6000803e3d6000fd5b5050506020604051035173ffffffffffffffffffffffffffffffffffffffff16816000015173ffffffffffffffffffffffffffffffffffffffff161491505098975050505050505050565b6000809054906101000a900473ffffffffffffffffffffffffffffffffffffffff1673ffffffffffffffffffffffffffffffffffffffff1663240cf1fa86868686306040518663ffffffff1660e01b8152600401610535959493929190611c07565b600060405180830381600087803b15801561054f57600080fd5b505af1158015610563573d6000803e3d6000fd5b505050506000600160028790806001815401808255809150509060018203906000526020600020016000909192909190916101000a81548173ffffffffffffffffffffffffffffffffffffffff021916908373ffffffffffffffffffffffffffffffffffffffff16021790555003905080600360008873ffffffffffffffffffffffffffffffffffffffff1673ffffffffffffffffffffffffffffffffffffffff1681526020019081526020016000208190555081600460008873ffffffffffffffffffffffffffffffffffffffff1673ffffffffffffffffffffffffffffffffffffffff16815260200190815260200160002060006101000a81548173ffffffffffffffffffffffffffffffffffffffff021916908373ffffffffffffffffffffffffffffffffffffffff160217905550505050505050565b6000809054906101000a900473ffffffffffffffffffffffffffffffffffffffff1673ffffffffffffffffffffffffffffffffffffffff16638733d4e8856040518263ffffffff1660e01b81526004016106f79190611afb565b60206040518083038186803b15801561070f57600080fd5b505afa158015610723573d6000803e3d6000fd5b505050506040513d601f19601f820116820180604052506107479190810190611457565b73ffffffffffffffffffffffffffffffffffffffff168373ffffffffffffffffffffffffffffffffffffffff16148061090f57506000809054906101000a900473ffffffffffffffffffffffffffffffffffffffff1673ffffffffffffffffffffffffffffffffffffffff1663622b2a3c6000809054906101000a900473ffffffffffffffffffffffffffffffffffffffff1673ffffffffffffffffffffffffffffffffffffffff16638733d4e8876040518263ffffffff1660e01b81526004016108129190611afb565b60206040518083038186803b15801561082a57600080fd5b505afa15801561083e573d6000803e3d6000fd5b505050506040513d601f19601f820116820180604052506108629190810190611457565b6040518060400160405280600581526020017f61646d696e00000000000000000000000000000000000000000000000000000081525080519060200120866040518463ffffffff1660e01b81526004016108be93929190611b4d565b60206040518083038186803b1580156108d657600080fd5b505afa1580156108ea573d6000803e3d6000fd5b505050506040513d601f19601f8201168201806040525061090e919081019061175f565b5b80610a0057506000809054906101000a900473ffffffffffffffffffffffffffffffffffffffff1673ffffffffffffffffffffffffffffffffffffffff1663622b2a3c856040518060400160405280600581526020017f61646d696e00000000000000000000000000000000000000000000000000000081525080519060200120866040518463ffffffff1660e01b81526004016109af93929190611b4d565b60206040518083038186803b1580156109c757600080fd5b505afa1580156109db573d6000803e3d6000fd5b505050506040513d601f19601f820116820180604052506109ff919081019061175f565b5b610a0957600080fd5b600160009054906101000a900473ffffffffffffffffffffffffffffffffffffffff1673ffffffffffffffffffffffffffffffffffffffff16639918925d8584846040518463ffffffff1660e01b8152600401610a6893929190611b84565b600060405180830381600087803b158015610a8257600080fd5b505af1158015610a96573d6000803e3d6000fd5b5050505050505050565b6040518060400160405280600381526020017f617070000000000000000000000000000000000000000000000000000000000081525081565b6040518060400160405280600c81526020017f6f7267616e697a6174696f6e000000000000000000000000000000000000000081525081565b6000600160009054906101000a900473ffffffffffffffffffffffffffffffffffffffff1673ffffffffffffffffffffffffffffffffffffffff1663e1661eff3085856040518463ffffffff1660e01b8152600401610b7393929190611b16565b60206040518083038186803b158015610b8b57600080fd5b505afa158015610b9f573d6000803e3d6000fd5b505050506040513d601f19601f82011682018060405250610bc39190810190611788565b905092915050565b60008060009054906101000a900473ffffffffffffffffffffffffffffffffffffffff1673ffffffffffffffffffffffffffffffffffffffff16638733d4e8836040518263ffffffff1660e01b8152600401610c279190611afb565b60206040518083038186803b158015610c3f57600080fd5b505afa158015610c53573d6000803e3d6000fd5b505050506040513d601f19601f82011682018060405250610c779190810190611457565b9050919050565b6040518060400160405280600a81526020017f61707056657273696f6e0000000000000000000000000000000000000000000081525081565b6040518060400160405280600581526020017f61646d696e0000000000000000000000000000000000000000000000000000008152508051906020012081565b6000600160028490806001815401808255809150509060018203906000526020600020016000909192909190916101000a81548173ffffffffffffffffffffffffffffffffffffffff021916908373ffffffffffffffffffffffffffffffffffffffff16021790555003905080600360008573ffffffffffffffffffffffffffffffffffffffff1673ffffffffffffffffffffffffffffffffffffffff1681526020019081526020016000208190555081600460008573ffffffffffffffffffffffffffffffffffffffff1673ffffffffffffffffffffffffffffffffffffffff16815260200190815260200160002060006101000a81548173ffffffffffffffffffffffffffffffffffffffff021916908373ffffffffffffffffffffffffffffffffffffffff160217905550505050565b6000809054906101000a900473ffffffffffffffffffffffffffffffffffffffff1681565b6000600280549050905090565b65016ffa9cf37281565b6000809054906101000a900473ffffffffffffffffffffffffffffffffffffffff1673ffffffffffffffffffffffffffffffffffffffff16637ad4b0a4858585856040518563ffffffff1660e01b8152600401610ec69493929190611bbb565b600060405180830381600087803b158015610ee057600080fd5b505af1158015610ef4573d6000803e3d6000fd5b5050505050505050565b731c56346cd2a2bf3202f771f50d3d14a367b4807081565b600060028281548110610f2557fe5b9060005260206000200160009054906101000a900473ffffffffffffffffffffffffffffffffffffffff169050919050565b7ff2d857f4a3edcb9b78b4d503bfe733db1e3f6cdc2b7971ee739626c97e86a55860001b81565b6040518060400160405280600481526020017f757365720000000000000000000000000000000000000000000000000000000081525081565b6040518060400160405280600381526020017f617069000000000000000000000000000000000000000000000000000000000081525081565b6040518060400160405280600a81526020017f61706956657273696f6e0000000000000000000000000000000000000000000081525081565b6060806040518060400160405280600381526020017f686579000000000000000000000000000000000000000000000000000000000081525090508091505090565b60006040518060800160405280605f81526020016120f3605f91396040516020016110969190611a83565b604051602081830303815290604052805190602001206040516110b890611ad1565b60405180910390206040516110cc90611ae6565b604051809103902065016ffa9cf372731c56346cd2a2bf3202f771f50d3d14a367b480707ff2d857f4a3edcb9b78b4d503bfe733db1e3f6cdc2b7971ee739626c97e86a55860001b60405160200161112996959493929190611cf1565b60405160208183030381529060405280519060200120604051806080016040528060608152602001612093606091396040516020016111689190611a83565b60405160208183030381529060405280519060200120836000015184602001518051906020012085604001518051906020012086606001518051906020012087608001516040516020016111bc9190611a6c565b604051602081830303815290604052805190602001206040516020016111e796959493929190611c90565b6040516020818303038152906040528051906020012060405160200161120e929190611a9a565b604051602081830303815290604052805190602001209050919050565b6040518060a00160405280600073ffffffffffffffffffffffffffffffffffffffff168152602001606081526020016060815260200160608152602001606081525090565b60008135905061127f8161201f565b92915050565b6000815190506112948161201f565b92915050565b600082601f8301126112ab57600080fd5b81356112be6112b982611e3e565b611e11565b915081818352602084019350602081019050838560208402820111156112e357600080fd5b60005b8381101561131357816112f98882611270565b8452602084019350602083019250506001810190506112e6565b5050505092915050565b60008151905061132c81612036565b92915050565b6000813590506113418161204d565b92915050565b6000815190506113568161204d565b92915050565b600082601f83011261136d57600080fd5b813561138061137b82611e66565b611e11565b9150808252602083016020830185838301111561139c57600080fd5b6113a7838284611fc2565b50505092915050565b600082601f8301126113c157600080fd5b81356113d46113cf82611e92565b611e11565b915080825260208301602083018583830111156113f057600080fd5b6113fb838284611fc2565b50505092915050565b60008135905061141381612064565b92915050565b6000813590506114288161207b565b92915050565b60006020828403121561144057600080fd5b600061144e84828501611270565b91505092915050565b60006020828403121561146957600080fd5b600061147784828501611285565b91505092915050565b6000806040838503121561149357600080fd5b60006114a185828601611270565b92505060206114b285828601611270565b9150509250929050565b600080600080608085870312156114d257600080fd5b60006114e087828801611270565b94505060206114f187828801611270565b935050604061150287828801611332565b925050606061151387828801611332565b91505092959194509250565b6000806040838503121561153257600080fd5b600061154085828601611270565b925050602061155185828601611332565b9150509250929050565b6000806000806080858703121561157157600080fd5b600061157f87828801611270565b945050602061159087828801611332565b935050604085013567ffffffffffffffff8111156115ad57600080fd5b6115b98782880161135c565b92505060606115ca87828801611404565b91505092959194509250565b600080600080600080600080610100898b0312156115f357600080fd5b60006116018b828c01611270565b985050602089013567ffffffffffffffff81111561161e57600080fd5b61162a8b828c016113b0565b975050604089013567ffffffffffffffff81111561164757600080fd5b6116538b828c016113b0565b965050606089013567ffffffffffffffff81111561167057600080fd5b61167c8b828c016113b0565b955050608089013567ffffffffffffffff81111561169957600080fd5b6116a58b828c0161129a565b94505060a06116b68b828c01611332565b93505060c06116c78b828c01611332565b92505060e06116d88b828c01611419565b9150509295985092959890939650565b600080600080600060a0868803121561170057600080fd5b600061170e88828901611270565b955050602061171f88828901611419565b945050604061173088828901611332565b935050606061174188828901611332565b925050608061175288828901611270565b9150509295509295909350565b60006020828403121561177157600080fd5b600061177f8482850161131d565b91505092915050565b60006020828403121561179a57600080fd5b60006117a884828501611347565b91505092915050565b6000602082840312156117c357600080fd5b60006117d184828501611404565b91505092915050565b60006117e68383611801565b60208301905092915050565b6117fb81611f3f565b82525050565b61180a81611f3f565b82525050565b600061181b82611ece565b6118258185611f07565b935061183083611ebe565b8060005b8381101561186157815161184888826117da565b975061185383611efa565b925050600181019050611834565b5085935050505092915050565b61187781611f51565b82525050565b61188681611f5d565b82525050565b61189d61189882611f5d565b612004565b82525050565b60006118ae82611ed9565b6118b88185611f12565b93506118c8818560208601611fd1565b6118d18161200e565b840191505092915050565b6118e581611f9e565b82525050565b60006118f682611eef565b6119008185611f23565b9350611910818560208601611fd1565b6119198161200e565b840191505092915050565b600061192f82611ee4565b6119398185611f23565b9350611949818560208601611fd1565b6119528161200e565b840191505092915050565b600061196882611ee4565b6119728185611f34565b9350611982818560208601611fd1565b80840191505092915050565b600061199b600283611f34565b91507f19010000000000000000000000000000000000000000000000000000000000006000830152600282019050919050565b60006119db601483611f34565b91507f4d61726b6574706c6163652052656769737472790000000000000000000000006000830152601482019050919050565b6000611a1b600183611f34565b91507f31000000000000000000000000000000000000000000000000000000000000006000830152600182019050919050565b611a5781611f87565b82525050565b611a6681611f91565b82525050565b6000611a788284611810565b915081905092915050565b6000611a8f828461195d565b915081905092915050565b6000611aa58261198e565b9150611ab1828561188c565b602082019150611ac1828461188c565b6020820191508190509392505050565b6000611adc826119ce565b9150819050919050565b6000611af182611a0e565b9150819050919050565b6000602082019050611b1060008301846117f2565b92915050565b6000606082019050611b2b60008301866117f2565b611b3860208301856117f2565b611b45604083018461187d565b949350505050565b6000606082019050611b6260008301866117f2565b611b6f602083018561187d565b611b7c60408301846117f2565b949350505050565b6000606082019050611b9960008301866117f2565b611ba6602083018561187d565b611bb3604083018461187d565b949350505050565b6000608082019050611bd060008301876117f2565b611bdd602083018661187d565b8181036040830152611bef81856118a3565b9050611bfe6060830184611a4e565b95945050505050565b600060a082019050611c1c60008301886117f2565b611c296020830187611a5d565b611c36604083018661187d565b611c43606083018561187d565b611c5060808301846117f2565b9695505050505050565b6000602082019050611c6f600083018461186e565b92915050565b6000602082019050611c8a600083018461187d565b92915050565b600060c082019050611ca5600083018961187d565b611cb260208301886117f2565b611cbf604083018761187d565b611ccc606083018661187d565b611cd9608083018561187d565b611ce660a083018461187d565b979650505050505050565b600060c082019050611d06600083018961187d565b611d13602083018861187d565b611d20604083018761187d565b611d2d6060830186611a4e565b611d3a60808301856117f2565b611d4760a083018461187d565b979650505050505050565b6000608082019050611d67600083018761187d565b611d746020830186611a5d565b611d81604083018561187d565b611d8e606083018461187d565b95945050505050565b6000602082019050611dac60008301846118dc565b92915050565b60006020820190508181036000830152611dcc8184611924565b905092915050565b60006020820190508181036000830152611dee81846118eb565b905092915050565b6000602082019050611e0b6000830184611a4e565b92915050565b6000604051905081810181811067ffffffffffffffff82111715611e3457600080fd5b8060405250919050565b600067ffffffffffffffff821115611e5557600080fd5b602082029050602081019050919050565b600067ffffffffffffffff821115611e7d57600080fd5b601f19601f8301169050602081019050919050565b600067ffffffffffffffff821115611ea957600080fd5b601f19601f8301169050602081019050919050565b6000819050602082019050919050565b600081519050919050565b600081519050919050565b600081519050919050565b600081519050919050565b6000602082019050919050565b600081905092915050565b600082825260208201905092915050565b600082825260208201905092915050565b600081905092915050565b6000611f4a82611f67565b9050919050565b60008115159050919050565b6000819050919050565b600073ffffffffffffffffffffffffffffffffffffffff82169050919050565b6000819050919050565b600060ff82169050919050565b6000611fa982611fb0565b9050919050565b6000611fbb82611f67565b9050919050565b82818337600083830152505050565b60005b83811015611fef578082015181840152602081019050611fd4565b83811115611ffe576000848401525b50505050565b6000819050919050565b6000601f19601f8301169050919050565b61202881611f3f565b811461203357600080fd5b50565b61203f81611f51565b811461204a57600080fd5b50565b61205681611f5d565b811461206157600080fd5b50565b61206d81611f87565b811461207857600080fd5b50565b61208481611f91565b811461208f57600080fd5b5056fe417070286164647265737320617574686f722c737472696e67206170704e616d652c737472696e67206465736372697074696f6e2c737472696e6720646f776e6c6f61644c696e6b2c616464726573735b5d20737570706f7274656441707029454950373132446f6d61696e28737472696e67206e616d652c737472696e672076657273696f6e2c75696e7432353620636861696e49642c6164647265737320766572696679696e67436f6e74726163742c627974657333322073616c7429a365627a7a723158205f106ba7c83ede8dc93ced7cfcb45b90928c04f04ca7abe7defe142f7240833a6c6578706572696d656e74616cf564736f6c634300050c0040",
  "source": "pragma experimental ABIEncoderV2;\npragma solidity ^0.5.12;\n\nimport \"./MarketPlaceBase.sol\";\n\ncontract MarketPlaceCore is MarketPlaceBase {\n\n  constructor(address _ethereumDIDRegistry, address _claimRegistry) public {\n      registry = EthereumDIDRegistryInterface(_ethereumDIDRegistry); \n      claimRegistry = ClaimRegistryInterface(_claimRegistry);\n  }\n\n}",
  "sourcePath": "/Users/Hai/Google Drive/KMS/01. Work/121. Vue/Vue_Truffle/contracts/MarketPlaceCore.sol",
  "compiler": {
    "name": "solc",
    "version": "0.5.12+commit.7709ece9.Emscripten.clang"
  },
  "schemaVersion": "3.0.11",
  "updatedAt": "2020-02-13T14:09:20.691Z",
  "devdoc": {
    "methods": {}
  },
  "userdoc": {
    "methods": {}
  }
}