{
  "contractName": "MarketPlaceBase",
  "abi": [
    {
      "constant": true,
      "inputs": [],
      "name": "DELEGATE_ADMIN",
      "outputs": [
        {
          "internalType": "bytes32",
          "name": "",
          "type": "bytes32"
        }
      ],
      "payable": false,
      "stateMutability": "view",
      "type": "function"
    },
    {
      "constant": true,
      "inputs": [],
      "name": "DELEGATE_MEMBER",
      "outputs": [
        {
          "internalType": "bytes32",
          "name": "",
          "type": "bytes32"
        }
      ],
      "payable": false,
      "stateMutability": "view",
      "type": "function"
    },
    {
      "constant": true,
      "inputs": [],
      "name": "TYPE_API",
      "outputs": [
        {
          "internalType": "string",
          "name": "",
          "type": "string"
        }
      ],
      "payable": false,
      "stateMutability": "view",
      "type": "function"
    },
    {
      "constant": true,
      "inputs": [],
      "name": "TYPE_APIVERSION",
      "outputs": [
        {
          "internalType": "string",
          "name": "",
          "type": "string"
        }
      ],
      "payable": false,
      "stateMutability": "view",
      "type": "function"
    },
    {
      "constant": true,
      "inputs": [],
      "name": "TYPE_APP",
      "outputs": [
        {
          "internalType": "string",
          "name": "",
          "type": "string"
        }
      ],
      "payable": false,
      "stateMutability": "view",
      "type": "function"
    },
    {
      "constant": true,
      "inputs": [],
      "name": "TYPE_APPVERSION",
      "outputs": [
        {
          "internalType": "string",
          "name": "",
          "type": "string"
        }
      ],
      "payable": false,
      "stateMutability": "view",
      "type": "function"
    },
    {
      "constant": true,
      "inputs": [],
      "name": "TYPE_ORGANIZATION",
      "outputs": [
        {
          "internalType": "string",
          "name": "",
          "type": "string"
        }
      ],
      "payable": false,
      "stateMutability": "view",
      "type": "function"
    },
    {
      "constant": true,
      "inputs": [],
      "name": "TYPE_USER",
      "outputs": [
        {
          "internalType": "string",
          "name": "",
          "type": "string"
        }
      ],
      "payable": false,
      "stateMutability": "view",
      "type": "function"
    },
    {
      "constant": true,
      "inputs": [],
      "name": "chainId",
      "outputs": [
        {
          "internalType": "uint256",
          "name": "",
          "type": "uint256"
        }
      ],
      "payable": false,
      "stateMutability": "view",
      "type": "function"
    },
    {
      "constant": true,
      "inputs": [],
      "name": "registry",
      "outputs": [
        {
          "internalType": "contract EthereumDIDRegistryInterface",
          "name": "",
          "type": "address"
        }
      ],
      "payable": false,
      "stateMutability": "view",
      "type": "function"
    },
    {
      "constant": true,
      "inputs": [],
      "name": "salt",
      "outputs": [
        {
          "internalType": "bytes32",
          "name": "",
          "type": "bytes32"
        }
      ],
      "payable": false,
      "stateMutability": "view",
      "type": "function"
    },
    {
      "constant": true,
      "inputs": [
        {
          "internalType": "address",
          "name": "owner",
          "type": "address"
        },
        {
          "internalType": "address",
          "name": "author",
          "type": "address"
        },
        {
          "internalType": "string",
          "name": "appName",
          "type": "string"
        },
        {
          "internalType": "string",
          "name": "description",
          "type": "string"
        },
        {
          "internalType": "address",
          "name": "issuer",
          "type": "address"
        },
        {
          "internalType": "string",
          "name": "downloadLink",
          "type": "string"
        },
        {
          "internalType": "bytes32",
          "name": "sigR",
          "type": "bytes32"
        },
        {
          "internalType": "bytes32",
          "name": "sigS",
          "type": "bytes32"
        },
        {
          "internalType": "uint8",
          "name": "sigV",
          "type": "uint8"
        }
      ],
      "name": "verifyApp",
      "outputs": [
        {
          "internalType": "bool",
          "name": "",
          "type": "bool"
        }
      ],
      "payable": false,
      "stateMutability": "view",
      "type": "function"
    },
    {
      "constant": true,
      "inputs": [],
      "name": "verifyingContract",
      "outputs": [
        {
          "internalType": "address",
          "name": "",
          "type": "address"
        }
      ],
      "payable": false,
      "stateMutability": "view",
      "type": "function"
    },
    {
      "constant": false,
      "inputs": [
        {
          "internalType": "address",
          "name": "identity",
          "type": "address"
        },
        {
          "internalType": "uint8",
          "name": "sigV",
          "type": "uint8"
        },
        {
          "internalType": "bytes32",
          "name": "sigR",
          "type": "bytes32"
        },
        {
          "internalType": "bytes32",
          "name": "sigS",
          "type": "bytes32"
        },
        {
          "internalType": "address",
          "name": "newOwner",
          "type": "address"
        }
      ],
      "name": "changeOwnerSigned",
      "outputs": [],
      "payable": false,
      "stateMutability": "nonpayable",
      "type": "function"
    },
    {
      "constant": false,
      "inputs": [
        {
          "internalType": "address",
          "name": "identity",
          "type": "address"
        },
        {
          "internalType": "bytes32",
          "name": "name",
          "type": "bytes32"
        },
        {
          "internalType": "bytes",
          "name": "value",
          "type": "bytes"
        },
        {
          "internalType": "uint256",
          "name": "validity",
          "type": "uint256"
        }
      ],
      "name": "registerEntity",
      "outputs": [],
      "payable": false,
      "stateMutability": "nonpayable",
      "type": "function"
    },
    {
      "constant": false,
      "inputs": [
        {
          "internalType": "address",
          "name": "identity",
          "type": "address"
        },
        {
          "internalType": "address",
          "name": "actor",
          "type": "address"
        },
        {
          "internalType": "bytes32",
          "name": "key",
          "type": "bytes32"
        },
        {
          "internalType": "bytes32",
          "name": "signature",
          "type": "bytes32"
        }
      ],
      "name": "_updateEntity",
      "outputs": [],
      "payable": false,
      "stateMutability": "nonpayable",
      "type": "function"
    },
    {
      "constant": true,
      "inputs": [
        {
          "internalType": "address",
          "name": "identity",
          "type": "address"
        },
        {
          "internalType": "bytes32",
          "name": "key",
          "type": "bytes32"
        }
      ],
      "name": "Test",
      "outputs": [
        {
          "internalType": "bytes32",
          "name": "",
          "type": "bytes32"
        }
      ],
      "payable": false,
      "stateMutability": "view",
      "type": "function"
    }
  ],
  "bytecode": "0x608060405234801561001057600080fd5b50611b51806100206000396000f3fe608060405234801561001057600080fd5b506004361061010b5760003560e01c806395fc38e8116100a2578063b9e4bf9b11610071578063b9e4bf9b14610296578063bfa0b133146102b4578063cbe8fea7146102d2578063ee62ab48146102f0578063f1e5ca711461030e5761010b565b806395fc38e81461020e5780639a8a05921461023e5780639d202b121461025c578063a787d61b146102785761010b565b806331b5849d116100de57806331b5849d1461018457806355fba102146101b457806365665109146101d25780637b103999146101f05761010b565b80632046694314610110578063240cf1fa1461012c57806325ef93c9146101485780633090b07414610166575b600080fd5b61012a60048036036101259190810190610fef565b61032c565b005b61014660048036036101419190810190611217565b61072f565b005b6101506107ca565b60405161015d91906117f1565b60405180910390f35b61016e610803565b60405161017b91906117f1565b60405180910390f35b61019e60048036036101999190810190611160565b61083c565b6040516101ab91906116a6565b60405180910390f35b6101bc6108f5565b6040516101c991906117f1565b60405180910390f35b6101da61092e565b6040516101e791906116a6565b60405180910390f35b6101f861096e565b60405161020591906117d6565b60405180910390f35b61022860048036036102239190810190611052565b610993565b604051610235919061168b565b60405180910390f35b610246610aa7565b6040516102539190611813565b60405180910390f35b6102766004803603610271919081019061119c565b610ab1565b005b610280610b49565b60405161028d919061152c565b60405180910390f35b61029e610b61565b6040516102ab91906116a6565b60405180910390f35b6102bc610ba1565b6040516102c991906116a6565b60405180910390f35b6102da610bc8565b6040516102e791906117f1565b60405180910390f35b6102f8610c01565b60405161030591906117f1565b60405180910390f35b610316610c3a565b60405161032391906117f1565b60405180910390f35b6000809054906101000a900473ffffffffffffffffffffffffffffffffffffffff1673ffffffffffffffffffffffffffffffffffffffff16638733d4e8856040518263ffffffff1660e01b8152600401610386919061152c565b60206040518083038186803b15801561039e57600080fd5b505afa1580156103b2573d6000803e3d6000fd5b505050506040513d601f19601f820116820180604052506103d69190810190610fc6565b73ffffffffffffffffffffffffffffffffffffffff168373ffffffffffffffffffffffffffffffffffffffff16148061059e57506000809054906101000a900473ffffffffffffffffffffffffffffffffffffffff1673ffffffffffffffffffffffffffffffffffffffff1663622b2a3c6000809054906101000a900473ffffffffffffffffffffffffffffffffffffffff1673ffffffffffffffffffffffffffffffffffffffff16638733d4e8876040518263ffffffff1660e01b81526004016104a1919061152c565b60206040518083038186803b1580156104b957600080fd5b505afa1580156104cd573d6000803e3d6000fd5b505050506040513d601f19601f820116820180604052506104f19190810190610fc6565b6040518060400160405280600581526020017f61646d696e00000000000000000000000000000000000000000000000000000081525080519060200120866040518463ffffffff1660e01b815260040161054d9392919061157e565b60206040518083038186803b15801561056557600080fd5b505afa158015610579573d6000803e3d6000fd5b505050506040513d601f19601f8201168201806040525061059d919081019061128e565b5b8061068f57506000809054906101000a900473ffffffffffffffffffffffffffffffffffffffff1673ffffffffffffffffffffffffffffffffffffffff1663622b2a3c856040518060400160405280600581526020017f61646d696e00000000000000000000000000000000000000000000000000000081525080519060200120866040518463ffffffff1660e01b815260040161063e9392919061157e565b60206040518083038186803b15801561065657600080fd5b505afa15801561066a573d6000803e3d6000fd5b505050506040513d601f19601f8201168201806040525061068e919081019061128e565b5b61069857600080fd5b600160009054906101000a900473ffffffffffffffffffffffffffffffffffffffff1673ffffffffffffffffffffffffffffffffffffffff16639918925d8584846040518463ffffffff1660e01b81526004016106f7939291906115b5565b600060405180830381600087803b15801561071157600080fd5b505af1158015610725573d6000803e3d6000fd5b5050505050505050565b6000809054906101000a900473ffffffffffffffffffffffffffffffffffffffff1673ffffffffffffffffffffffffffffffffffffffff1663240cf1fa86868686866040518663ffffffff1660e01b8152600401610791959493929190611638565b600060405180830381600087803b1580156107ab57600080fd5b505af11580156107bf573d6000803e3d6000fd5b505050505050505050565b6040518060400160405280600381526020017f617070000000000000000000000000000000000000000000000000000000000081525081565b6040518060400160405280600c81526020017f6f7267616e697a6174696f6e000000000000000000000000000000000000000081525081565b6000600160009054906101000a900473ffffffffffffffffffffffffffffffffffffffff1673ffffffffffffffffffffffffffffffffffffffff1663e1661eff3085856040518463ffffffff1660e01b815260040161089d93929190611547565b60206040518083038186803b1580156108b557600080fd5b505afa1580156108c9573d6000803e3d6000fd5b505050506040513d601f19601f820116820180604052506108ed91908101906112b7565b905092915050565b6040518060400160405280600a81526020017f61707056657273696f6e0000000000000000000000000000000000000000000081525081565b6040518060400160405280600581526020017f61646d696e0000000000000000000000000000000000000000000000000000008152508051906020012081565b6000809054906101000a900473ffffffffffffffffffffffffffffffffffffffff1681565b600061099d610e13565b6040518060c001604052808c73ffffffffffffffffffffffffffffffffffffffff1681526020018b73ffffffffffffffffffffffffffffffffffffffff1681526020018a81526020018981526020018873ffffffffffffffffffffffffffffffffffffffff1681526020018781525090506001610a1982610c73565b84878760405160008152602001604052604051610a399493929190611791565b6020604051602081039080840390855afa158015610a5b573d6000803e3d6000fd5b5050506020604051035173ffffffffffffffffffffffffffffffffffffffff16816020015173ffffffffffffffffffffffffffffffffffffffff16149150509998505050505050505050565b65016ead397a2881565b6000809054906101000a900473ffffffffffffffffffffffffffffffffffffffff1673ffffffffffffffffffffffffffffffffffffffff16637ad4b0a4858585856040518563ffffffff1660e01b8152600401610b1194939291906115ec565b600060405180830381600087803b158015610b2b57600080fd5b505af1158015610b3f573d6000803e3d6000fd5b5050505050505050565b731c56346cd2a2bf3202f771f50d3d14a367b4807081565b6040518060400160405280600681526020017f6d656d62657200000000000000000000000000000000000000000000000000008152508051906020012081565b7ff2d857f4a3edcb9b78b4d503bfe733db1e3f6cdc2b7971ee739626c97e86a55860001b81565b6040518060400160405280600481526020017f757365720000000000000000000000000000000000000000000000000000000081525081565b6040518060400160405280600381526020017f617069000000000000000000000000000000000000000000000000000000000081525081565b6040518060400160405280600a81526020017f61706956657273696f6e0000000000000000000000000000000000000000000081525081565b60006040518060800160405280605f8152602001611ab0605f9139604051602001610c9e91906114b4565b60405160208183030381529060405280519060200120604051610cc090611502565b6040518091039020604051610cd490611517565b604051809103902065016ead397a28731c56346cd2a2bf3202f771f50d3d14a367b480707ff2d857f4a3edcb9b78b4d503bfe733db1e3f6cdc2b7971ee739626c97e86a55860001b604051602001610d3196959493929190611730565b604051602081830303815290604052805190602001206040518060a0016040528060668152602001611a4a60669139604051602001610d7091906114b4565b604051602081830303815290604052805190602001208360000151846020015185604001518051906020012086606001518051906020012087608001518860a0015180519060200120604051602001610dcf97969594939291906116c1565b60405160208183030381529060405280519060200120604051602001610df69291906114cb565b604051602081830303815290604052805190602001209050919050565b6040518060c00160405280600073ffffffffffffffffffffffffffffffffffffffff168152602001600073ffffffffffffffffffffffffffffffffffffffff1681526020016060815260200160608152602001600073ffffffffffffffffffffffffffffffffffffffff168152602001606081525090565b600081359050610e9a816119d6565b92915050565b600081519050610eaf816119d6565b92915050565b600081519050610ec4816119ed565b92915050565b600081359050610ed981611a04565b92915050565b600081519050610eee81611a04565b92915050565b600082601f830112610f0557600080fd5b8135610f18610f138261185b565b61182e565b91508082526020830160208301858383011115610f3457600080fd5b610f3f838284611979565b50505092915050565b600082601f830112610f5957600080fd5b8135610f6c610f6782611887565b61182e565b91508082526020830160208301858383011115610f8857600080fd5b610f93838284611979565b50505092915050565b600081359050610fab81611a1b565b92915050565b600081359050610fc081611a32565b92915050565b600060208284031215610fd857600080fd5b6000610fe684828501610ea0565b91505092915050565b6000806000806080858703121561100557600080fd5b600061101387828801610e8b565b945050602061102487828801610e8b565b935050604061103587828801610eca565b925050606061104687828801610eca565b91505092959194509250565b60008060008060008060008060006101208a8c03121561107157600080fd5b600061107f8c828d01610e8b565b99505060206110908c828d01610e8b565b98505060408a013567ffffffffffffffff8111156110ad57600080fd5b6110b98c828d01610f48565b97505060608a013567ffffffffffffffff8111156110d657600080fd5b6110e28c828d01610f48565b96505060806110f38c828d01610e8b565b95505060a08a013567ffffffffffffffff81111561111057600080fd5b61111c8c828d01610f48565b94505060c061112d8c828d01610eca565b93505060e061113e8c828d01610eca565b9250506101006111508c828d01610fb1565b9150509295985092959850929598565b6000806040838503121561117357600080fd5b600061118185828601610e8b565b925050602061119285828601610eca565b9150509250929050565b600080600080608085870312156111b257600080fd5b60006111c087828801610e8b565b94505060206111d187828801610eca565b935050604085013567ffffffffffffffff8111156111ee57600080fd5b6111fa87828801610ef4565b925050606061120b87828801610f9c565b91505092959194509250565b600080600080600060a0868803121561122f57600080fd5b600061123d88828901610e8b565b955050602061124e88828901610fb1565b945050604061125f88828901610eca565b935050606061127088828901610eca565b925050608061128188828901610e8b565b9150509295509295909350565b6000602082840312156112a057600080fd5b60006112ae84828501610eb5565b91505092915050565b6000602082840312156112c957600080fd5b60006112d784828501610edf565b91505092915050565b6112e9816118f6565b82525050565b6112f881611908565b82525050565b61130781611914565b82525050565b61131e61131982611914565b6119bb565b82525050565b600061132f826118b3565b61133981856118c9565b9350611349818560208601611988565b611352816119c5565b840191505092915050565b61136681611955565b82525050565b6000611377826118be565b61138181856118da565b9350611391818560208601611988565b61139a816119c5565b840191505092915050565b60006113b0826118be565b6113ba81856118eb565b93506113ca818560208601611988565b80840191505092915050565b60006113e36002836118eb565b91507f19010000000000000000000000000000000000000000000000000000000000006000830152600282019050919050565b60006114236014836118eb565b91507f4d61726b6574706c6163652052656769737472790000000000000000000000006000830152601482019050919050565b60006114636001836118eb565b91507f31000000000000000000000000000000000000000000000000000000000000006000830152600182019050919050565b61149f8161193e565b82525050565b6114ae81611948565b82525050565b60006114c082846113a5565b915081905092915050565b60006114d6826113d6565b91506114e2828561130d565b6020820191506114f2828461130d565b6020820191508190509392505050565b600061150d82611416565b9150819050919050565b600061152282611456565b9150819050919050565b600060208201905061154160008301846112e0565b92915050565b600060608201905061155c60008301866112e0565b61156960208301856112e0565b61157660408301846112fe565b949350505050565b600060608201905061159360008301866112e0565b6115a060208301856112fe565b6115ad60408301846112e0565b949350505050565b60006060820190506115ca60008301866112e0565b6115d760208301856112fe565b6115e460408301846112fe565b949350505050565b600060808201905061160160008301876112e0565b61160e60208301866112fe565b81810360408301526116208185611324565b905061162f6060830184611496565b95945050505050565b600060a08201905061164d60008301886112e0565b61165a60208301876114a5565b61166760408301866112fe565b61167460608301856112fe565b61168160808301846112e0565b9695505050505050565b60006020820190506116a060008301846112ef565b92915050565b60006020820190506116bb60008301846112fe565b92915050565b600060e0820190506116d6600083018a6112fe565b6116e360208301896112e0565b6116f060408301886112e0565b6116fd60608301876112fe565b61170a60808301866112fe565b61171760a08301856112e0565b61172460c08301846112fe565b98975050505050505050565b600060c08201905061174560008301896112fe565b61175260208301886112fe565b61175f60408301876112fe565b61176c6060830186611496565b61177960808301856112e0565b61178660a08301846112fe565b979650505050505050565b60006080820190506117a660008301876112fe565b6117b360208301866114a5565b6117c060408301856112fe565b6117cd60608301846112fe565b95945050505050565b60006020820190506117eb600083018461135d565b92915050565b6000602082019050818103600083015261180b818461136c565b905092915050565b60006020820190506118286000830184611496565b92915050565b6000604051905081810181811067ffffffffffffffff8211171561185157600080fd5b8060405250919050565b600067ffffffffffffffff82111561187257600080fd5b601f19601f8301169050602081019050919050565b600067ffffffffffffffff82111561189e57600080fd5b601f19601f8301169050602081019050919050565b600081519050919050565b600081519050919050565b600082825260208201905092915050565b600082825260208201905092915050565b600081905092915050565b60006119018261191e565b9050919050565b60008115159050919050565b6000819050919050565b600073ffffffffffffffffffffffffffffffffffffffff82169050919050565b6000819050919050565b600060ff82169050919050565b600061196082611967565b9050919050565b60006119728261191e565b9050919050565b82818337600083830152505050565b60005b838110156119a657808201518184015260208101905061198b565b838111156119b5576000848401525b50505050565b6000819050919050565b6000601f19601f8301169050919050565b6119df816118f6565b81146119ea57600080fd5b50565b6119f681611908565b8114611a0157600080fd5b50565b611a0d81611914565b8114611a1857600080fd5b50565b611a248161193e565b8114611a2f57600080fd5b50565b611a3b81611948565b8114611a4657600080fd5b5056fe4170702861646472657373206f776e65722c6164647265737320617574686f722c737472696e67206170704e616d652c737472696e67206465736372697074696f6e2c61646472657373206973737565722c737472696e6720646f776e6c6f61644c696e6b29454950373132446f6d61696e28737472696e67206e616d652c737472696e672076657273696f6e2c75696e7432353620636861696e49642c6164647265737320766572696679696e67436f6e74726163742c627974657333322073616c7429a365627a7a72315820971279ac75a8533267ad8d6def908664a93acf19dcdbbc1ae534ab7a2b9dd7fb6c6578706572696d656e74616cf564736f6c634300050c0040",
  "source": "pragma experimental ABIEncoderV2;\npragma solidity ^0.5.12;\n\nimport \"./EthereumDIDRegistryInterface.sol\";\nimport \"./Verifier.sol\";\nimport \"./ClaimRegistryInterface.sol\";\n\ncontract MarketPlaceBase is Verifier{\n\n    EthereumDIDRegistryInterface public registry;\n    ClaimRegistryInterface claimRegistry; \n\n  string public constant TYPE_APP =\"app\";\n  string public constant TYPE_API = \"api\";\n  string public constant TYPE_ORGANIZATION = \"organization\";\n  string public constant TYPE_USER = \"user\";\n  string public constant TYPE_APPVERSION = \"appVersion\";\n  string public constant TYPE_APIVERSION = \"apiVersion\"; \n  bytes32 public constant DELEGATE_ADMIN = keccak256(bytes(\"admin\"));\n  bytes32 public constant DELEGATE_MEMBER = keccak256(bytes(\"member\"));\n\n  // This holds all organization, app and api IDs registered in the marketplace \n  address[] entity; \n\n  // This maps the owner of entity to the respective entity. because ownership is transferred to the marketplace, the owner needs to be specified here. The ownership is being transferred, so delegates and other dudes can write to the DECENTRALIZED RESSOURCE RECORDS, or the ERC 1056 data storage. \n  mapping(uint256 => address) EntityIndexToOwner; \n  mapping(address => uint) entityOwner; \n\n  function changeOwnerSigned(address identity, uint8 sigV, bytes32 sigR, bytes32 sigS, address newOwner ) public{\n    registry.changeOwnerSigned(identity, sigV, sigR, sigS, newOwner);\n  }\n\n  function registerEntity(address identity, bytes32 name, bytes memory value, uint validity) public {\n      registry.setAttribute(identity, name, value, validity);\n      // entity.push(identity); \n      // EntityIndexToOwner[entity.length -1] = msg.sender; \n  }\n\n  // Ownership is handled in ERC1056\n  // Marketplace Logic in here. \n  \n  // registers Entity to ERC780 \n  function _updateEntity(address identity, address actor,bytes32 key, bytes32 signature) public {\n      require( actor == registry.identityOwner(identity) || \n                registry.validDelegate(registry.identityOwner(identity), DELEGATE_ADMIN, actor) ||\n                registry.validDelegate(identity, DELEGATE_ADMIN, actor)\n              );\n\n      // set the Hash, /app/version \n      claimRegistry.setClaim(identity, key , signature);  \n  }\n\n  // registers Entity to ERC1056 \n/*   function _updateEntityERC1056() public {\n      require( actor == registry.identityOwner(identity) || \n                registry.validDelegate(registry.identityOwner(identity), DELEGATE_ADMIN, actor) ||\n                registry.validDelegate(identity, DELEGATE_ADMIN, actor)\n              );\n  } */\n\n\n\n  function Test(address identity, bytes32 key) public view returns (bytes32) {\n    return claimRegistry.getClaim(address(this), identity, key); \n  }\n\n  function _deleteEntity() internal {\n\n  }\n    \n    /* uint256 constant chainId = 1573916018149;\n    address constant verifyingContract = 0x1C56346CD2A2Bf3202F771f50d3D14a367B48070;\n    bytes32 constant salt = 0x77a604b8f7c68ecb34d6df338028f7fad929e2a3c98c72b3a1243f1d4dfac9b1;\n\n    string private constant EIP712_DOMAIN  = \"EIP712Domain(string name,string version,uint256 chainId,address verifyingContract,bytes32 salt)\";\n\n    bytes32 private constant EIP712_DOMAIN_TYPEHASH = keccak256(abi.encodePacked(EIP712_DOMAIN));\n\n    bytes32 private constant DOMAIN_SEPARATOR = keccak256(abi.encode(\n        EIP712_DOMAIN_TYPEHASH,\n        keccak256(\"My amazing dApp\"),\n        keccak256(\"2\"),\n        chainId,\n        verifyingContract,\n        salt\n    )); */\n\n}",
  "sourcePath": "/Users/Hai/Google Drive/KMS/01. Work/121. Vue/Vue_Truffle/contracts/MarketPlaceBase.sol",
  "compiler": {
    "name": "solc",
    "version": "0.5.12+commit.7709ece9.Emscripten.clang"
  },
  "schemaVersion": "3.0.11",
  "updatedAt": "2020-01-28T14:57:50.582Z",
  "devdoc": {
    "methods": {}
  },
  "userdoc": {
    "methods": {}
  }
}