{
  "contractName": "MarketPlaceCore",
  "abi": [
    {
      "inputs": [
        {
          "internalType": "address",
          "name": "_ethereumDIDRegistry",
          "type": "address"
        },
        {
          "internalType": "address",
          "name": "_claimRegistry",
          "type": "address"
        }
      ],
      "payable": false,
      "stateMutability": "nonpayable",
      "type": "constructor"
    },
    {
      "constant": true,
      "inputs": [],
      "name": "DELEGATE_ADMIN",
      "outputs": [
        {
          "internalType": "bytes32",
          "name": "",
          "type": "bytes32"
        }
      ],
      "payable": false,
      "stateMutability": "view",
      "type": "function"
    },
    {
      "constant": true,
      "inputs": [],
      "name": "DELEGATE_MEMBER",
      "outputs": [
        {
          "internalType": "bytes32",
          "name": "",
          "type": "bytes32"
        }
      ],
      "payable": false,
      "stateMutability": "view",
      "type": "function"
    },
    {
      "constant": true,
      "inputs": [],
      "name": "TYPE_API",
      "outputs": [
        {
          "internalType": "string",
          "name": "",
          "type": "string"
        }
      ],
      "payable": false,
      "stateMutability": "view",
      "type": "function"
    },
    {
      "constant": true,
      "inputs": [],
      "name": "TYPE_APIVERSION",
      "outputs": [
        {
          "internalType": "string",
          "name": "",
          "type": "string"
        }
      ],
      "payable": false,
      "stateMutability": "view",
      "type": "function"
    },
    {
      "constant": true,
      "inputs": [],
      "name": "TYPE_APP",
      "outputs": [
        {
          "internalType": "string",
          "name": "",
          "type": "string"
        }
      ],
      "payable": false,
      "stateMutability": "view",
      "type": "function"
    },
    {
      "constant": true,
      "inputs": [],
      "name": "TYPE_APPVERSION",
      "outputs": [
        {
          "internalType": "string",
          "name": "",
          "type": "string"
        }
      ],
      "payable": false,
      "stateMutability": "view",
      "type": "function"
    },
    {
      "constant": true,
      "inputs": [],
      "name": "TYPE_ORGANIZATION",
      "outputs": [
        {
          "internalType": "string",
          "name": "",
          "type": "string"
        }
      ],
      "payable": false,
      "stateMutability": "view",
      "type": "function"
    },
    {
      "constant": true,
      "inputs": [],
      "name": "TYPE_USER",
      "outputs": [
        {
          "internalType": "string",
          "name": "",
          "type": "string"
        }
      ],
      "payable": false,
      "stateMutability": "view",
      "type": "function"
    },
    {
      "constant": true,
      "inputs": [
        {
          "internalType": "address",
          "name": "identity",
          "type": "address"
        },
        {
          "internalType": "bytes32",
          "name": "key",
          "type": "bytes32"
        }
      ],
      "name": "Test",
      "outputs": [
        {
          "internalType": "bytes32",
          "name": "",
          "type": "bytes32"
        }
      ],
      "payable": false,
      "stateMutability": "view",
      "type": "function"
    },
    {
      "constant": false,
      "inputs": [
        {
          "internalType": "address",
          "name": "identity",
          "type": "address"
        },
        {
          "internalType": "address",
          "name": "actor",
          "type": "address"
        },
        {
          "internalType": "bytes32",
          "name": "key",
          "type": "bytes32"
        },
        {
          "internalType": "bytes32",
          "name": "signature",
          "type": "bytes32"
        }
      ],
      "name": "_updateEntity",
      "outputs": [],
      "payable": false,
      "stateMutability": "nonpayable",
      "type": "function"
    },
    {
      "constant": true,
      "inputs": [],
      "name": "chainId",
      "outputs": [
        {
          "internalType": "uint256",
          "name": "",
          "type": "uint256"
        }
      ],
      "payable": false,
      "stateMutability": "view",
      "type": "function"
    },
    {
      "constant": false,
      "inputs": [
        {
          "internalType": "address",
          "name": "identity",
          "type": "address"
        },
        {
          "internalType": "uint8",
          "name": "sigV",
          "type": "uint8"
        },
        {
          "internalType": "bytes32",
          "name": "sigR",
          "type": "bytes32"
        },
        {
          "internalType": "bytes32",
          "name": "sigS",
          "type": "bytes32"
        },
        {
          "internalType": "address",
          "name": "newOwner",
          "type": "address"
        }
      ],
      "name": "registerEntity",
      "outputs": [],
      "payable": false,
      "stateMutability": "nonpayable",
      "type": "function"
    },
    {
      "constant": true,
      "inputs": [],
      "name": "registry",
      "outputs": [
        {
          "internalType": "contract EthereumDIDRegistryInterface",
          "name": "",
          "type": "address"
        }
      ],
      "payable": false,
      "stateMutability": "view",
      "type": "function"
    },
    {
      "constant": true,
      "inputs": [],
      "name": "salt",
      "outputs": [
        {
          "internalType": "bytes32",
          "name": "",
          "type": "bytes32"
        }
      ],
      "payable": false,
      "stateMutability": "view",
      "type": "function"
    },
    {
      "constant": true,
      "inputs": [
        {
          "internalType": "address",
          "name": "owner",
          "type": "address"
        },
        {
          "internalType": "address",
          "name": "author",
          "type": "address"
        },
        {
          "internalType": "string",
          "name": "appName",
          "type": "string"
        },
        {
          "internalType": "string",
          "name": "description",
          "type": "string"
        },
        {
          "internalType": "address",
          "name": "issuer",
          "type": "address"
        },
        {
          "internalType": "string",
          "name": "downloadLink",
          "type": "string"
        },
        {
          "internalType": "bytes32",
          "name": "sigR",
          "type": "bytes32"
        },
        {
          "internalType": "bytes32",
          "name": "sigS",
          "type": "bytes32"
        },
        {
          "internalType": "uint8",
          "name": "sigV",
          "type": "uint8"
        }
      ],
      "name": "verifyApp",
      "outputs": [
        {
          "internalType": "bool",
          "name": "",
          "type": "bool"
        }
      ],
      "payable": false,
      "stateMutability": "view",
      "type": "function"
    },
    {
      "constant": true,
      "inputs": [],
      "name": "verifyingContract",
      "outputs": [
        {
          "internalType": "address",
          "name": "",
          "type": "address"
        }
      ],
      "payable": false,
      "stateMutability": "view",
      "type": "function"
    }
  ],
  "bytecode": "0x60806040523480156200001157600080fd5b5060405162001a4038038062001a408339818101604052620000379190810190620000d7565b816000806101000a81548173ffffffffffffffffffffffffffffffffffffffff021916908373ffffffffffffffffffffffffffffffffffffffff16021790555080600160006101000a81548173ffffffffffffffffffffffffffffffffffffffff021916908373ffffffffffffffffffffffffffffffffffffffff160217905550505062000166565b600081519050620000d1816200014c565b92915050565b60008060408385031215620000eb57600080fd5b6000620000fb85828601620000c0565b92505060206200010e85828601620000c0565b9150509250929050565b600062000125826200012c565b9050919050565b600073ffffffffffffffffffffffffffffffffffffffff82169050919050565b620001578162000118565b81146200016357600080fd5b50565b6118ca80620001766000396000f3fe608060405234801561001057600080fd5b50600436106101005760003560e01c806395fc38e811610097578063bfa0b13311610066578063bfa0b1331461028d578063cbe8fea7146102ab578063ee62ab48146102c9578063f1e5ca71146102e757610100565b806395fc38e8146102035780639a8a059214610233578063a787d61b14610251578063b9e4bf9b1461026f57610100565b806331b5849d116100d357806331b5849d1461017957806355fba102146101a957806365665109146101c75780637b103999146101e557610100565b80631f19713e14610105578063204669431461012157806325ef93c91461013d5780633090b0741461015b575b600080fd5b61011f600480360361011a9190810190611074565b610305565b005b61013b60048036036101369190810190610ec7565b6103a0565b005b6101456107a3565b60405161015291906115c9565b60405180910390f35b6101636107dc565b60405161017091906115c9565b60405180910390f35b610193600480360361018e9190810190611038565b610815565b6040516101a0919061147e565b60405180910390f35b6101b16108ce565b6040516101be91906115c9565b60405180910390f35b6101cf610907565b6040516101dc919061147e565b60405180910390f35b6101ed610947565b6040516101fa91906115ae565b60405180910390f35b61021d60048036036102189190810190610f2a565b61096c565b60405161022a9190611463565b60405180910390f35b61023b610a80565b60405161024891906115eb565b60405180910390f35b610259610a8a565b6040516102669190611350565b60405180910390f35b610277610aa2565b604051610284919061147e565b60405180910390f35b610295610ae2565b6040516102a2919061147e565b60405180910390f35b6102b3610b09565b6040516102c091906115c9565b60405180910390f35b6102d1610b42565b6040516102de91906115c9565b60405180910390f35b6102ef610b7b565b6040516102fc91906115c9565b60405180910390f35b6000809054906101000a900473ffffffffffffffffffffffffffffffffffffffff1673ffffffffffffffffffffffffffffffffffffffff1663240cf1fa86868686866040518663ffffffff1660e01b8152600401610367959493929190611410565b600060405180830381600087803b15801561038157600080fd5b505af1158015610395573d6000803e3d6000fd5b505050505050505050565b6000809054906101000a900473ffffffffffffffffffffffffffffffffffffffff1673ffffffffffffffffffffffffffffffffffffffff16638733d4e8856040518263ffffffff1660e01b81526004016103fa9190611350565b60206040518083038186803b15801561041257600080fd5b505afa158015610426573d6000803e3d6000fd5b505050506040513d601f19601f8201168201806040525061044a9190810190610e9e565b73ffffffffffffffffffffffffffffffffffffffff168373ffffffffffffffffffffffffffffffffffffffff16148061061257506000809054906101000a900473ffffffffffffffffffffffffffffffffffffffff1673ffffffffffffffffffffffffffffffffffffffff1663622b2a3c6000809054906101000a900473ffffffffffffffffffffffffffffffffffffffff1673ffffffffffffffffffffffffffffffffffffffff16638733d4e8876040518263ffffffff1660e01b81526004016105159190611350565b60206040518083038186803b15801561052d57600080fd5b505afa158015610541573d6000803e3d6000fd5b505050506040513d601f19601f820116820180604052506105659190810190610e9e565b6040518060400160405280600581526020017f61646d696e00000000000000000000000000000000000000000000000000000081525080519060200120866040518463ffffffff1660e01b81526004016105c1939291906113a2565b60206040518083038186803b1580156105d957600080fd5b505afa1580156105ed573d6000803e3d6000fd5b505050506040513d601f19601f8201168201806040525061061191908101906110eb565b5b8061070357506000809054906101000a900473ffffffffffffffffffffffffffffffffffffffff1673ffffffffffffffffffffffffffffffffffffffff1663622b2a3c856040518060400160405280600581526020017f61646d696e00000000000000000000000000000000000000000000000000000081525080519060200120866040518463ffffffff1660e01b81526004016106b2939291906113a2565b60206040518083038186803b1580156106ca57600080fd5b505afa1580156106de573d6000803e3d6000fd5b505050506040513d601f19601f8201168201806040525061070291908101906110eb565b5b61070c57600080fd5b600160009054906101000a900473ffffffffffffffffffffffffffffffffffffffff1673ffffffffffffffffffffffffffffffffffffffff16639918925d8584846040518463ffffffff1660e01b815260040161076b939291906113d9565b600060405180830381600087803b15801561078557600080fd5b505af1158015610799573d6000803e3d6000fd5b5050505050505050565b6040518060400160405280600381526020017f617070000000000000000000000000000000000000000000000000000000000081525081565b6040518060400160405280600c81526020017f6f7267616e697a6174696f6e000000000000000000000000000000000000000081525081565b6000600160009054906101000a900473ffffffffffffffffffffffffffffffffffffffff1673ffffffffffffffffffffffffffffffffffffffff1663e1661eff3085856040518463ffffffff1660e01b81526004016108769392919061136b565b60206040518083038186803b15801561088e57600080fd5b505afa1580156108a2573d6000803e3d6000fd5b505050506040513d601f19601f820116820180604052506108c69190810190611114565b905092915050565b6040518060400160405280600a81526020017f61707056657273696f6e0000000000000000000000000000000000000000000081525081565b6040518060400160405280600581526020017f61646d696e0000000000000000000000000000000000000000000000000000008152508051906020012081565b6000809054906101000a900473ffffffffffffffffffffffffffffffffffffffff1681565b6000610976610d54565b6040518060c001604052808c73ffffffffffffffffffffffffffffffffffffffff1681526020018b73ffffffffffffffffffffffffffffffffffffffff1681526020018a81526020018981526020018873ffffffffffffffffffffffffffffffffffffffff16815260200187815250905060016109f282610bb4565b84878760405160008152602001604052604051610a129493929190611569565b6020604051602081039080840390855afa158015610a34573d6000803e3d6000fd5b5050506020604051035173ffffffffffffffffffffffffffffffffffffffff16816020015173ffffffffffffffffffffffffffffffffffffffff16149150509998505050505050505050565b65016ead397a2881565b731c56346cd2a2bf3202f771f50d3d14a367b4807081565b6040518060400160405280600681526020017f6d656d62657200000000000000000000000000000000000000000000000000008152508051906020012081565b7ff2d857f4a3edcb9b78b4d503bfe733db1e3f6cdc2b7971ee739626c97e86a55860001b81565b6040518060400160405280600481526020017f757365720000000000000000000000000000000000000000000000000000000081525081565b6040518060400160405280600381526020017f617069000000000000000000000000000000000000000000000000000000000081525081565b6040518060400160405280600a81526020017f61706956657273696f6e0000000000000000000000000000000000000000000081525081565b60006040518060800160405280605f8152602001611829605f9139604051602001610bdf91906112d8565b60405160208183030381529060405280519060200120604051610c0190611326565b6040518091039020604051610c159061133b565b604051809103902065016ead397a28731c56346cd2a2bf3202f771f50d3d14a367b480707ff2d857f4a3edcb9b78b4d503bfe733db1e3f6cdc2b7971ee739626c97e86a55860001b604051602001610c7296959493929190611508565b604051602081830303815290604052805190602001206040518060a00160405280606681526020016117c360669139604051602001610cb191906112d8565b604051602081830303815290604052805190602001208360000151846020015185604001518051906020012086606001518051906020012087608001518860a0015180519060200120604051602001610d109796959493929190611499565b60405160208183030381529060405280519060200120604051602001610d379291906112ef565b604051602081830303815290604052805190602001209050919050565b6040518060c00160405280600073ffffffffffffffffffffffffffffffffffffffff168152602001600073ffffffffffffffffffffffffffffffffffffffff1681526020016060815260200160608152602001600073ffffffffffffffffffffffffffffffffffffffff168152602001606081525090565b600081359050610ddb81611766565b92915050565b600081519050610df081611766565b92915050565b600081519050610e058161177d565b92915050565b600081359050610e1a81611794565b92915050565b600081519050610e2f81611794565b92915050565b600082601f830112610e4657600080fd5b8135610e59610e5482611633565b611606565b91508082526020830160208301858383011115610e7557600080fd5b610e80838284611709565b50505092915050565b600081359050610e98816117ab565b92915050565b600060208284031215610eb057600080fd5b6000610ebe84828501610de1565b91505092915050565b60008060008060808587031215610edd57600080fd5b6000610eeb87828801610dcc565b9450506020610efc87828801610dcc565b9350506040610f0d87828801610e0b565b9250506060610f1e87828801610e0b565b91505092959194509250565b60008060008060008060008060006101208a8c031215610f4957600080fd5b6000610f578c828d01610dcc565b9950506020610f688c828d01610dcc565b98505060408a013567ffffffffffffffff811115610f8557600080fd5b610f918c828d01610e35565b97505060608a013567ffffffffffffffff811115610fae57600080fd5b610fba8c828d01610e35565b9650506080610fcb8c828d01610dcc565b95505060a08a013567ffffffffffffffff811115610fe857600080fd5b610ff48c828d01610e35565b94505060c06110058c828d01610e0b565b93505060e06110168c828d01610e0b565b9250506101006110288c828d01610e89565b9150509295985092959850929598565b6000806040838503121561104b57600080fd5b600061105985828601610dcc565b925050602061106a85828601610e0b565b9150509250929050565b600080600080600060a0868803121561108c57600080fd5b600061109a88828901610dcc565b95505060206110ab88828901610e89565b94505060406110bc88828901610e0b565b93505060606110cd88828901610e0b565b92505060806110de88828901610dcc565b9150509295509295909350565b6000602082840312156110fd57600080fd5b600061110b84828501610df6565b91505092915050565b60006020828403121561112657600080fd5b600061113484828501610e20565b91505092915050565b61114681611686565b82525050565b61115581611698565b82525050565b611164816116a4565b82525050565b61117b611176826116a4565b61174b565b82525050565b61118a816116e5565b82525050565b600061119b8261165f565b6111a5818561166a565b93506111b5818560208601611718565b6111be81611755565b840191505092915050565b60006111d48261165f565b6111de818561167b565b93506111ee818560208601611718565b80840191505092915050565b600061120760028361167b565b91507f19010000000000000000000000000000000000000000000000000000000000006000830152600282019050919050565b600061124760148361167b565b91507f4d61726b6574706c6163652052656769737472790000000000000000000000006000830152601482019050919050565b600061128760018361167b565b91507f31000000000000000000000000000000000000000000000000000000000000006000830152600182019050919050565b6112c3816116ce565b82525050565b6112d2816116d8565b82525050565b60006112e482846111c9565b915081905092915050565b60006112fa826111fa565b9150611306828561116a565b602082019150611316828461116a565b6020820191508190509392505050565b60006113318261123a565b9150819050919050565b60006113468261127a565b9150819050919050565b6000602082019050611365600083018461113d565b92915050565b6000606082019050611380600083018661113d565b61138d602083018561113d565b61139a604083018461115b565b949350505050565b60006060820190506113b7600083018661113d565b6113c4602083018561115b565b6113d1604083018461113d565b949350505050565b60006060820190506113ee600083018661113d565b6113fb602083018561115b565b611408604083018461115b565b949350505050565b600060a082019050611425600083018861113d565b61143260208301876112c9565b61143f604083018661115b565b61144c606083018561115b565b611459608083018461113d565b9695505050505050565b6000602082019050611478600083018461114c565b92915050565b6000602082019050611493600083018461115b565b92915050565b600060e0820190506114ae600083018a61115b565b6114bb602083018961113d565b6114c8604083018861113d565b6114d5606083018761115b565b6114e2608083018661115b565b6114ef60a083018561113d565b6114fc60c083018461115b565b98975050505050505050565b600060c08201905061151d600083018961115b565b61152a602083018861115b565b611537604083018761115b565b61154460608301866112ba565b611551608083018561113d565b61155e60a083018461115b565b979650505050505050565b600060808201905061157e600083018761115b565b61158b60208301866112c9565b611598604083018561115b565b6115a5606083018461115b565b95945050505050565b60006020820190506115c36000830184611181565b92915050565b600060208201905081810360008301526115e38184611190565b905092915050565b600060208201905061160060008301846112ba565b92915050565b6000604051905081810181811067ffffffffffffffff8211171561162957600080fd5b8060405250919050565b600067ffffffffffffffff82111561164a57600080fd5b601f19601f8301169050602081019050919050565b600081519050919050565b600082825260208201905092915050565b600081905092915050565b6000611691826116ae565b9050919050565b60008115159050919050565b6000819050919050565b600073ffffffffffffffffffffffffffffffffffffffff82169050919050565b6000819050919050565b600060ff82169050919050565b60006116f0826116f7565b9050919050565b6000611702826116ae565b9050919050565b82818337600083830152505050565b60005b8381101561173657808201518184015260208101905061171b565b83811115611745576000848401525b50505050565b6000819050919050565b6000601f19601f8301169050919050565b61176f81611686565b811461177a57600080fd5b50565b61178681611698565b811461179157600080fd5b50565b61179d816116a4565b81146117a857600080fd5b50565b6117b4816116d8565b81146117bf57600080fd5b5056fe4170702861646472657373206f776e65722c6164647265737320617574686f722c737472696e67206170704e616d652c737472696e67206465736372697074696f6e2c61646472657373206973737565722c737472696e6720646f776e6c6f61644c696e6b29454950373132446f6d61696e28737472696e67206e616d652c737472696e672076657273696f6e2c75696e7432353620636861696e49642c6164647265737320766572696679696e67436f6e74726163742c627974657333322073616c7429a365627a7a723158205120d4990d361f164997240057a8676496cf7f4dc34c4d80705cb9959ab3207e6c6578706572696d656e74616cf564736f6c634300050c0040",
  "source": "pragma experimental ABIEncoderV2;\npragma solidity ^0.5.12;\n\nimport \"./MarketPlaceBase.sol\";\n\ncontract MarketPlaceCore is MarketPlaceBase {\n\nconstructor(address _ethereumDIDRegistry, address _claimRegistry) public {\n        registry = EthereumDIDRegistryInterface(_ethereumDIDRegistry); \n        claimRegistry = ClaimRegistryInterface(_claimRegistry);\n  }\n}",
  "sourcePath": "/Users/Hai/Google Drive/KMS/01. Work/121. Vue/Vue_Truffle/contracts/MarketPlaceCore.sol",
  "compiler": {
    "name": "solc",
    "version": "0.5.12+commit.7709ece9.Emscripten.clang"
  },
  "schemaVersion": "3.0.11",
  "updatedAt": "2019-12-06T12:57:49.861Z",
  "devdoc": {
    "methods": {}
  },
  "userdoc": {
    "methods": {}
  }
}