{
  "contractName": "MarketPlaceCore",
  "abi": [
    {
      "inputs": [
        {
          "internalType": "address",
          "name": "_ethereumDIDRegistry",
          "type": "address"
        },
        {
          "internalType": "address",
          "name": "_claimRegistry",
          "type": "address"
        }
      ],
      "payable": false,
      "stateMutability": "nonpayable",
      "type": "constructor"
    },
    {
      "constant": true,
      "inputs": [],
      "name": "DELEGATE_ADMIN",
      "outputs": [
        {
          "internalType": "bytes32",
          "name": "",
          "type": "bytes32"
        }
      ],
      "payable": false,
      "stateMutability": "view",
      "type": "function"
    },
    {
      "constant": true,
      "inputs": [
        {
          "internalType": "address",
          "name": "identity",
          "type": "address"
        },
        {
          "internalType": "bytes32",
          "name": "key",
          "type": "bytes32"
        }
      ],
      "name": "Test",
      "outputs": [
        {
          "internalType": "bytes32",
          "name": "",
          "type": "bytes32"
        }
      ],
      "payable": false,
      "stateMutability": "view",
      "type": "function"
    },
    {
      "constant": false,
      "inputs": [
        {
          "internalType": "address",
          "name": "identity",
          "type": "address"
        },
        {
          "internalType": "bytes32",
          "name": "name",
          "type": "bytes32"
        },
        {
          "internalType": "bytes",
          "name": "value",
          "type": "bytes"
        },
        {
          "internalType": "uint256",
          "name": "validity",
          "type": "uint256"
        }
      ],
      "name": "_updateEntity2",
      "outputs": [],
      "payable": false,
      "stateMutability": "nonpayable",
      "type": "function"
    },
    {
      "constant": true,
      "inputs": [],
      "name": "chainId",
      "outputs": [
        {
          "internalType": "uint256",
          "name": "",
          "type": "uint256"
        }
      ],
      "payable": false,
      "stateMutability": "view",
      "type": "function"
    },
    {
      "constant": false,
      "inputs": [
        {
          "internalType": "address",
          "name": "identity",
          "type": "address"
        },
        {
          "internalType": "uint8",
          "name": "sigV",
          "type": "uint8"
        },
        {
          "internalType": "bytes32",
          "name": "sigR",
          "type": "bytes32"
        },
        {
          "internalType": "bytes32",
          "name": "sigS",
          "type": "bytes32"
        },
        {
          "internalType": "address",
          "name": "newOwner",
          "type": "address"
        }
      ],
      "name": "registerEntity",
      "outputs": [],
      "payable": false,
      "stateMutability": "nonpayable",
      "type": "function"
    },
    {
      "constant": true,
      "inputs": [],
      "name": "registry",
      "outputs": [
        {
          "internalType": "contract EthereumDIDRegistryInterface",
          "name": "",
          "type": "address"
        }
      ],
      "payable": false,
      "stateMutability": "view",
      "type": "function"
    },
    {
      "constant": true,
      "inputs": [],
      "name": "salt",
      "outputs": [
        {
          "internalType": "bytes32",
          "name": "",
          "type": "bytes32"
        }
      ],
      "payable": false,
      "stateMutability": "view",
      "type": "function"
    },
    {
      "constant": true,
      "inputs": [],
      "name": "test",
      "outputs": [
        {
          "internalType": "string",
          "name": "",
          "type": "string"
        }
      ],
      "payable": false,
      "stateMutability": "view",
      "type": "function"
    },
    {
      "constant": true,
      "inputs": [
        {
          "internalType": "address",
          "name": "author",
          "type": "address"
        },
        {
          "internalType": "string",
          "name": "appName",
          "type": "string"
        },
        {
          "internalType": "string",
          "name": "description",
          "type": "string"
        },
        {
          "internalType": "string",
          "name": "downloadLink",
          "type": "string"
        },
        {
          "internalType": "address[]",
          "name": "supportedApp",
          "type": "address[]"
        },
        {
          "internalType": "bytes32",
          "name": "sigR",
          "type": "bytes32"
        },
        {
          "internalType": "bytes32",
          "name": "sigS",
          "type": "bytes32"
        },
        {
          "internalType": "uint8",
          "name": "sigV",
          "type": "uint8"
        }
      ],
      "name": "verifyApp",
      "outputs": [
        {
          "internalType": "bool",
          "name": "",
          "type": "bool"
        }
      ],
      "payable": false,
      "stateMutability": "view",
      "type": "function"
    },
    {
      "constant": true,
      "inputs": [],
      "name": "verifyingContract",
      "outputs": [
        {
          "internalType": "address",
          "name": "",
          "type": "address"
        }
      ],
      "payable": false,
      "stateMutability": "view",
      "type": "function"
    }
  ],
  "bytecode": "0x60806040523480156200001157600080fd5b5060405162001a2538038062001a258339818101604052620000379190810190620000d7565b816000806101000a81548173ffffffffffffffffffffffffffffffffffffffff021916908373ffffffffffffffffffffffffffffffffffffffff16021790555080600160006101000a81548173ffffffffffffffffffffffffffffffffffffffff021916908373ffffffffffffffffffffffffffffffffffffffff160217905550505062000166565b600081519050620000d1816200014c565b92915050565b60008060408385031215620000eb57600080fd5b6000620000fb85828601620000c0565b92505060206200010e85828601620000c0565b9150509250929050565b600062000125826200012c565b9050919050565b600073ffffffffffffffffffffffffffffffffffffffff82169050919050565b620001578162000118565b81146200016357600080fd5b50565b6118af80620001766000396000f3fe608060405234801561001057600080fd5b506004361061009e5760003560e01c80639a8a0592116100665780639a8a05921461015b578063a4750bad14610179578063a787d61b14610195578063bfa0b133146101b3578063f8a8fd6d146101d15761009e565b806311b8ba5c146100a35780631f19713e146100d357806331b5849d146100ef578063656651091461011f5780637b1039991461013d575b600080fd5b6100bd60048036036100b89190810190610d67565b6101ef565b6040516100ca9190611361565b60405180910390f35b6100ed60048036036100e89190810190610e79565b6102d0565b005b61010960048036036101049190810190610cb0565b6103e9565b604051610116919061137c565b60405180910390f35b6101276104a2565b604051610134919061137c565b60405180910390f35b6101456104e2565b604051610152919061149e565b60405180910390f35b610163610507565b60405161017091906114db565b60405180910390f35b610193600480360361018e9190810190610cec565b610511565b005b61019d610881565b6040516101aa9190611239565b60405180910390f35b6101bb610899565b6040516101c8919061137c565b60405180910390f35b6101d96108c0565b6040516101e691906114b9565b60405180910390f35b60006101f9610ac2565b6040518060a001604052808b73ffffffffffffffffffffffffffffffffffffffff1681526020018a8152602001898152602001888152602001878152509050600161024382610902565b848787604051600081526020016040526040516102639493929190611459565b6020604051602081039080840390855afa158015610285573d6000803e3d6000fd5b5050506020604051035173ffffffffffffffffffffffffffffffffffffffff16816000015173ffffffffffffffffffffffffffffffffffffffff161491505098975050505050505050565b6000809054906101000a900473ffffffffffffffffffffffffffffffffffffffff1673ffffffffffffffffffffffffffffffffffffffff1663240cf1fa86868686306040518663ffffffff1660e01b815260040161033295949392919061130e565b600060405180830381600087803b15801561034c57600080fd5b505af1158015610360573d6000803e3d6000fd5b5050505080600260008773ffffffffffffffffffffffffffffffffffffffff1673ffffffffffffffffffffffffffffffffffffffff16815260200190815260200160002060006101000a81548173ffffffffffffffffffffffffffffffffffffffff021916908373ffffffffffffffffffffffffffffffffffffffff1602179055505050505050565b6000600160009054906101000a900473ffffffffffffffffffffffffffffffffffffffff1673ffffffffffffffffffffffffffffffffffffffff1663e1661eff3085856040518463ffffffff1660e01b815260040161044a93929190611254565b60206040518083038186803b15801561046257600080fd5b505afa158015610476573d6000803e3d6000fd5b505050506040513d601f19601f8201168201806040525061049a9190810190610f19565b905092915050565b6040518060400160405280600581526020017f61646d696e0000000000000000000000000000000000000000000000000000008152508051906020012081565b6000809054906101000a900473ffffffffffffffffffffffffffffffffffffffff1681565b65016ffa9cf37281565b3373ffffffffffffffffffffffffffffffffffffffff16600260008673ffffffffffffffffffffffffffffffffffffffff1673ffffffffffffffffffffffffffffffffffffffff16815260200190815260200160002060009054906101000a900473ffffffffffffffffffffffffffffffffffffffff1673ffffffffffffffffffffffffffffffffffffffff1614806106ef57506000809054906101000a900473ffffffffffffffffffffffffffffffffffffffff1673ffffffffffffffffffffffffffffffffffffffff1663622b2a3c600260008773ffffffffffffffffffffffffffffffffffffffff1673ffffffffffffffffffffffffffffffffffffffff16815260200190815260200160002060009054906101000a900473ffffffffffffffffffffffffffffffffffffffff166040518060400160405280600581526020017f61646d696e00000000000000000000000000000000000000000000000000000081525080519060200120336040518463ffffffff1660e01b815260040161069e9392919061128b565b60206040518083038186803b1580156106b657600080fd5b505afa1580156106ca573d6000803e3d6000fd5b505050506040513d601f19601f820116820180604052506106ee9190810190610ef0565b5b806107e057506000809054906101000a900473ffffffffffffffffffffffffffffffffffffffff1673ffffffffffffffffffffffffffffffffffffffff1663622b2a3c856040518060400160405280600581526020017f61646d696e00000000000000000000000000000000000000000000000000000081525080519060200120336040518463ffffffff1660e01b815260040161078f9392919061128b565b60206040518083038186803b1580156107a757600080fd5b505afa1580156107bb573d6000803e3d6000fd5b505050506040513d601f19601f820116820180604052506107df9190810190610ef0565b5b6107e957600080fd5b6000809054906101000a900473ffffffffffffffffffffffffffffffffffffffff1673ffffffffffffffffffffffffffffffffffffffff16637ad4b0a4858585856040518563ffffffff1660e01b815260040161084994939291906112c2565b600060405180830381600087803b15801561086357600080fd5b505af1158015610877573d6000803e3d6000fd5b5050505050505050565b731c56346cd2a2bf3202f771f50d3d14a367b4807081565b7ff2d857f4a3edcb9b78b4d503bfe733db1e3f6cdc2b7971ee739626c97e86a55860001b81565b6060806040518060400160405280600381526020017f686579000000000000000000000000000000000000000000000000000000000081525090508091505090565b60006040518060800160405280605f815260200161180e605f913960405160200161092d91906111c1565b6040516020818303038152906040528051906020012060405161094f9061120f565b604051809103902060405161096390611224565b604051809103902065016ffa9cf372731c56346cd2a2bf3202f771f50d3d14a367b480707ff2d857f4a3edcb9b78b4d503bfe733db1e3f6cdc2b7971ee739626c97e86a55860001b6040516020016109c0969594939291906113f8565b604051602081830303815290604052805190602001206040518060800160405280606081526020016117ae606091396040516020016109ff91906111c1565b6040516020818303038152906040528051906020012083600001518460200151805190602001208560400151805190602001208660600151805190602001208760800151604051602001610a5391906111aa565b60405160208183030381529060405280519060200120604051602001610a7e96959493929190611397565b60405160208183030381529060405280519060200120604051602001610aa59291906111d8565b604051602081830303815290604052805190602001209050919050565b6040518060a00160405280600073ffffffffffffffffffffffffffffffffffffffff168152602001606081526020016060815260200160608152602001606081525090565b600081359050610b168161173a565b92915050565b600082601f830112610b2d57600080fd5b8135610b40610b3b82611523565b6114f6565b91508181835260208401935060208101905083856020840282011115610b6557600080fd5b60005b83811015610b955781610b7b8882610b07565b845260208401935060208301925050600181019050610b68565b5050505092915050565b600081519050610bae81611751565b92915050565b600081359050610bc381611768565b92915050565b600081519050610bd881611768565b92915050565b600082601f830112610bef57600080fd5b8135610c02610bfd8261154b565b6114f6565b91508082526020830160208301858383011115610c1e57600080fd5b610c298382846116dd565b50505092915050565b600082601f830112610c4357600080fd5b8135610c56610c5182611577565b6114f6565b91508082526020830160208301858383011115610c7257600080fd5b610c7d8382846116dd565b50505092915050565b600081359050610c958161177f565b92915050565b600081359050610caa81611796565b92915050565b60008060408385031215610cc357600080fd5b6000610cd185828601610b07565b9250506020610ce285828601610bb4565b9150509250929050565b60008060008060808587031215610d0257600080fd5b6000610d1087828801610b07565b9450506020610d2187828801610bb4565b935050604085013567ffffffffffffffff811115610d3e57600080fd5b610d4a87828801610bde565b9250506060610d5b87828801610c86565b91505092959194509250565b600080600080600080600080610100898b031215610d8457600080fd5b6000610d928b828c01610b07565b985050602089013567ffffffffffffffff811115610daf57600080fd5b610dbb8b828c01610c32565b975050604089013567ffffffffffffffff811115610dd857600080fd5b610de48b828c01610c32565b965050606089013567ffffffffffffffff811115610e0157600080fd5b610e0d8b828c01610c32565b955050608089013567ffffffffffffffff811115610e2a57600080fd5b610e368b828c01610b1c565b94505060a0610e478b828c01610bb4565b93505060c0610e588b828c01610bb4565b92505060e0610e698b828c01610c9b565b9150509295985092959890939650565b600080600080600060a08688031215610e9157600080fd5b6000610e9f88828901610b07565b9550506020610eb088828901610c9b565b9450506040610ec188828901610bb4565b9350506060610ed288828901610bb4565b9250506080610ee388828901610b07565b9150509295509295909350565b600060208284031215610f0257600080fd5b6000610f1084828501610b9f565b91505092915050565b600060208284031215610f2b57600080fd5b6000610f3984828501610bc9565b91505092915050565b6000610f4e8383610f78565b60208301905092915050565b610f6381611683565b82525050565b610f7281611624565b82525050565b610f8181611624565b82525050565b6000610f92826115b3565b610f9c81856115ec565b9350610fa7836115a3565b8060005b83811015610fd8578151610fbf8882610f42565b9750610fca836115df565b925050600181019050610fab565b5085935050505092915050565b610fee81611636565b82525050565b610ffd81611642565b82525050565b61101461100f82611642565b61171f565b82525050565b6000611025826115be565b61102f81856115f7565b935061103f8185602086016116ec565b61104881611729565b840191505092915050565b61105c81611695565b82525050565b600061106d826115d4565b6110778185611608565b93506110878185602086016116ec565b61109081611729565b840191505092915050565b60006110a6826115c9565b6110b08185611619565b93506110c08185602086016116ec565b80840191505092915050565b60006110d9600283611619565b91507f19010000000000000000000000000000000000000000000000000000000000006000830152600282019050919050565b6000611119601483611619565b91507f4d61726b6574706c6163652052656769737472790000000000000000000000006000830152601482019050919050565b6000611159600183611619565b91507f31000000000000000000000000000000000000000000000000000000000000006000830152600182019050919050565b6111958161166c565b82525050565b6111a481611676565b82525050565b60006111b68284610f87565b915081905092915050565b60006111cd828461109b565b915081905092915050565b60006111e3826110cc565b91506111ef8285611003565b6020820191506111ff8284611003565b6020820191508190509392505050565b600061121a8261110c565b9150819050919050565b600061122f8261114c565b9150819050919050565b600060208201905061124e6000830184610f69565b92915050565b60006060820190506112696000830186610f69565b6112766020830185610f69565b6112836040830184610ff4565b949350505050565b60006060820190506112a06000830186610f69565b6112ad6020830185610ff4565b6112ba6040830184610f5a565b949350505050565b60006080820190506112d76000830187610f69565b6112e46020830186610ff4565b81810360408301526112f6818561101a565b9050611305606083018461118c565b95945050505050565b600060a0820190506113236000830188610f69565b611330602083018761119b565b61133d6040830186610ff4565b61134a6060830185610ff4565b6113576080830184610f69565b9695505050505050565b60006020820190506113766000830184610fe5565b92915050565b60006020820190506113916000830184610ff4565b92915050565b600060c0820190506113ac6000830189610ff4565b6113b96020830188610f69565b6113c66040830187610ff4565b6113d36060830186610ff4565b6113e06080830185610ff4565b6113ed60a0830184610ff4565b979650505050505050565b600060c08201905061140d6000830189610ff4565b61141a6020830188610ff4565b6114276040830187610ff4565b611434606083018661118c565b6114416080830185610f69565b61144e60a0830184610ff4565b979650505050505050565b600060808201905061146e6000830187610ff4565b61147b602083018661119b565b6114886040830185610ff4565b6114956060830184610ff4565b95945050505050565b60006020820190506114b36000830184611053565b92915050565b600060208201905081810360008301526114d38184611062565b905092915050565b60006020820190506114f0600083018461118c565b92915050565b6000604051905081810181811067ffffffffffffffff8211171561151957600080fd5b8060405250919050565b600067ffffffffffffffff82111561153a57600080fd5b602082029050602081019050919050565b600067ffffffffffffffff82111561156257600080fd5b601f19601f8301169050602081019050919050565b600067ffffffffffffffff82111561158e57600080fd5b601f19601f8301169050602081019050919050565b6000819050602082019050919050565b600081519050919050565b600081519050919050565b600081519050919050565b600081519050919050565b6000602082019050919050565b600081905092915050565b600082825260208201905092915050565b600082825260208201905092915050565b600081905092915050565b600061162f8261164c565b9050919050565b60008115159050919050565b6000819050919050565b600073ffffffffffffffffffffffffffffffffffffffff82169050919050565b6000819050919050565b600060ff82169050919050565b600061168e826116b9565b9050919050565b60006116a0826116a7565b9050919050565b60006116b28261164c565b9050919050565b60006116c4826116cb565b9050919050565b60006116d68261164c565b9050919050565b82818337600083830152505050565b60005b8381101561170a5780820151818401526020810190506116ef565b83811115611719576000848401525b50505050565b6000819050919050565b6000601f19601f8301169050919050565b61174381611624565b811461174e57600080fd5b50565b61175a81611636565b811461176557600080fd5b50565b61177181611642565b811461177c57600080fd5b50565b6117888161166c565b811461179357600080fd5b50565b61179f81611676565b81146117aa57600080fd5b5056fe417070286164647265737320617574686f722c737472696e67206170704e616d652c737472696e67206465736372697074696f6e2c737472696e6720646f776e6c6f61644c696e6b2c616464726573735b5d20737570706f7274656441707029454950373132446f6d61696e28737472696e67206e616d652c737472696e672076657273696f6e2c75696e7432353620636861696e49642c6164647265737320766572696679696e67436f6e74726163742c627974657333322073616c7429a365627a7a723158209f091824183161941cc92d247f0462a86803e4585f5b322ef69e512c31b3e64c6c6578706572696d656e74616cf564736f6c634300050c0040",
  "source": "pragma experimental ABIEncoderV2;\npragma solidity ^0.5.12;\n\nimport \"./MarketPlaceBase.sol\";\n\ncontract MarketPlaceCore is MarketPlaceBase {\n\n  constructor(address _ethereumDIDRegistry, address _claimRegistry) public {\n      registry = EthereumDIDRegistryInterface(_ethereumDIDRegistry); \n      claimRegistry = ClaimRegistryInterface(_claimRegistry);\n  }\n\n}",
  "sourcePath": "/Users/Hai/Google Drive/KMS/01. Work/121. Vue/Vue_Truffle/contracts/MarketPlaceCore.sol",
  "compiler": {
    "name": "solc",
    "version": "0.5.12+commit.7709ece9.Emscripten.clang"
  },
  "schemaVersion": "3.0.11",
  "updatedAt": "2020-02-17T13:48:27.287Z",
  "devdoc": {
    "methods": {}
  },
  "userdoc": {
    "methods": {}
  }
}