{
  "contractName": "MarketPlaceBase",
  "abi": [
    {
      "constant": true,
      "inputs": [],
      "name": "DELEGATE_ADMIN",
      "outputs": [
        {
          "internalType": "bytes32",
          "name": "",
          "type": "bytes32"
        }
      ],
      "payable": false,
      "stateMutability": "view",
      "type": "function"
    },
    {
      "constant": true,
      "inputs": [],
      "name": "DELEGATE_MEMBER",
      "outputs": [
        {
          "internalType": "bytes32",
          "name": "",
          "type": "bytes32"
        }
      ],
      "payable": false,
      "stateMutability": "view",
      "type": "function"
    },
    {
      "constant": true,
      "inputs": [],
      "name": "TYPE_API",
      "outputs": [
        {
          "internalType": "string",
          "name": "",
          "type": "string"
        }
      ],
      "payable": false,
      "stateMutability": "view",
      "type": "function"
    },
    {
      "constant": true,
      "inputs": [],
      "name": "TYPE_APIVERSION",
      "outputs": [
        {
          "internalType": "string",
          "name": "",
          "type": "string"
        }
      ],
      "payable": false,
      "stateMutability": "view",
      "type": "function"
    },
    {
      "constant": true,
      "inputs": [],
      "name": "TYPE_APP",
      "outputs": [
        {
          "internalType": "string",
          "name": "",
          "type": "string"
        }
      ],
      "payable": false,
      "stateMutability": "view",
      "type": "function"
    },
    {
      "constant": true,
      "inputs": [],
      "name": "TYPE_APPVERSION",
      "outputs": [
        {
          "internalType": "string",
          "name": "",
          "type": "string"
        }
      ],
      "payable": false,
      "stateMutability": "view",
      "type": "function"
    },
    {
      "constant": true,
      "inputs": [],
      "name": "TYPE_ORGANIZATION",
      "outputs": [
        {
          "internalType": "string",
          "name": "",
          "type": "string"
        }
      ],
      "payable": false,
      "stateMutability": "view",
      "type": "function"
    },
    {
      "constant": true,
      "inputs": [],
      "name": "TYPE_USER",
      "outputs": [
        {
          "internalType": "string",
          "name": "",
          "type": "string"
        }
      ],
      "payable": false,
      "stateMutability": "view",
      "type": "function"
    },
    {
      "constant": true,
      "inputs": [],
      "name": "chainId",
      "outputs": [
        {
          "internalType": "uint256",
          "name": "",
          "type": "uint256"
        }
      ],
      "payable": false,
      "stateMutability": "view",
      "type": "function"
    },
    {
      "constant": true,
      "inputs": [],
      "name": "salt",
      "outputs": [
        {
          "internalType": "bytes32",
          "name": "",
          "type": "bytes32"
        }
      ],
      "payable": false,
      "stateMutability": "view",
      "type": "function"
    },
    {
      "constant": true,
      "inputs": [
        {
          "internalType": "address",
          "name": "owner",
          "type": "address"
        },
        {
          "internalType": "address",
          "name": "author",
          "type": "address"
        },
        {
          "internalType": "string",
          "name": "appName",
          "type": "string"
        },
        {
          "internalType": "string",
          "name": "description",
          "type": "string"
        },
        {
          "internalType": "address",
          "name": "issuer",
          "type": "address"
        },
        {
          "internalType": "string",
          "name": "downloadLink",
          "type": "string"
        },
        {
          "internalType": "bytes32",
          "name": "sigR",
          "type": "bytes32"
        },
        {
          "internalType": "bytes32",
          "name": "sigS",
          "type": "bytes32"
        },
        {
          "internalType": "uint8",
          "name": "sigV",
          "type": "uint8"
        }
      ],
      "name": "verifyApp",
      "outputs": [
        {
          "internalType": "bool",
          "name": "",
          "type": "bool"
        }
      ],
      "payable": false,
      "stateMutability": "view",
      "type": "function"
    },
    {
      "constant": true,
      "inputs": [],
      "name": "verifyingContract",
      "outputs": [
        {
          "internalType": "address",
          "name": "",
          "type": "address"
        }
      ],
      "payable": false,
      "stateMutability": "view",
      "type": "function"
    }
  ],
  "bytecode": "0x608060405234801561001057600080fd5b50610f4f806100206000396000f3fe608060405234801561001057600080fd5b50600436106100b45760003560e01c8063a787d61b11610071578063a787d61b1461017f578063b9e4bf9b1461019d578063bfa0b133146101bb578063cbe8fea7146101d9578063ee62ab48146101f7578063f1e5ca7114610215576100b4565b806325ef93c9146100b95780633090b074146100d757806355fba102146100f5578063656651091461011357806395fc38e8146101315780639a8a059214610161575b600080fd5b6100c1610233565b6040516100ce9190610c89565b60405180910390f35b6100df61026c565b6040516100ec9190610c89565b60405180910390f35b6100fd6102a5565b60405161010a9190610c89565b60405180910390f35b61011b6102de565b6040516101289190610b59565b60405180910390f35b61014b60048036036101469190810190610811565b61031e565b6040516101589190610b3e565b60405180910390f35b610169610432565b6040516101769190610cab565b60405180910390f35b61018761043c565b6040516101949190610b23565b60405180910390f35b6101a5610454565b6040516101b29190610b59565b60405180910390f35b6101c3610494565b6040516101d09190610b59565b60405180910390f35b6101e16104bb565b6040516101ee9190610c89565b60405180910390f35b6101ff6104f4565b60405161020c9190610c89565b60405180910390f35b61021d61052d565b60405161022a9190610c89565b60405180910390f35b6040518060400160405280600381526020017f617070000000000000000000000000000000000000000000000000000000000081525081565b6040518060400160405280600c81526020017f6f7267616e697a6174696f6e000000000000000000000000000000000000000081525081565b6040518060400160405280600a81526020017f61707056657273696f6e0000000000000000000000000000000000000000000081525081565b6040518060400160405280600581526020017f61646d696e0000000000000000000000000000000000000000000000000000008152508051906020012081565b6000610328610706565b6040518060c001604052808c73ffffffffffffffffffffffffffffffffffffffff1681526020018b73ffffffffffffffffffffffffffffffffffffffff1681526020018a81526020018981526020018873ffffffffffffffffffffffffffffffffffffffff16815260200187815250905060016103a482610566565b848787604051600081526020016040526040516103c49493929190610c44565b6020604051602081039080840390855afa1580156103e6573d6000803e3d6000fd5b5050506020604051035173ffffffffffffffffffffffffffffffffffffffff16816020015173ffffffffffffffffffffffffffffffffffffffff16149150509998505050505050505050565b65016ead397a2881565b731c56346cd2a2bf3202f771f50d3d14a367b4807081565b6040518060400160405280600681526020017f6d656d62657200000000000000000000000000000000000000000000000000008152508051906020012081565b7ff2d857f4a3edcb9b78b4d503bfe733db1e3f6cdc2b7971ee739626c97e86a55860001b81565b6040518060400160405280600481526020017f757365720000000000000000000000000000000000000000000000000000000081525081565b6040518060400160405280600381526020017f617069000000000000000000000000000000000000000000000000000000000081525081565b6040518060400160405280600a81526020017f61706956657273696f6e0000000000000000000000000000000000000000000081525081565b60006040518060800160405280605f8152602001610eae605f91396040516020016105919190610aab565b604051602081830303815290604052805190602001206040516105b390610af9565b60405180910390206040516105c790610b0e565b604051809103902065016ead397a28731c56346cd2a2bf3202f771f50d3d14a367b480707ff2d857f4a3edcb9b78b4d503bfe733db1e3f6cdc2b7971ee739626c97e86a55860001b60405160200161062496959493929190610be3565b604051602081830303815290604052805190602001206040518060a0016040528060668152602001610e48606691396040516020016106639190610aab565b604051602081830303815290604052805190602001208360000151846020015185604001518051906020012086606001518051906020012087608001518860a00151805190602001206040516020016106c29796959493929190610b74565b604051602081830303815290604052805190602001206040516020016106e9929190610ac2565b604051602081830303815290604052805190602001209050919050565b6040518060c00160405280600073ffffffffffffffffffffffffffffffffffffffff168152602001600073ffffffffffffffffffffffffffffffffffffffff1681526020016060815260200160608152602001600073ffffffffffffffffffffffffffffffffffffffff168152602001606081525090565b60008135905061078d81610e02565b92915050565b6000813590506107a281610e19565b92915050565b600082601f8301126107b957600080fd5b81356107cc6107c782610cf3565b610cc6565b915080825260208301602083018583830111156107e857600080fd5b6107f3838284610da5565b50505092915050565b60008135905061080b81610e30565b92915050565b60008060008060008060008060006101208a8c03121561083057600080fd5b600061083e8c828d0161077e565b995050602061084f8c828d0161077e565b98505060408a013567ffffffffffffffff81111561086c57600080fd5b6108788c828d016107a8565b97505060608a013567ffffffffffffffff81111561089557600080fd5b6108a18c828d016107a8565b96505060806108b28c828d0161077e565b95505060a08a013567ffffffffffffffff8111156108cf57600080fd5b6108db8c828d016107a8565b94505060c06108ec8c828d01610793565b93505060e06108fd8c828d01610793565b92505061010061090f8c828d016107fc565b9150509295985092959850929598565b61092881610d46565b82525050565b61093781610d58565b82525050565b61094681610d64565b82525050565b61095d61095882610d64565b610de7565b82525050565b600061096e82610d1f565b6109788185610d2a565b9350610988818560208601610db4565b61099181610df1565b840191505092915050565b60006109a782610d1f565b6109b18185610d3b565b93506109c1818560208601610db4565b80840191505092915050565b60006109da600283610d3b565b91507f19010000000000000000000000000000000000000000000000000000000000006000830152600282019050919050565b6000610a1a601483610d3b565b91507f4d61726b6574706c6163652052656769737472790000000000000000000000006000830152601482019050919050565b6000610a5a600183610d3b565b91507f31000000000000000000000000000000000000000000000000000000000000006000830152600182019050919050565b610a9681610d8e565b82525050565b610aa581610d98565b82525050565b6000610ab7828461099c565b915081905092915050565b6000610acd826109cd565b9150610ad9828561094c565b602082019150610ae9828461094c565b6020820191508190509392505050565b6000610b0482610a0d565b9150819050919050565b6000610b1982610a4d565b9150819050919050565b6000602082019050610b38600083018461091f565b92915050565b6000602082019050610b53600083018461092e565b92915050565b6000602082019050610b6e600083018461093d565b92915050565b600060e082019050610b89600083018a61093d565b610b96602083018961091f565b610ba3604083018861091f565b610bb0606083018761093d565b610bbd608083018661093d565b610bca60a083018561091f565b610bd760c083018461093d565b98975050505050505050565b600060c082019050610bf8600083018961093d565b610c05602083018861093d565b610c12604083018761093d565b610c1f6060830186610a8d565b610c2c608083018561091f565b610c3960a083018461093d565b979650505050505050565b6000608082019050610c59600083018761093d565b610c666020830186610a9c565b610c73604083018561093d565b610c80606083018461093d565b95945050505050565b60006020820190508181036000830152610ca38184610963565b905092915050565b6000602082019050610cc06000830184610a8d565b92915050565b6000604051905081810181811067ffffffffffffffff82111715610ce957600080fd5b8060405250919050565b600067ffffffffffffffff821115610d0a57600080fd5b601f19601f8301169050602081019050919050565b600081519050919050565b600082825260208201905092915050565b600081905092915050565b6000610d5182610d6e565b9050919050565b60008115159050919050565b6000819050919050565b600073ffffffffffffffffffffffffffffffffffffffff82169050919050565b6000819050919050565b600060ff82169050919050565b82818337600083830152505050565b60005b83811015610dd2578082015181840152602081019050610db7565b83811115610de1576000848401525b50505050565b6000819050919050565b6000601f19601f8301169050919050565b610e0b81610d46565b8114610e1657600080fd5b50565b610e2281610d64565b8114610e2d57600080fd5b50565b610e3981610d98565b8114610e4457600080fd5b5056fe4170702861646472657373206f776e65722c6164647265737320617574686f722c737472696e67206170704e616d652c737472696e67206465736372697074696f6e2c61646472657373206973737565722c737472696e6720646f776e6c6f61644c696e6b29454950373132446f6d61696e28737472696e67206e616d652c737472696e672076657273696f6e2c75696e7432353620636861696e49642c6164647265737320766572696679696e67436f6e74726163742c627974657333322073616c7429a365627a7a723158207ea8eb20e2b7359a528cc74a7aedee2a26b1ab44a17811348c4499d5203c801e6c6578706572696d656e74616cf564736f6c634300050c0040",
  "source": "pragma experimental ABIEncoderV2;\npragma solidity ^0.5.12;\n\nimport \"./EthereumDIDRegistryInterface.sol\";\nimport \"./Verifier.sol\";\nimport \"./ClaimRegistryInterface.sol\";\n\ncontract MarketPlaceBase is Verifier{\n\n    EthereumDIDRegistryInterface registry;\n    ClaimRegistryInterface claimRegistry; \n\n  string public constant TYPE_APP =\"app\";\n  string public constant TYPE_API = \"api\";\n  string public constant TYPE_ORGANIZATION = \"organization\";\n  string public constant TYPE_USER = \"user\";\n  string public constant TYPE_APPVERSION = \"appVersion\";\n  string public constant TYPE_APIVERSION = \"apiVersion\"; \n  bytes32 public constant DELEGATE_ADMIN = keccak256(bytes(\"admin\"));\n  bytes32 public constant DELEGATE_MEMBER = keccak256(bytes(\"member\"));\n\n\n  // Ownership is handled in ERC1056\n  // Marketplace Logic in here. \n  \n  function _updateEntity(address identity, address actor,bytes32 key, bytes32 signature) internal {\n\n      require(  actor == registry.identityOwner(identity) || \n                registry.validDelegate(registry.identityOwner(identity), DELEGATE_ADMIN, actor) ||\n                registry.validDelegate(identity, DELEGATE_ADMIN, actor)\n              );\n\n      // set the Hash, /app/version \n      claimRegistry.setClaim(identity, key , signature);  \n  }\n\n  function _deleteEntity() internal {\n\n  }\n    \n    /* uint256 constant chainId = 1573916018149;\n    address constant verifyingContract = 0x1C56346CD2A2Bf3202F771f50d3D14a367B48070;\n    bytes32 constant salt = 0x77a604b8f7c68ecb34d6df338028f7fad929e2a3c98c72b3a1243f1d4dfac9b1;\n\n    string private constant EIP712_DOMAIN  = \"EIP712Domain(string name,string version,uint256 chainId,address verifyingContract,bytes32 salt)\";\n\n    bytes32 private constant EIP712_DOMAIN_TYPEHASH = keccak256(abi.encodePacked(EIP712_DOMAIN));\n\n    bytes32 private constant DOMAIN_SEPARATOR = keccak256(abi.encode(\n        EIP712_DOMAIN_TYPEHASH,\n        keccak256(\"My amazing dApp\"),\n        keccak256(\"2\"),\n        chainId,\n        verifyingContract,\n        salt\n    )); */\n\n}",
  "sourcePath": "/Users/Hai/Google Drive/KMS/01. Work/121. Vue/Vue_Truffle/contracts/MarketPlaceBase.sol",
  "compiler": {
    "name": "solc",
    "version": "0.5.12+commit.7709ece9.Emscripten.clang"
  },
  "schemaVersion": "3.0.11",
  "updatedAt": "2019-11-29T14:33:34.505Z",
  "devdoc": {
    "methods": {}
  },
  "userdoc": {
    "methods": {}
  }
}