{
  "contractName": "Organizations",
  "abi": [
    {
      "constant": true,
      "inputs": [
        {
          "name": "",
          "type": "address"
        }
      ],
      "name": "organizations",
      "outputs": [
        {
          "name": "index",
          "type": "uint256"
        },
        {
          "name": "owner",
          "type": "address"
        }
      ],
      "payable": false,
      "stateMutability": "view",
      "type": "function"
    },
    {
      "anonymous": false,
      "inputs": [
        {
          "indexed": true,
          "name": "_address",
          "type": "address"
        },
        {
          "indexed": false,
          "name": "_pseudo",
          "type": "bytes32"
        }
      ],
      "name": "UserCreated",
      "type": "event"
    },
    {
      "anonymous": false,
      "inputs": [
        {
          "indexed": true,
          "name": "_address",
          "type": "address"
        }
      ],
      "name": "UserDestroyed",
      "type": "event"
    },
    {
      "constant": true,
      "inputs": [
        {
          "name": "organizationAddress",
          "type": "address"
        }
      ],
      "name": "isOrganisation",
      "outputs": [
        {
          "name": "isIndeed",
          "type": "bool"
        }
      ],
      "payable": false,
      "stateMutability": "view",
      "type": "function"
    },
    {
      "constant": true,
      "inputs": [
        {
          "name": "name",
          "type": "bytes32"
        }
      ],
      "name": "organizationNameTaken",
      "outputs": [
        {
          "name": "isTaken",
          "type": "bool"
        }
      ],
      "payable": false,
      "stateMutability": "view",
      "type": "function"
    },
    {
      "constant": false,
      "inputs": [
        {
          "name": "organizationAddress",
          "type": "address"
        },
        {
          "name": "memberAddress",
          "type": "address"
        },
        {
          "name": "role",
          "type": "bool"
        }
      ],
      "name": "addMember",
      "outputs": [
        {
          "name": "index",
          "type": "uint256"
        }
      ],
      "payable": false,
      "stateMutability": "nonpayable",
      "type": "function"
    },
    {
      "constant": false,
      "inputs": [
        {
          "name": "organizationAddress",
          "type": "address"
        },
        {
          "name": "name",
          "type": "bytes32"
        }
      ],
      "name": "createOrganization",
      "outputs": [
        {
          "name": "success",
          "type": "bool"
        }
      ],
      "payable": false,
      "stateMutability": "nonpayable",
      "type": "function"
    },
    {
      "constant": false,
      "inputs": [
        {
          "name": "name",
          "type": "bytes32"
        }
      ],
      "name": "getAddressOfOrganization",
      "outputs": [
        {
          "name": "orgAddress",
          "type": "address"
        }
      ],
      "payable": false,
      "stateMutability": "nonpayable",
      "type": "function"
    }
  ],
  "bytecode": "0x608060405234801561001057600080fd5b506107f8806100206000396000f300608060405260043610610078576000357c0100000000000000000000000000000000000000000000000000000000900463ffffffff1680632cef972a1461007d57806335ec8428146100e65780635a1f74061461014157806377361c28146101cb57806377d5287f14610214578063a82d5deb14610297575b600080fd5b34801561008957600080fd5b506100cc600480360381019080803573ffffffffffffffffffffffffffffffffffffffff1690602001909291908035600019169060200190929190505050610308565b604051808215151515815260200191505060405180910390f35b3480156100f257600080fd5b50610127600480360381019080803573ffffffffffffffffffffffffffffffffffffffff1690602001909291905050506104a6565b604051808215151515815260200191505060405180910390f35b34801561014d57600080fd5b50610182600480360381019080803573ffffffffffffffffffffffffffffffffffffffff169060200190929190505050610570565b604051808381526020018273ffffffffffffffffffffffffffffffffffffffff1673ffffffffffffffffffffffffffffffffffffffff1681526020019250505060405180910390f35b3480156101d757600080fd5b506101fa60048036038101908080356000191690602001909291905050506105b4565b604051808215151515815260200191505060405180910390f35b34801561022057600080fd5b50610281600480360381019080803573ffffffffffffffffffffffffffffffffffffffff169060200190929190803573ffffffffffffffffffffffffffffffffffffffff1690602001909291908035151590602001909291905050506105db565b6040518082815260200191505060405180910390f35b3480156102a357600080fd5b506102c6600480360381019080803560001916906020019092919050505061076f565b604051808273ffffffffffffffffffffffffffffffffffffffff1673ffffffffffffffffffffffffffffffffffffffff16815260200191505060405180910390f35b6000610313836104a6565b15151561031f57600080fd5b610328826105b4565b15151561033457600080fd5b600182908060018154018082558091505090600182039060005260206000200160009091929091909150906000191690555060008390806001815401808255809150509060018203906000526020600020016000909192909190916101000a81548173ffffffffffffffffffffffffffffffffffffffff021916908373ffffffffffffffffffffffffffffffffffffffff1602179055505033600260008573ffffffffffffffffffffffffffffffffffffffff1673ffffffffffffffffffffffffffffffffffffffff16815260200190815260200160002060010160006101000a81548173ffffffffffffffffffffffffffffffffffffffff021916908373ffffffffffffffffffffffffffffffffffffffff160217905550600160008054905003600260008573ffffffffffffffffffffffffffffffffffffffff1673ffffffffffffffffffffffffffffffffffffffff168152602001908152602001600020600001819055506001905092915050565b60008060008054905014156104be576000905061056b565b8173ffffffffffffffffffffffffffffffffffffffff166000600260008573ffffffffffffffffffffffffffffffffffffffff1673ffffffffffffffffffffffffffffffffffffffff1681526020019081526020016000206000015481548110151561052657fe5b9060005260206000200160009054906101000a900473ffffffffffffffffffffffffffffffffffffffff1673ffffffffffffffffffffffffffffffffffffffff161490505b919050565b60026020528060005260406000206000915090508060000154908060010160009054906101000a900473ffffffffffffffffffffffffffffffffffffffff16905082565b60008060036000846000191660001916815260200190815260200160002054119050919050565b600081600260008673ffffffffffffffffffffffffffffffffffffffff1673ffffffffffffffffffffffffffffffffffffffff16815260200190815260200160002060030160008573ffffffffffffffffffffffffffffffffffffffff1673ffffffffffffffffffffffffffffffffffffffff16815260200190815260200160002060000160006101000a81548160ff021916908315150217905550600260008573ffffffffffffffffffffffffffffffffffffffff1673ffffffffffffffffffffffffffffffffffffffff1681526020019081526020016000206002018390806001815401808255809150509060018203906000526020600020016000909192909190916101000a81548173ffffffffffffffffffffffffffffffffffffffff021916908373ffffffffffffffffffffffffffffffffffffffff160217905550506001600260008673ffffffffffffffffffffffffffffffffffffffff1673ffffffffffffffffffffffffffffffffffffffff168152602001908152602001600020600201805490500390509392505050565b6000806003600084600019166000191681526020019081526020016000205481548110151561079a57fe5b9060005260206000200160009054906101000a900473ffffffffffffffffffffffffffffffffffffffff1690509190505600a165627a7a723058200394d17e2c09a0606cf1dfbaa7b739a487dcb404fd3a083df071245cc9f619770029",
  "source": "pragma solidity ^0.4.14;\n\ncontract Organizations {\n\n  struct Organization {\n      uint index;\n      address owner;\n      address[] memberIndex;\n      mapping(address => Member) members;\n  }\n\n  struct Member {\n    bool owner;\n    uint index;\n  }\n\n  // contains a List of all Organizations registered\n  address[] organizationIndex; \n  bytes32[] organizationNameIndex;\n\n  mapping(address => Organization) public organizations;\n  mapping(bytes32 => uint) organizationNames;\n\n  event UserCreated(address indexed _address, bytes32 _pseudo);\n  event UserDestroyed(address indexed _address);\n\n  // check if Organization has been registered already \n  function isOrganisation(address organizationAddress) public constant returns (bool isIndeed){\n      if(organizationIndex.length == 0) return false;\n      //check if registered address stimmt überein\n      return(organizationIndex[organizations[organizationAddress].index] == organizationAddress);  \n  }\n\n  // check if name is taken already \n  function organizationNameTaken(bytes32 name) public constant returns (bool isTaken){\n      return organizationNames[name] > 0;\n  }\n\n  function addMember(address organizationAddress, address memberAddress, bool role) public returns (uint index){\n    organizations[organizationAddress].members[memberAddress].owner = role;\n    organizations[organizationAddress].memberIndex.push(memberAddress);\n    return organizations[organizationAddress].memberIndex.length -1; \n  }\n\n  function createOrganization(address organizationAddress, bytes32 name) public returns (bool success) {\n      // check if organization has been registered already\n      //check if organization name has been taken \n      require(!isOrganisation(organizationAddress));\n      require(!organizationNameTaken(name));\n      organizationNameIndex.push(name);\n      organizationIndex.push(organizationAddress);\n      organizations[organizationAddress].owner = msg.sender;\n      organizations[organizationAddress].index = organizationIndex.length -1; \n      return true;\n  }\n\n  function getAddressOfOrganization(bytes32 name) public returns (address orgAddress){\n      return organizationIndex[organizationNames[name]]; \n  }\n\n\n\n/* \n  function exists (address _address) public constant returns (bool _exists) {\n    return (users[_address] != bytes32(0));\n  }\n\n  function authenticate () public constant returns (bytes32 _pseudo) {\n    require(exists(msg.sender));\n    return (users[msg.sender]);\n  }\n\n  function create (bytes32 _pseudo) public {\n    users[msg.sender] = _pseudo ;\n    UserCreated(msg.sender, _pseudo);\n  }\n\n  function createOrganization(bytes32 _pseudo) public {\n    organizations[msg.sender].name = _pseudo;\n    organizations[msg.sender].owner = msg.sender; \n  }\n  \n  function authenticateOrganization (address _address) public constant returns (bytes32) {\n    require(organizations[_address].owner == msg.sender); \n    return (organizations[_address].name); \n  }\n\n  function destroy () public {\n    require(exists(msg.sender));\n    delete users[msg.sender];\n    UserDestroyed(msg.sender);\n  }\n\n  function get (address _address) public constant returns(bytes32 _pseudo) {\n    require(exists(_address));\n    return (users[_address]);\n  }\n */\n}\n",
  "sourcePath": "/Users/Hai/Google Drive/KMS/01. Work/121. Vue/Vue_Truffle/contracts/Organizations.sol",
  "compiler": {
    "name": "solc",
    "version": "0.4.24+commit.e67f0147.Emscripten.clang"
  },
  "schemaVersion": "3.0.11",
  "updatedAt": "2019-09-26T14:30:06.879Z",
  "devdoc": {
    "methods": {}
  },
  "userdoc": {
    "methods": {}
  }
}