{
  "contractName": "Organizations",
  "abi": [
    {
      "constant": true,
      "inputs": [
        {
          "name": "",
          "type": "address"
        }
      ],
      "name": "organizations",
      "outputs": [
        {
          "name": "index",
          "type": "uint256"
        },
        {
          "name": "owner",
          "type": "address"
        }
      ],
      "payable": false,
      "stateMutability": "view",
      "type": "function"
    },
    {
      "anonymous": false,
      "inputs": [
        {
          "indexed": true,
          "name": "_address",
          "type": "address"
        },
        {
          "indexed": false,
          "name": "_pseudo",
          "type": "bytes32"
        }
      ],
      "name": "UserCreated",
      "type": "event"
    },
    {
      "anonymous": false,
      "inputs": [
        {
          "indexed": true,
          "name": "_address",
          "type": "address"
        }
      ],
      "name": "UserDestroyed",
      "type": "event"
    },
    {
      "constant": true,
      "inputs": [
        {
          "name": "organizationAddress",
          "type": "address"
        }
      ],
      "name": "isOrganisation",
      "outputs": [
        {
          "name": "isIndeed",
          "type": "bool"
        }
      ],
      "payable": false,
      "stateMutability": "view",
      "type": "function"
    },
    {
      "constant": true,
      "inputs": [
        {
          "name": "name",
          "type": "bytes32"
        }
      ],
      "name": "organizationNameTaken",
      "outputs": [
        {
          "name": "isTaken",
          "type": "bool"
        }
      ],
      "payable": false,
      "stateMutability": "view",
      "type": "function"
    },
    {
      "constant": false,
      "inputs": [
        {
          "name": "organizationAddress",
          "type": "address"
        },
        {
          "name": "memberAddress",
          "type": "address"
        },
        {
          "name": "role",
          "type": "bool"
        }
      ],
      "name": "addMember",
      "outputs": [
        {
          "name": "index",
          "type": "uint256"
        }
      ],
      "payable": false,
      "stateMutability": "nonpayable",
      "type": "function"
    },
    {
      "constant": false,
      "inputs": [
        {
          "name": "organizationAddress",
          "type": "address"
        },
        {
          "name": "name",
          "type": "bytes32"
        }
      ],
      "name": "createOrganization",
      "outputs": [],
      "payable": false,
      "stateMutability": "nonpayable",
      "type": "function"
    },
    {
      "constant": false,
      "inputs": [
        {
          "name": "name",
          "type": "bytes32"
        }
      ],
      "name": "getAddressOfOrganization",
      "outputs": [
        {
          "name": "orgAddress",
          "type": "address"
        }
      ],
      "payable": false,
      "stateMutability": "nonpayable",
      "type": "function"
    },
    {
      "constant": false,
      "inputs": [
        {
          "name": "organization",
          "type": "address"
        },
        {
          "name": "user",
          "type": "address"
        }
      ],
      "name": "addOrganizationToUser",
      "outputs": [],
      "payable": false,
      "stateMutability": "nonpayable",
      "type": "function"
    },
    {
      "constant": false,
      "inputs": [
        {
          "name": "user",
          "type": "address"
        }
      ],
      "name": "getOrganizationsOfUser",
      "outputs": [
        {
          "name": "count",
          "type": "uint256"
        }
      ],
      "payable": false,
      "stateMutability": "nonpayable",
      "type": "function"
    },
    {
      "constant": false,
      "inputs": [
        {
          "name": "user",
          "type": "address"
        },
        {
          "name": "index",
          "type": "uint256"
        }
      ],
      "name": "getOrganizationsOfUserByIndex",
      "outputs": [
        {
          "name": "organizations",
          "type": "address"
        }
      ],
      "payable": false,
      "stateMutability": "nonpayable",
      "type": "function"
    }
  ],
  "bytecode": "0x608060405234801561001057600080fd5b50610b93806100206000396000f300608060405260043610610099576000357c0100000000000000000000000000000000000000000000000000000000900463ffffffff1680632cef972a1461009e57806335ec8428146100ef578063532071351461014a5780635a1f7406146101ad57806377361c281461023757806377d5287f146102805780639eaaadb514610303578063a82d5deb14610390578063d8a4c38a14610401575b600080fd5b3480156100aa57600080fd5b506100ed600480360381019080803573ffffffffffffffffffffffffffffffffffffffff1690602001909291908035600019169060200190929190505050610458565b005b3480156100fb57600080fd5b50610130600480360381019080803573ffffffffffffffffffffffffffffffffffffffff1690602001909291905050506105f8565b604051808215151515815260200191505060405180910390f35b34801561015657600080fd5b506101ab600480360381019080803573ffffffffffffffffffffffffffffffffffffffff169060200190929190803573ffffffffffffffffffffffffffffffffffffffff1690602001909291905050506106c2565b005b3480156101b957600080fd5b506101ee600480360381019080803573ffffffffffffffffffffffffffffffffffffffff169060200190929190505050610838565b604051808381526020018273ffffffffffffffffffffffffffffffffffffffff1673ffffffffffffffffffffffffffffffffffffffff1681526020019250505060405180910390f35b34801561024357600080fd5b50610266600480360381019080803560001916906020019092919050505061087c565b604051808215151515815260200191505060405180910390f35b34801561028c57600080fd5b506102ed600480360381019080803573ffffffffffffffffffffffffffffffffffffffff169060200190929190803573ffffffffffffffffffffffffffffffffffffffff1690602001909291908035151590602001909291905050506108a3565b6040518082815260200191505060405180910390f35b34801561030f57600080fd5b5061034e600480360381019080803573ffffffffffffffffffffffffffffffffffffffff16906020019092919080359060200190929190505050610a37565b604051808273ffffffffffffffffffffffffffffffffffffffff1673ffffffffffffffffffffffffffffffffffffffff16815260200191505060405180910390f35b34801561039c57600080fd5b506103bf6004803603810190808035600019169060200190929190505050610abb565b604051808273ffffffffffffffffffffffffffffffffffffffff1673ffffffffffffffffffffffffffffffffffffffff16815260200191505060405180910390f35b34801561040d57600080fd5b50610442600480360381019080803573ffffffffffffffffffffffffffffffffffffffff169060200190929190505050610b18565b6040518082815260200191505060405180910390f35b610461826105f8565b15151561046d57600080fd5b6104768161087c565b15151561048257600080fd5b600181908060018154018082558091505090600182039060005260206000200160009091929091909150906000191690555060008290806001815401808255809150509060018203906000526020600020016000909192909190916101000a81548173ffffffffffffffffffffffffffffffffffffffff021916908373ffffffffffffffffffffffffffffffffffffffff1602179055505033600260008473ffffffffffffffffffffffffffffffffffffffff1673ffffffffffffffffffffffffffffffffffffffff16815260200190815260200160002060010160006101000a81548173ffffffffffffffffffffffffffffffffffffffff021916908373ffffffffffffffffffffffffffffffffffffffff160217905550600160008054905003600260008473ffffffffffffffffffffffffffffffffffffffff1673ffffffffffffffffffffffffffffffffffffffff168152602001908152602001600020600001819055506105f482336106c2565b5050565b600080600080549050141561061057600090506106bd565b8173ffffffffffffffffffffffffffffffffffffffff166000600260008573ffffffffffffffffffffffffffffffffffffffff1673ffffffffffffffffffffffffffffffffffffffff1681526020019081526020016000206000015481548110151561067857fe5b9060005260206000200160009054906101000a900473ffffffffffffffffffffffffffffffffffffffff1673ffffffffffffffffffffffffffffffffffffffff161490505b919050565b600460008273ffffffffffffffffffffffffffffffffffffffff1673ffffffffffffffffffffffffffffffffffffffff1681526020019081526020016000206000018290806001815401808255809150509060018203906000526020600020016000909192909190916101000a81548173ffffffffffffffffffffffffffffffffffffffff021916908373ffffffffffffffffffffffffffffffffffffffff160217905550506001600460008373ffffffffffffffffffffffffffffffffffffffff1673ffffffffffffffffffffffffffffffffffffffff1681526020019081526020016000206000018054905003600460008373ffffffffffffffffffffffffffffffffffffffff1673ffffffffffffffffffffffffffffffffffffffff16815260200190815260200160002060010160008473ffffffffffffffffffffffffffffffffffffffff1673ffffffffffffffffffffffffffffffffffffffff168152602001908152602001600020819055505050565b60026020528060005260406000206000915090508060000154908060010160009054906101000a900473ffffffffffffffffffffffffffffffffffffffff16905082565b60008060036000846000191660001916815260200190815260200160002054119050919050565b600081600260008673ffffffffffffffffffffffffffffffffffffffff1673ffffffffffffffffffffffffffffffffffffffff16815260200190815260200160002060030160008573ffffffffffffffffffffffffffffffffffffffff1673ffffffffffffffffffffffffffffffffffffffff16815260200190815260200160002060000160006101000a81548160ff021916908315150217905550600260008573ffffffffffffffffffffffffffffffffffffffff1673ffffffffffffffffffffffffffffffffffffffff1681526020019081526020016000206002018390806001815401808255809150509060018203906000526020600020016000909192909190916101000a81548173ffffffffffffffffffffffffffffffffffffffff021916908373ffffffffffffffffffffffffffffffffffffffff160217905550506001600260008673ffffffffffffffffffffffffffffffffffffffff1673ffffffffffffffffffffffffffffffffffffffff168152602001908152602001600020600201805490500390509392505050565b6000600460008473ffffffffffffffffffffffffffffffffffffffff1673ffffffffffffffffffffffffffffffffffffffff16815260200190815260200160002060000182815481101515610a8857fe5b9060005260206000200160009054906101000a900473ffffffffffffffffffffffffffffffffffffffff16905092915050565b60008060036000846000191660001916815260200190815260200160002054815481101515610ae657fe5b9060005260206000200160009054906101000a900473ffffffffffffffffffffffffffffffffffffffff169050919050565b6000600460008373ffffffffffffffffffffffffffffffffffffffff1673ffffffffffffffffffffffffffffffffffffffff1681526020019081526020016000206000018054905090509190505600a165627a7a72305820bf8ff5651e5842a99d7afab79fd43059ae607136bdb514a6593774672cdd58950029",
  "source": "pragma solidity ^0.4.14;\n\ncontract Organizations {\n\n  struct Organization {\n      uint index;\n      address owner;\n      // array holds all User IDS, input : uint ! \n      address[] memberIndex;\n      // this is needed to delete/or retrieve a member out of the array. \n      mapping(address => Member) members;\n  }\n\n// Depreceated \n  struct Member {\n    // better bool role, role is actually not needed anymore. Condition is only member of Org and \n    bool owner;\n    uint index;\n  }\n\n  // when adding other Members to an organization\n  struct MemberInOrganizations{\n    address[] orgIndex;\n    mapping(address => uint) organizations;\n  }\n\n  // contains a List of all Organizations registered\n  address[] organizationIndex; \n  bytes32[] organizationNameIndex;\n\n  mapping(address => Organization) public organizations;\n  mapping(bytes32 => uint) organizationNames;\n\n  // userAddresses -> organizations, how many organizations does this user has. \n  mapping(address => MemberInOrganizations) hasOrganizations; \n\n  event UserCreated(address indexed _address, bytes32 _pseudo);\n  event UserDestroyed(address indexed _address);\n\n  // check if Organization has been registered already \n  function isOrganisation(address organizationAddress) public constant returns (bool isIndeed){\n      if(organizationIndex.length == 0) return false;\n      //check if registered address stimmt überein\n      return(organizationIndex[organizations[organizationAddress].index] == organizationAddress);  \n  }\n\n  // check if name is taken already \n  function organizationNameTaken(bytes32 name) public constant returns (bool isTaken){\n      return organizationNames[name] > 0;\n  }\n\n  function addMember(address organizationAddress, address memberAddress, bool role) public returns (uint index){\n    // TODO: check if msg.sender is a Member of the Organization and has owner Role \n    organizations[organizationAddress].members[memberAddress].owner = role;\n    organizations[organizationAddress].memberIndex.push(memberAddress);\n    return organizations[organizationAddress].memberIndex.length -1; \n  }\n\n  function createOrganization(address organizationAddress, bytes32 name) public {\n      // check if organization has been registered already\n      //check if organization name has been taken \n      require(!isOrganisation(organizationAddress));\n      require(!organizationNameTaken(name));\n      // add organization to the \"Organization Registry\" \n      organizationNameIndex.push(name);\n      organizationIndex.push(organizationAddress);\n      organizations[organizationAddress].owner = msg.sender;\n      organizations[organizationAddress].index = organizationIndex.length -1; \n      addOrganizationToUser(organizationAddress, msg.sender); \n  }\n\n  function getAddressOfOrganization(bytes32 name) public returns (address orgAddress){\n      return organizationIndex[organizationNames[name]]; \n  }\n\n  // this is neccessary for retrieving organizations of a user \n  function addOrganizationToUser(address organization, address user) public {\n      hasOrganizations[user].orgIndex.push(organization); \n      hasOrganizations[user].organizations[organization] = hasOrganizations[user].orgIndex.length -1; \n  }\n\n  function getOrganizationsOfUser(address user) public returns (uint count) {\n    return hasOrganizations[user].orgIndex.length; \n  }\n\n  function getOrganizationsOfUserByIndex(address user, uint index) public returns (address organizations) {\n    return hasOrganizations[user].orgIndex[index];\n  }\n/* \n  function exists (address _address) public constant returns (bool _exists) {\n    return (users[_address] != bytes32(0));\n  }\n\n  function authenticate () public constant returns (bytes32 _pseudo) {\n    require(exists(msg.sender));\n    return (users[msg.sender]);\n  }\n\n  function create (bytes32 _pseudo) public {\n    users[msg.sender] = _pseudo ;\n    UserCreated(msg.sender, _pseudo);\n  }\n\n  function createOrganization(bytes32 _pseudo) public {\n    organizations[msg.sender].name = _pseudo;\n    organizations[msg.sender].owner = msg.sender; \n  }\n  \n  function authenticateOrganization (address _address) public constant returns (bytes32) {\n    require(organizations[_address].owner == msg.sender); \n    return (organizations[_address].name); \n  }\n\n  function destroy () public {\n    require(exists(msg.sender));\n    delete users[msg.sender];\n    UserDestroyed(msg.sender);\n  }\n\n  function get (address _address) public constant returns(bytes32 _pseudo) {\n    require(exists(_address));\n    return (users[_address]);\n  }\n */\n}\n",
  "sourcePath": "/Users/Hai/Google Drive/KMS/01. Work/121. Vue/Vue_Truffle/contracts/Organizations.sol",
  "compiler": {
    "name": "solc",
    "version": "0.4.24+commit.e67f0147.Emscripten.clang"
  },
  "schemaVersion": "3.0.11",
  "updatedAt": "2019-10-15T09:07:54.193Z",
  "devdoc": {
    "methods": {}
  },
  "userdoc": {
    "methods": {}
  }
}