{
  "contractName": "Users",
  "abi": [
    {
      "constant": true,
      "inputs": [
        {
          "name": "",
          "type": "address"
        }
      ],
      "name": "organizations",
      "outputs": [
        {
          "name": "name",
          "type": "bytes32"
        },
        {
          "name": "owner",
          "type": "address"
        },
        {
          "name": "IFPSHash",
          "type": "bytes32"
        }
      ],
      "payable": false,
      "stateMutability": "view",
      "type": "function"
    },
    {
      "constant": true,
      "inputs": [
        {
          "name": "",
          "type": "address"
        }
      ],
      "name": "users",
      "outputs": [
        {
          "name": "",
          "type": "bytes32"
        }
      ],
      "payable": false,
      "stateMutability": "view",
      "type": "function"
    },
    {
      "anonymous": false,
      "inputs": [
        {
          "indexed": true,
          "name": "_address",
          "type": "address"
        },
        {
          "indexed": false,
          "name": "_pseudo",
          "type": "bytes32"
        }
      ],
      "name": "UserCreated",
      "type": "event"
    },
    {
      "anonymous": false,
      "inputs": [
        {
          "indexed": true,
          "name": "_address",
          "type": "address"
        }
      ],
      "name": "UserDestroyed",
      "type": "event"
    },
    {
      "constant": true,
      "inputs": [
        {
          "name": "_address",
          "type": "address"
        }
      ],
      "name": "exists",
      "outputs": [
        {
          "name": "_exists",
          "type": "bool"
        }
      ],
      "payable": false,
      "stateMutability": "view",
      "type": "function"
    },
    {
      "constant": true,
      "inputs": [],
      "name": "authenticate",
      "outputs": [
        {
          "name": "_pseudo",
          "type": "bytes32"
        }
      ],
      "payable": false,
      "stateMutability": "view",
      "type": "function"
    },
    {
      "constant": false,
      "inputs": [
        {
          "name": "_pseudo",
          "type": "bytes32"
        }
      ],
      "name": "create",
      "outputs": [],
      "payable": false,
      "stateMutability": "nonpayable",
      "type": "function"
    },
    {
      "constant": false,
      "inputs": [
        {
          "name": "_pseudo",
          "type": "bytes32"
        }
      ],
      "name": "createOrganization",
      "outputs": [],
      "payable": false,
      "stateMutability": "nonpayable",
      "type": "function"
    },
    {
      "constant": true,
      "inputs": [
        {
          "name": "_address",
          "type": "address"
        }
      ],
      "name": "authenticateOrganization",
      "outputs": [
        {
          "name": "",
          "type": "bytes32"
        }
      ],
      "payable": false,
      "stateMutability": "view",
      "type": "function"
    },
    {
      "constant": false,
      "inputs": [],
      "name": "destroy",
      "outputs": [],
      "payable": false,
      "stateMutability": "nonpayable",
      "type": "function"
    },
    {
      "constant": true,
      "inputs": [
        {
          "name": "_address",
          "type": "address"
        }
      ],
      "name": "get",
      "outputs": [
        {
          "name": "_pseudo",
          "type": "bytes32"
        }
      ],
      "payable": false,
      "stateMutability": "view",
      "type": "function"
    }
  ],
  "bytecode": "0x608060405234801561001057600080fd5b506107ef806100206000396000f300608060405260043610610099576000357c0100000000000000000000000000000000000000000000000000000000900463ffffffff16806316ecb6e71461009e578063380c7a67146100cf5780635a1f7406146101025780637368a8ce146101a357806383197ef0146101d4578063a87430ba146101eb578063c2bc2efc1461024a578063cbe64390146102a9578063f6a3d24e14610308575b600080fd5b3480156100aa57600080fd5b506100cd6004803603810190808035600019169060200190929190505050610363565b005b3480156100db57600080fd5b506100e4610432565b60405180826000191660001916815260200191505060405180910390f35b34801561010e57600080fd5b50610143600480360381019080803573ffffffffffffffffffffffffffffffffffffffff16906020019092919050505061048c565b6040518084600019166000191681526020018373ffffffffffffffffffffffffffffffffffffffff1673ffffffffffffffffffffffffffffffffffffffff1681526020018260001916600019168152602001935050505060405180910390f35b3480156101af57600080fd5b506101d260048036038101908080356000191690602001909291905050506104d6565b005b3480156101e057600080fd5b506101e9610576565b005b3480156101f757600080fd5b5061022c600480360381019080803573ffffffffffffffffffffffffffffffffffffffff169060200190929190505050610611565b60405180826000191660001916815260200191505060405180910390f35b34801561025657600080fd5b5061028b600480360381019080803573ffffffffffffffffffffffffffffffffffffffff169060200190929190505050610629565b60405180826000191660001916815260200191505060405180910390f35b3480156102b557600080fd5b506102ea600480360381019080803573ffffffffffffffffffffffffffffffffffffffff169060200190929190505050610685565b60405180826000191660001916815260200191505060405180910390f35b34801561031457600080fd5b50610349600480360381019080803573ffffffffffffffffffffffffffffffffffffffff16906020019092919050505061076d565b604051808215151515815260200191505060405180910390f35b80600160003373ffffffffffffffffffffffffffffffffffffffff1673ffffffffffffffffffffffffffffffffffffffff168152602001908152602001600020600001816000191690555033600160003373ffffffffffffffffffffffffffffffffffffffff1673ffffffffffffffffffffffffffffffffffffffff16815260200190815260200160002060010160006101000a81548173ffffffffffffffffffffffffffffffffffffffff021916908373ffffffffffffffffffffffffffffffffffffffff16021790555050565b600061043d3361076d565b151561044857600080fd5b6000803373ffffffffffffffffffffffffffffffffffffffff1673ffffffffffffffffffffffffffffffffffffffff16815260200190815260200160002054905090565b60016020528060005260406000206000915090508060000154908060010160009054906101000a900473ffffffffffffffffffffffffffffffffffffffff16908060020154905083565b806000803373ffffffffffffffffffffffffffffffffffffffff1673ffffffffffffffffffffffffffffffffffffffff16815260200190815260200160002081600019169055503373ffffffffffffffffffffffffffffffffffffffff167f18ec7dd8c4d713eb3c2e0c61825f878a47e207600626611c5bc15009c743b4b68260405180826000191660001916815260200191505060405180910390a250565b61057f3361076d565b151561058a57600080fd5b6000803373ffffffffffffffffffffffffffffffffffffffff1673ffffffffffffffffffffffffffffffffffffffff168152602001908152602001600020600090553373ffffffffffffffffffffffffffffffffffffffff167f36539d9970f057e4d26f828835b69fcfff15ff997f804dace8aed405cb98455f60405160405180910390a2565b60006020528060005260406000206000915090505481565b60006106348261076d565b151561063f57600080fd5b6000808373ffffffffffffffffffffffffffffffffffffffff1673ffffffffffffffffffffffffffffffffffffffff168152602001908152602001600020549050919050565b60003373ffffffffffffffffffffffffffffffffffffffff16600160008473ffffffffffffffffffffffffffffffffffffffff1673ffffffffffffffffffffffffffffffffffffffff16815260200190815260200160002060010160009054906101000a900473ffffffffffffffffffffffffffffffffffffffff1673ffffffffffffffffffffffffffffffffffffffff1614151561072357600080fd5b600160008373ffffffffffffffffffffffffffffffffffffffff1673ffffffffffffffffffffffffffffffffffffffff168152602001908152602001600020600001549050919050565b600080600102600019166000808473ffffffffffffffffffffffffffffffffffffffff1673ffffffffffffffffffffffffffffffffffffffff1681526020019081526020016000205460001916141590509190505600a165627a7a7230582045aebc0f6851cabaa9e970bf7bd894a2a779ec54695ec72da647876b96b256700029",
  "source": "pragma solidity ^0.4.14;\n\ncontract Users {\n\n  struct User {\n    bytes32 name;\n    address owner;\n    bytes32 IFPSHash;\n  }\n\n  struct Organization {\n    bytes32 name;\n    address owner;\n    bytes32 IFPSHash;\n  }\n\n  struct Api {\n    address owner;\n    bytes32 IFPSHash;\n  }\n\n  mapping(address => bytes32) public users;\n  mapping(address => Organization) public organizations;\n\n  event UserCreated(address indexed _address, bytes32 _pseudo);\n  event UserDestroyed(address indexed _address);\n  \n\n  function exists (address _address) public constant returns (bool _exists) {\n    return (users[_address] != bytes32(0));\n  }\n\n  function authenticate () public constant returns (bytes32 _pseudo) {\n    require(exists(msg.sender));\n    return (users[msg.sender]);\n  }\n\n  function create (bytes32 _pseudo) public {\n    users[msg.sender] = _pseudo ;\n    UserCreated(msg.sender, _pseudo);\n  }\n\n  function createOrganization(bytes32 _pseudo) public {\n    organizations[msg.sender].name = _pseudo;\n    organizations[msg.sender].owner = msg.sender; \n  }\n  \n  function authenticateOrganization (address _address) public constant returns (bytes32) {\n    require(organizations[_address].owner == msg.sender); \n    return (organizations[_address].name); \n  }\n\n  function destroy () public {\n    require(exists(msg.sender));\n    delete users[msg.sender];\n    UserDestroyed(msg.sender);\n  }\n\n  function get (address _address) public constant returns(bytes32 _pseudo) {\n    require(exists(_address));\n    return (users[_address]);\n  }\n\n}\n",
  "sourcePath": "/Users/Hai/Google Drive/KMS/01. Work/121. Vue/Vue_Truffle/contracts/Users.sol",
  "compiler": {
    "name": "solc",
    "version": "0.4.24+commit.e67f0147.Emscripten.clang"
  },
  "schemaVersion": "3.0.11",
  "updatedAt": "2019-09-25T15:19:17.096Z",
  "devdoc": {
    "methods": {}
  },
  "userdoc": {
    "methods": {}
  }
}