{
  "contractName": "Verifier",
  "abi": [
    {
      "constant": true,
      "inputs": [],
      "name": "chainId",
      "outputs": [
        {
          "internalType": "uint256",
          "name": "",
          "type": "uint256"
        }
      ],
      "payable": false,
      "stateMutability": "view",
      "type": "function"
    },
    {
      "constant": true,
      "inputs": [],
      "name": "salt",
      "outputs": [
        {
          "internalType": "bytes32",
          "name": "",
          "type": "bytes32"
        }
      ],
      "payable": false,
      "stateMutability": "view",
      "type": "function"
    },
    {
      "constant": true,
      "inputs": [],
      "name": "verifyingContract",
      "outputs": [
        {
          "internalType": "address",
          "name": "",
          "type": "address"
        }
      ],
      "payable": false,
      "stateMutability": "view",
      "type": "function"
    },
    {
      "constant": true,
      "inputs": [
        {
          "internalType": "address",
          "name": "author",
          "type": "address"
        },
        {
          "internalType": "string",
          "name": "appName",
          "type": "string"
        },
        {
          "internalType": "string",
          "name": "description",
          "type": "string"
        },
        {
          "internalType": "string",
          "name": "downloadLink",
          "type": "string"
        },
        {
          "internalType": "address[]",
          "name": "supportedApp",
          "type": "address[]"
        },
        {
          "internalType": "bytes32",
          "name": "sigR",
          "type": "bytes32"
        },
        {
          "internalType": "bytes32",
          "name": "sigS",
          "type": "bytes32"
        },
        {
          "internalType": "uint8",
          "name": "sigV",
          "type": "uint8"
        }
      ],
      "name": "verifyApp",
      "outputs": [
        {
          "internalType": "bool",
          "name": "",
          "type": "bool"
        }
      ],
      "payable": false,
      "stateMutability": "view",
      "type": "function"
    },
    {
      "constant": true,
      "inputs": [],
      "name": "test",
      "outputs": [
        {
          "internalType": "string",
          "name": "",
          "type": "string"
        }
      ],
      "payable": false,
      "stateMutability": "view",
      "type": "function"
    }
  ],
  "bytecode": "0x608060405234801561001057600080fd5b50610dbb806100206000396000f3fe608060405234801561001057600080fd5b50600436106100575760003560e01c806311b8ba5c1461005c5780639a8a05921461008c578063a787d61b146100aa578063bfa0b133146100c8578063f8a8fd6d146100e6575b600080fd5b6100766004803603610071919081019061058b565b610104565b6040516100839190610958565b60405180910390f35b6100946101e5565b6040516100a19190610ab7565b60405180910390f35b6100b26101ef565b6040516100bf919061093d565b60405180910390f35b6100d0610207565b6040516100dd9190610973565b60405180910390f35b6100ee61022e565b6040516100fb9190610a95565b60405180910390f35b600061010e610430565b6040518060a001604052808b73ffffffffffffffffffffffffffffffffffffffff1681526020018a8152602001898152602001888152602001878152509050600161015882610270565b848787604051600081526020016040526040516101789493929190610a50565b6020604051602081039080840390855afa15801561019a573d6000803e3d6000fd5b5050506020604051035173ffffffffffffffffffffffffffffffffffffffff16816000015173ffffffffffffffffffffffffffffffffffffffff161491505098975050505050505050565b65016ffa9cf37281565b731c56346cd2a2bf3202f771f50d3d14a367b4807081565b7ff2d857f4a3edcb9b78b4d503bfe733db1e3f6cdc2b7971ee739626c97e86a55860001b81565b6060806040518060400160405280600381526020017f686579000000000000000000000000000000000000000000000000000000000081525090508091505090565b60006040518060800160405280605f8152602001610d1a605f913960405160200161029b91906108c5565b604051602081830303815290604052805190602001206040516102bd90610913565b60405180910390206040516102d190610928565b604051809103902065016ffa9cf372731c56346cd2a2bf3202f771f50d3d14a367b480707ff2d857f4a3edcb9b78b4d503bfe733db1e3f6cdc2b7971ee739626c97e86a55860001b60405160200161032e969594939291906109ef565b60405160208183030381529060405280519060200120604051806080016040528060608152602001610cba6060913960405160200161036d91906108c5565b60405160208183030381529060405280519060200120836000015184602001518051906020012085604001518051906020012086606001518051906020012087608001516040516020016103c191906108ae565b604051602081830303815290604052805190602001206040516020016103ec9695949392919061098e565b604051602081830303815290604052805190602001206040516020016104139291906108dc565b604051602081830303815290604052805190602001209050919050565b6040518060a00160405280600073ffffffffffffffffffffffffffffffffffffffff168152602001606081526020016060815260200160608152602001606081525090565b60008135905061048481610c74565b92915050565b600082601f83011261049b57600080fd5b81356104ae6104a982610aff565b610ad2565b915081818352602084019350602081019050838560208402820111156104d357600080fd5b60005b8381101561050357816104e98882610475565b8452602084019350602083019250506001810190506104d6565b5050505092915050565b60008135905061051c81610c8b565b92915050565b600082601f83011261053357600080fd5b813561054661054182610b27565b610ad2565b9150808252602083016020830185838301111561056257600080fd5b61056d838284610c17565b50505092915050565b60008135905061058581610ca2565b92915050565b600080600080600080600080610100898b0312156105a857600080fd5b60006105b68b828c01610475565b985050602089013567ffffffffffffffff8111156105d357600080fd5b6105df8b828c01610522565b975050604089013567ffffffffffffffff8111156105fc57600080fd5b6106088b828c01610522565b965050606089013567ffffffffffffffff81111561062557600080fd5b6106318b828c01610522565b955050608089013567ffffffffffffffff81111561064e57600080fd5b61065a8b828c0161048a565b94505060a061066b8b828c0161050d565b93505060c061067c8b828c0161050d565b92505060e061068d8b828c01610576565b9150509295985092959890939650565b60006106a983836106c4565b60208301905092915050565b6106be81610bb8565b82525050565b6106cd81610bb8565b82525050565b60006106de82610b63565b6106e88185610b91565b93506106f383610b53565b8060005b8381101561072457815161070b888261069d565b975061071683610b84565b9250506001810190506106f7565b5085935050505092915050565b61073a81610bca565b82525050565b61074981610bd6565b82525050565b61076061075b82610bd6565b610c59565b82525050565b600061077182610b79565b61077b8185610b9c565b935061078b818560208601610c26565b61079481610c63565b840191505092915050565b60006107aa82610b6e565b6107b48185610bad565b93506107c4818560208601610c26565b80840191505092915050565b60006107dd600283610bad565b91507f19010000000000000000000000000000000000000000000000000000000000006000830152600282019050919050565b600061081d601483610bad565b91507f4d61726b6574706c6163652052656769737472790000000000000000000000006000830152601482019050919050565b600061085d600183610bad565b91507f31000000000000000000000000000000000000000000000000000000000000006000830152600182019050919050565b61089981610c00565b82525050565b6108a881610c0a565b82525050565b60006108ba82846106d3565b915081905092915050565b60006108d1828461079f565b915081905092915050565b60006108e7826107d0565b91506108f3828561074f565b602082019150610903828461074f565b6020820191508190509392505050565b600061091e82610810565b9150819050919050565b600061093382610850565b9150819050919050565b600060208201905061095260008301846106b5565b92915050565b600060208201905061096d6000830184610731565b92915050565b60006020820190506109886000830184610740565b92915050565b600060c0820190506109a36000830189610740565b6109b060208301886106b5565b6109bd6040830187610740565b6109ca6060830186610740565b6109d76080830185610740565b6109e460a0830184610740565b979650505050505050565b600060c082019050610a046000830189610740565b610a116020830188610740565b610a1e6040830187610740565b610a2b6060830186610890565b610a3860808301856106b5565b610a4560a0830184610740565b979650505050505050565b6000608082019050610a656000830187610740565b610a72602083018661089f565b610a7f6040830185610740565b610a8c6060830184610740565b95945050505050565b60006020820190508181036000830152610aaf8184610766565b905092915050565b6000602082019050610acc6000830184610890565b92915050565b6000604051905081810181811067ffffffffffffffff82111715610af557600080fd5b8060405250919050565b600067ffffffffffffffff821115610b1657600080fd5b602082029050602081019050919050565b600067ffffffffffffffff821115610b3e57600080fd5b601f19601f8301169050602081019050919050565b6000819050602082019050919050565b600081519050919050565b600081519050919050565b600081519050919050565b6000602082019050919050565b600081905092915050565b600082825260208201905092915050565b600081905092915050565b6000610bc382610be0565b9050919050565b60008115159050919050565b6000819050919050565b600073ffffffffffffffffffffffffffffffffffffffff82169050919050565b6000819050919050565b600060ff82169050919050565b82818337600083830152505050565b60005b83811015610c44578082015181840152602081019050610c29565b83811115610c53576000848401525b50505050565b6000819050919050565b6000601f19601f8301169050919050565b610c7d81610bb8565b8114610c8857600080fd5b50565b610c9481610bd6565b8114610c9f57600080fd5b50565b610cab81610c0a565b8114610cb657600080fd5b5056fe417070286164647265737320617574686f722c737472696e67206170704e616d652c737472696e67206465736372697074696f6e2c737472696e6720646f776e6c6f61644c696e6b2c616464726573735b5d20737570706f7274656441707029454950373132446f6d61696e28737472696e67206e616d652c737472696e672076657273696f6e2c75696e7432353620636861696e49642c6164647265737320766572696679696e67436f6e74726163742c627974657333322073616c7429a365627a7a723158209f5ac17e060e8cace0e495050375f32cd903b8f4e706ae594e8c76eee3f8052c6c6578706572696d656e74616cf564736f6c634300050c0040",
  "source": "pragma solidity ^0.5.0;\npragma experimental ABIEncoderV2;\n\ncontract Verifier {\n    uint256 public constant chainId = 1580457587570;\n    address public constant verifyingContract = 0x1C56346CD2A2Bf3202F771f50d3D14a367B48070;\n    bytes32 public constant salt = 0xf2d857f4a3edcb9b78b4d503bfe733db1e3f6cdc2b7971ee739626c97e86a558;\n    \n    string private constant EIP712_DOMAIN  = \"EIP712Domain(string name,string version,uint256 chainId,address verifyingContract,bytes32 salt)\";\n    string private constant IDENTITY_TYPE = \"Identity(uint256 userId,address wallet)\";\n    string private constant BID_TYPE = \"Bid(uint256 amount,Identity bidder)Identity(uint256 userId,address wallet)\";\n    string private constant APP_TYPE = \"App(address author,string appName,string description,string downloadLink,address[] supportedApp)\";\n    \n    bytes32 private constant EIP712_DOMAIN_TYPEHASH = keccak256(abi.encodePacked(EIP712_DOMAIN));\n    bytes32 private constant IDENTITY_TYPEHASH = keccak256(abi.encodePacked(IDENTITY_TYPE));\n    bytes32 private constant BID_TYPEHASH = keccak256(abi.encodePacked(BID_TYPE));\n    bytes32 private constant APP_TYPEHASH = keccak256(abi.encodePacked(APP_TYPE)); \n    \n    bytes32 private constant DOMAIN_SEPARATOR = keccak256(abi.encode(\n        EIP712_DOMAIN_TYPEHASH,\n        keccak256(\"Marketplace Registry\"),\n        keccak256(\"1\"),\n        chainId,\n        verifyingContract,\n        salt\n    ));\n    \n    struct App {\n        address author;\n        string appName;\n        string description;\n        string downloadLink;\n        address[] supportedApp;\n    }\n    \n    struct Identity {\n        uint256 userId;\n        address wallet;\n    }\n    \n    struct Bid {\n        uint256 amount;\n        Identity bidder;\n    }\n    \n    function hashIdentity(Identity memory identity) private pure returns (bytes32) {\n        return keccak256(abi.encode(\n            IDENTITY_TYPEHASH,\n            identity.userId,\n            identity.wallet\n        ));\n    }\n    \n    function hashBid(Bid memory bid) private pure returns (bytes32){\n        return keccak256(abi.encodePacked(\n            \"\\x19\\x01\",\n            DOMAIN_SEPARATOR,\n            keccak256(abi.encode(\n                BID_TYPEHASH,\n                bid.amount,\n                hashIdentity(bid.bidder)\n            ))\n        ));\n    }\n    \n    // App control function \n    //@param: complete App Struct. This will need to be passed by the client. \n    function hashApp(App memory app) private pure returns (bytes32){\n        // once you register an App, you give ownership to the marketplace\n        // app.\n       // require(app.owner == entityOwner[app]); \n        \n        return keccak256(abi.encodePacked(\n            \"\\x19\\x01\",\n            DOMAIN_SEPARATOR,\n            keccak256(abi.encode(\n                APP_TYPEHASH,\n                app.author,\n                keccak256(bytes(app.appName)),\n                keccak256(bytes(app.description)),\n                keccak256(bytes(app.downloadLink)),\n                keccak256(abi.encodePacked(app.supportedApp))\n            ))\n        ));\n    }\n    \n     function verifyApp\n     (address author, string memory appName,\n     string memory description,\n      string memory downloadLink, address[] memory supportedApp, bytes32 sigR,\n       bytes32 sigS, uint8 sigV) public view returns (bool)\n     {\n\n        App memory app = App({\n            author: author,\n            appName: appName,\n            description: description,\n            downloadLink: downloadLink,\n            supportedApp: supportedApp\n        });\n\n      \n        \n        //check if the signature will return true\n        // set Attribute Signature : IPFS HASH. \n        // Simple Question again. Who wants to verify the App and what does he want to verify?\n        // The EndUser who uses a service or even the centralized server. Now the server would want to know, \n        // If the data which has been registered, is really the same as the IPFS hashApp\n        // Since he can only registers it when following certain guidelines, he still would need a way to know,\n        // that the IFPS hash is really the data which has been put in to be verified. \n        // He could say that it is another app address which belongs to him, though it does not. and then provide a fake link, so that users get tricked into downloading scam. \n        // So the IPFS HAsh will be the App struct, a piece of data that gets signed. \n        // The signature of what is being accepted will need to be the same then on the IPFS HAsh object. So if I fetch the IPFS Object and I put in the signature I should get out the author of that thing. \n        // Who is the author of that thing? I obviously want to know the author of that thing. Only the author of that thing will give me the right signature, cause only the author has the key. \n        // IPFS Hash and signature should therefore return me the author of that \n        \n        return app.author == ecrecover(hashApp(app), sigV, sigR, sigS);\n    }\n\n    function test() public view returns(string memory ){\n        string memory d = 'hey';\n        return d;\n    }\n    \n}",
  "sourcePath": "/Users/Hai/Google Drive/KMS/01. Work/121. Vue/Vue_Truffle/contracts/Verifier.sol",
  "compiler": {
    "name": "solc",
    "version": "0.5.12+commit.7709ece9.Emscripten.clang"
  },
  "schemaVersion": "3.0.11",
  "updatedAt": "2020-02-17T13:48:24.829Z",
  "devdoc": {
    "methods": {}
  },
  "userdoc": {
    "methods": {}
  }
}