{
  "contractName": "Verifier",
  "abi": [
    {
      "constant": true,
      "inputs": [],
      "name": "chainId",
      "outputs": [
        {
          "internalType": "uint256",
          "name": "",
          "type": "uint256"
        }
      ],
      "payable": false,
      "stateMutability": "view",
      "type": "function"
    },
    {
      "constant": true,
      "inputs": [],
      "name": "salt",
      "outputs": [
        {
          "internalType": "bytes32",
          "name": "",
          "type": "bytes32"
        }
      ],
      "payable": false,
      "stateMutability": "view",
      "type": "function"
    },
    {
      "constant": true,
      "inputs": [],
      "name": "verifyingContract",
      "outputs": [
        {
          "internalType": "address",
          "name": "",
          "type": "address"
        }
      ],
      "payable": false,
      "stateMutability": "view",
      "type": "function"
    },
    {
      "constant": true,
      "inputs": [
        {
          "internalType": "address",
          "name": "owner",
          "type": "address"
        },
        {
          "internalType": "address",
          "name": "author",
          "type": "address"
        },
        {
          "internalType": "string",
          "name": "appName",
          "type": "string"
        },
        {
          "internalType": "string",
          "name": "description",
          "type": "string"
        },
        {
          "internalType": "address",
          "name": "issuer",
          "type": "address"
        },
        {
          "internalType": "string",
          "name": "downloadLink",
          "type": "string"
        },
        {
          "internalType": "bytes32",
          "name": "sigR",
          "type": "bytes32"
        },
        {
          "internalType": "bytes32",
          "name": "sigS",
          "type": "bytes32"
        },
        {
          "internalType": "uint8",
          "name": "sigV",
          "type": "uint8"
        }
      ],
      "name": "verifyApp",
      "outputs": [
        {
          "internalType": "bool",
          "name": "",
          "type": "bool"
        }
      ],
      "payable": false,
      "stateMutability": "view",
      "type": "function"
    }
  ],
  "bytecode": "0x608060405234801561001057600080fd5b50610ba4806100206000396000f3fe608060405234801561001057600080fd5b506004361061004c5760003560e01c806395fc38e8146100515780639a8a059214610081578063a787d61b1461009f578063bfa0b133146100bd575b600080fd5b61006b600480360361006691908101906104e3565b6100db565b60405161007891906107d7565b60405180910390f35b6100896101ef565b6040516100969190610922565b60405180910390f35b6100a76101f9565b6040516100b491906107bc565b60405180910390f35b6100c5610211565b6040516100d291906107f2565b60405180910390f35b60006100e56103d8565b6040518060c001604052808c73ffffffffffffffffffffffffffffffffffffffff1681526020018b73ffffffffffffffffffffffffffffffffffffffff1681526020018a81526020018981526020018873ffffffffffffffffffffffffffffffffffffffff168152602001878152509050600161016182610238565b8487876040516000815260200160405260405161018194939291906108dd565b6020604051602081039080840390855afa1580156101a3573d6000803e3d6000fd5b5050506020604051035173ffffffffffffffffffffffffffffffffffffffff16816020015173ffffffffffffffffffffffffffffffffffffffff16149150509998505050505050505050565b65016ead397a2881565b731c56346cd2a2bf3202f771f50d3d14a367b4807081565b7ff2d857f4a3edcb9b78b4d503bfe733db1e3f6cdc2b7971ee739626c97e86a55860001b81565b60006040518060800160405280605f8152602001610b03605f91396040516020016102639190610744565b6040516020818303038152906040528051906020012060405161028590610792565b6040518091039020604051610299906107a7565b604051809103902065016ead397a28731c56346cd2a2bf3202f771f50d3d14a367b480707ff2d857f4a3edcb9b78b4d503bfe733db1e3f6cdc2b7971ee739626c97e86a55860001b6040516020016102f69695949392919061087c565b604051602081830303815290604052805190602001206040518060a0016040528060668152602001610a9d606691396040516020016103359190610744565b604051602081830303815290604052805190602001208360000151846020015185604001518051906020012086606001518051906020012087608001518860a0015180519060200120604051602001610394979695949392919061080d565b604051602081830303815290604052805190602001206040516020016103bb92919061075b565b604051602081830303815290604052805190602001209050919050565b6040518060c00160405280600073ffffffffffffffffffffffffffffffffffffffff168152602001600073ffffffffffffffffffffffffffffffffffffffff1681526020016060815260200160608152602001600073ffffffffffffffffffffffffffffffffffffffff168152602001606081525090565b60008135905061045f81610a57565b92915050565b60008135905061047481610a6e565b92915050565b600082601f83011261048b57600080fd5b813561049e6104998261096a565b61093d565b915080825260208301602083018583830111156104ba57600080fd5b6104c5838284610a0b565b50505092915050565b6000813590506104dd81610a85565b92915050565b60008060008060008060008060006101208a8c03121561050257600080fd5b60006105108c828d01610450565b99505060206105218c828d01610450565b98505060408a013567ffffffffffffffff81111561053e57600080fd5b61054a8c828d0161047a565b97505060608a013567ffffffffffffffff81111561056757600080fd5b6105738c828d0161047a565b96505060806105848c828d01610450565b95505060a08a013567ffffffffffffffff8111156105a157600080fd5b6105ad8c828d0161047a565b94505060c06105be8c828d01610465565b93505060e06105cf8c828d01610465565b9250506101006105e18c828d016104ce565b9150509295985092959850929598565b6105fa816109ac565b82525050565b610609816109be565b82525050565b610618816109ca565b82525050565b61062f61062a826109ca565b610a4d565b82525050565b600061064082610996565b61064a81856109a1565b935061065a818560208601610a1a565b80840191505092915050565b60006106736002836109a1565b91507f19010000000000000000000000000000000000000000000000000000000000006000830152600282019050919050565b60006106b36014836109a1565b91507f4d61726b6574706c6163652052656769737472790000000000000000000000006000830152601482019050919050565b60006106f36001836109a1565b91507f31000000000000000000000000000000000000000000000000000000000000006000830152600182019050919050565b61072f816109f4565b82525050565b61073e816109fe565b82525050565b60006107508284610635565b915081905092915050565b600061076682610666565b9150610772828561061e565b602082019150610782828461061e565b6020820191508190509392505050565b600061079d826106a6565b9150819050919050565b60006107b2826106e6565b9150819050919050565b60006020820190506107d160008301846105f1565b92915050565b60006020820190506107ec6000830184610600565b92915050565b6000602082019050610807600083018461060f565b92915050565b600060e082019050610822600083018a61060f565b61082f60208301896105f1565b61083c60408301886105f1565b610849606083018761060f565b610856608083018661060f565b61086360a08301856105f1565b61087060c083018461060f565b98975050505050505050565b600060c082019050610891600083018961060f565b61089e602083018861060f565b6108ab604083018761060f565b6108b86060830186610726565b6108c560808301856105f1565b6108d260a083018461060f565b979650505050505050565b60006080820190506108f2600083018761060f565b6108ff6020830186610735565b61090c604083018561060f565b610919606083018461060f565b95945050505050565b60006020820190506109376000830184610726565b92915050565b6000604051905081810181811067ffffffffffffffff8211171561096057600080fd5b8060405250919050565b600067ffffffffffffffff82111561098157600080fd5b601f19601f8301169050602081019050919050565b600081519050919050565b600081905092915050565b60006109b7826109d4565b9050919050565b60008115159050919050565b6000819050919050565b600073ffffffffffffffffffffffffffffffffffffffff82169050919050565b6000819050919050565b600060ff82169050919050565b82818337600083830152505050565b60005b83811015610a38578082015181840152602081019050610a1d565b83811115610a47576000848401525b50505050565b6000819050919050565b610a60816109ac565b8114610a6b57600080fd5b50565b610a77816109ca565b8114610a8257600080fd5b50565b610a8e816109fe565b8114610a9957600080fd5b5056fe4170702861646472657373206f776e65722c6164647265737320617574686f722c737472696e67206170704e616d652c737472696e67206465736372697074696f6e2c61646472657373206973737565722c737472696e6720646f776e6c6f61644c696e6b29454950373132446f6d61696e28737472696e67206e616d652c737472696e672076657273696f6e2c75696e7432353620636861696e49642c6164647265737320766572696679696e67436f6e74726163742c627974657333322073616c7429a365627a7a723158203e34ed2111865e6bbb7900ebc9a863f1bd6f6e1f4cd0f8a06c80252a6a8133ea6c6578706572696d656e74616cf564736f6c634300050c0040",
  "source": "pragma solidity ^0.5.0;\npragma experimental ABIEncoderV2;\n\ncontract Verifier {\n    uint256 public constant chainId = 1574864255528;\n    address public constant verifyingContract = 0x1C56346CD2A2Bf3202F771f50d3D14a367B48070;\n    bytes32 public constant salt = 0xf2d857f4a3edcb9b78b4d503bfe733db1e3f6cdc2b7971ee739626c97e86a558;\n    \n    string private constant EIP712_DOMAIN  = \"EIP712Domain(string name,string version,uint256 chainId,address verifyingContract,bytes32 salt)\";\n    string private constant IDENTITY_TYPE = \"Identity(uint256 userId,address wallet)\";\n    string private constant BID_TYPE = \"Bid(uint256 amount,Identity bidder)Identity(uint256 userId,address wallet)\";\n    string private constant APP_TYPE = \"App(address owner,address author,string appName,string description,address issuer,string downloadLink)\";\n    \n    bytes32 private constant EIP712_DOMAIN_TYPEHASH = keccak256(abi.encodePacked(EIP712_DOMAIN));\n    bytes32 private constant IDENTITY_TYPEHASH = keccak256(abi.encodePacked(IDENTITY_TYPE));\n    bytes32 private constant BID_TYPEHASH = keccak256(abi.encodePacked(BID_TYPE));\n    bytes32 private constant APP_TYPEHASH = keccak256(abi.encodePacked(APP_TYPE)); \n    \n    bytes32 private constant DOMAIN_SEPARATOR = keccak256(abi.encode(\n        EIP712_DOMAIN_TYPEHASH,\n        keccak256(\"Marketplace Registry\"),\n        keccak256(\"1\"),\n        chainId,\n        verifyingContract,\n        salt\n    ));\n    \n    struct App {\n        address owner;\n        address author;\n        string appName;\n        string description;\n        address issuer; \n        string downloadLink;\n    }\n    \n    struct Identity {\n        uint256 userId;\n        address wallet;\n    }\n    \n    struct Bid {\n        uint256 amount;\n        Identity bidder;\n    }\n    \n    function hashIdentity(Identity memory identity) private pure returns (bytes32) {\n        return keccak256(abi.encode(\n            IDENTITY_TYPEHASH,\n            identity.userId,\n            identity.wallet\n        ));\n    }\n    \n    function hashBid(Bid memory bid) private pure returns (bytes32){\n        return keccak256(abi.encodePacked(\n            \"\\x19\\x01\",\n            DOMAIN_SEPARATOR,\n            keccak256(abi.encode(\n                BID_TYPEHASH,\n                bid.amount,\n                hashIdentity(bid.bidder)\n            ))\n        ));\n    }\n    \n    // App control function \n    //@param: complete App Struct. This will need to be passed by the client. \n    function hashApp(App memory app) private pure returns (bytes32){\n        // once you register an App, you give ownership to the marketplace\n        // app.\n       // require(app.owner == entityOwner[app]); \n        \n        return keccak256(abi.encodePacked(\n            \"\\x19\\x01\",\n            DOMAIN_SEPARATOR,\n            keccak256(abi.encode(\n                APP_TYPEHASH,\n                app.owner,\n                app.author,\n                keccak256(bytes(app.appName)),\n                keccak256(bytes(app.description)),\n                app.issuer,\n                keccak256(bytes(app.downloadLink))\n            ))\n        ));\n    }\n    \n     function verifyApp\n     (address owner, address author, string memory appName,\n     string memory description, address issuer,\n      string memory downloadLink, bytes32 sigR,\n       bytes32 sigS, uint8 sigV) public view returns (bool)\n     {\n\n        App memory app = App({\n            owner: owner,\n            author: author,\n            appName: appName,\n            description: description,\n            issuer: issuer,\n            downloadLink: downloadLink\n        });\n\n\n        //check if the signature will return true\n        // set Attribute Signature : IPFS HASH. \n        // Simple Question again. Who wants to verify the App and what does he want to verify?\n        // The EndUser who uses a service or even the centralized server. Now the server would want to know, \n        // If the data which has been registered, is really the same as the IPFS hashApp\n        // Since he can only registers it when following certain guidelines, he still would need a way to know,\n        // that the IFPS hash is really the data which has been put in to be verified. \n        // He could say that it is another app address which belongs to him, though it does not. and then provide a fake link, so that users get tricked into downloading scam. \n        // So the IPFS HAsh will be the App struct, a piece of data that gets signed. \n        // The signature of what is being accepted will need to be the same then on the IPFS HAsh object. So if I fetch the IPFS Object and I put in the signature I should get out the author of that thing. \n        // Who is the author of that thing? I obviously want to know the author of that thing. Only the author of that thing will give me the right signature, cause only the author has the key. \n        // IPFS Hash and signature should therefore return me the author of that \n        \n        return app.author == ecrecover(hashApp(app), sigV, sigR, sigS);\n    }\n    \n}",
  "sourcePath": "/Users/Hai/Google Drive/KMS/01. Work/121. Vue/Vue_Truffle/contracts/Verifier.sol",
  "compiler": {
    "name": "solc",
    "version": "0.5.12+commit.7709ece9.Emscripten.clang"
  },
  "schemaVersion": "3.0.11",
  "updatedAt": "2019-12-05T14:55:59.389Z",
  "devdoc": {
    "methods": {}
  },
  "userdoc": {
    "methods": {}
  }
}